
HID_device_keyboard.elf:     file format elf32-littlearm

Sections:
Idx Name          Size      VMA       LMA       File off  Algn
  0 .isr_vector   000001f8  08000000  08000000  00010000  2**0
                  CONTENTS, ALLOC, LOAD, READONLY, DATA
  1 .text         00007fd0  080001f8  080001f8  000101f8  2**2
                  CONTENTS, ALLOC, LOAD, READONLY, CODE
  2 .rodata       00000060  080081c8  080081c8  000181c8  2**2
                  CONTENTS, ALLOC, LOAD, READONLY, DATA
  3 .ARM.extab    00000000  08008228  08008228  00020248  2**0
                  CONTENTS
  4 .ARM          00000008  08008228  08008228  00018228  2**2
                  CONTENTS, ALLOC, LOAD, READONLY, DATA
  5 .preinit_array 00000000  08008230  08008230  00020248  2**0
                  CONTENTS, ALLOC, LOAD, DATA
  6 .init_array   00000004  08008230  08008230  00018230  2**2
                  CONTENTS, ALLOC, LOAD, DATA
  7 .fini_array   00000004  08008234  08008234  00018234  2**2
                  CONTENTS, ALLOC, LOAD, DATA
  8 .data         00000248  20000000  08008238  00020000  2**2
                  CONTENTS, ALLOC, LOAD, DATA
  9 .bss          000009d8  20000248  08008480  00020248  2**2
                  ALLOC
 10 ._user_heap_stack 00000600  20000c20  08008480  00020c20  2**0
                  ALLOC
 11 .ARM.attributes 0000002e  00000000  00000000  00020248  2**0
                  CONTENTS, READONLY
 12 .debug_info   00016ba8  00000000  00000000  00020276  2**0
                  CONTENTS, READONLY, DEBUGGING
 13 .debug_abbrev 000030ae  00000000  00000000  00036e1e  2**0
                  CONTENTS, READONLY, DEBUGGING
 14 .debug_aranges 00000f08  00000000  00000000  00039ed0  2**3
                  CONTENTS, READONLY, DEBUGGING
 15 .debug_ranges 00000d90  00000000  00000000  0003add8  2**3
                  CONTENTS, READONLY, DEBUGGING
 16 .debug_macro  0002b0d4  00000000  00000000  0003bb68  2**0
                  CONTENTS, READONLY, DEBUGGING
 17 .debug_line   0000f1a3  00000000  00000000  00066c3c  2**0
                  CONTENTS, READONLY, DEBUGGING
 18 .debug_str    000fddcb  00000000  00000000  00075ddf  2**0
                  CONTENTS, READONLY, DEBUGGING
 19 .comment      0000007b  00000000  00000000  00173baa  2**0
                  CONTENTS, READONLY
 20 .debug_frame  00003e2c  00000000  00000000  00173c28  2**2
                  CONTENTS, READONLY, DEBUGGING

Disassembly of section .text:

080001f8 <__do_global_dtors_aux>:
 80001f8:	b510      	push	{r4, lr}
 80001fa:	4c05      	ldr	r4, [pc, #20]	; (8000210 <__do_global_dtors_aux+0x18>)
 80001fc:	7823      	ldrb	r3, [r4, #0]
 80001fe:	b933      	cbnz	r3, 800020e <__do_global_dtors_aux+0x16>
 8000200:	4b04      	ldr	r3, [pc, #16]	; (8000214 <__do_global_dtors_aux+0x1c>)
 8000202:	b113      	cbz	r3, 800020a <__do_global_dtors_aux+0x12>
 8000204:	4804      	ldr	r0, [pc, #16]	; (8000218 <__do_global_dtors_aux+0x20>)
 8000206:	f3af 8000 	nop.w
 800020a:	2301      	movs	r3, #1
 800020c:	7023      	strb	r3, [r4, #0]
 800020e:	bd10      	pop	{r4, pc}
 8000210:	20000248 	.word	0x20000248
 8000214:	00000000 	.word	0x00000000
 8000218:	080081b0 	.word	0x080081b0

0800021c <frame_dummy>:
 800021c:	b508      	push	{r3, lr}
 800021e:	4b03      	ldr	r3, [pc, #12]	; (800022c <frame_dummy+0x10>)
 8000220:	b11b      	cbz	r3, 800022a <frame_dummy+0xe>
 8000222:	4903      	ldr	r1, [pc, #12]	; (8000230 <frame_dummy+0x14>)
 8000224:	4803      	ldr	r0, [pc, #12]	; (8000234 <frame_dummy+0x18>)
 8000226:	f3af 8000 	nop.w
 800022a:	bd08      	pop	{r3, pc}
 800022c:	00000000 	.word	0x00000000
 8000230:	2000024c 	.word	0x2000024c
 8000234:	080081b0 	.word	0x080081b0

08000238 <__aeabi_uldivmod>:
 8000238:	b953      	cbnz	r3, 8000250 <__aeabi_uldivmod+0x18>
 800023a:	b94a      	cbnz	r2, 8000250 <__aeabi_uldivmod+0x18>
 800023c:	2900      	cmp	r1, #0
 800023e:	bf08      	it	eq
 8000240:	2800      	cmpeq	r0, #0
 8000242:	bf1c      	itt	ne
 8000244:	f04f 31ff 	movne.w	r1, #4294967295
 8000248:	f04f 30ff 	movne.w	r0, #4294967295
 800024c:	f000 b972 	b.w	8000534 <__aeabi_idiv0>
 8000250:	f1ad 0c08 	sub.w	ip, sp, #8
 8000254:	e96d ce04 	strd	ip, lr, [sp, #-16]!
 8000258:	f000 f806 	bl	8000268 <__udivmoddi4>
 800025c:	f8dd e004 	ldr.w	lr, [sp, #4]
 8000260:	e9dd 2302 	ldrd	r2, r3, [sp, #8]
 8000264:	b004      	add	sp, #16
 8000266:	4770      	bx	lr

08000268 <__udivmoddi4>:
 8000268:	e92d 47f0 	stmdb	sp!, {r4, r5, r6, r7, r8, r9, sl, lr}
 800026c:	9e08      	ldr	r6, [sp, #32]
 800026e:	4604      	mov	r4, r0
 8000270:	4688      	mov	r8, r1
 8000272:	2b00      	cmp	r3, #0
 8000274:	d14b      	bne.n	800030e <__udivmoddi4+0xa6>
 8000276:	428a      	cmp	r2, r1
 8000278:	4615      	mov	r5, r2
 800027a:	d967      	bls.n	800034c <__udivmoddi4+0xe4>
 800027c:	fab2 f282 	clz	r2, r2
 8000280:	b14a      	cbz	r2, 8000296 <__udivmoddi4+0x2e>
 8000282:	f1c2 0720 	rsb	r7, r2, #32
 8000286:	fa01 f302 	lsl.w	r3, r1, r2
 800028a:	fa20 f707 	lsr.w	r7, r0, r7
 800028e:	4095      	lsls	r5, r2
 8000290:	ea47 0803 	orr.w	r8, r7, r3
 8000294:	4094      	lsls	r4, r2
 8000296:	ea4f 4e15 	mov.w	lr, r5, lsr #16
 800029a:	0c23      	lsrs	r3, r4, #16
 800029c:	fbb8 f7fe 	udiv	r7, r8, lr
 80002a0:	fa1f fc85 	uxth.w	ip, r5
 80002a4:	fb0e 8817 	mls	r8, lr, r7, r8
 80002a8:	ea43 4308 	orr.w	r3, r3, r8, lsl #16
 80002ac:	fb07 f10c 	mul.w	r1, r7, ip
 80002b0:	4299      	cmp	r1, r3
 80002b2:	d909      	bls.n	80002c8 <__udivmoddi4+0x60>
 80002b4:	18eb      	adds	r3, r5, r3
 80002b6:	f107 30ff 	add.w	r0, r7, #4294967295
 80002ba:	f080 811b 	bcs.w	80004f4 <__udivmoddi4+0x28c>
 80002be:	4299      	cmp	r1, r3
 80002c0:	f240 8118 	bls.w	80004f4 <__udivmoddi4+0x28c>
 80002c4:	3f02      	subs	r7, #2
 80002c6:	442b      	add	r3, r5
 80002c8:	1a5b      	subs	r3, r3, r1
 80002ca:	b2a4      	uxth	r4, r4
 80002cc:	fbb3 f0fe 	udiv	r0, r3, lr
 80002d0:	fb0e 3310 	mls	r3, lr, r0, r3
 80002d4:	ea44 4403 	orr.w	r4, r4, r3, lsl #16
 80002d8:	fb00 fc0c 	mul.w	ip, r0, ip
 80002dc:	45a4      	cmp	ip, r4
 80002de:	d909      	bls.n	80002f4 <__udivmoddi4+0x8c>
 80002e0:	192c      	adds	r4, r5, r4
 80002e2:	f100 33ff 	add.w	r3, r0, #4294967295
 80002e6:	f080 8107 	bcs.w	80004f8 <__udivmoddi4+0x290>
 80002ea:	45a4      	cmp	ip, r4
 80002ec:	f240 8104 	bls.w	80004f8 <__udivmoddi4+0x290>
 80002f0:	3802      	subs	r0, #2
 80002f2:	442c      	add	r4, r5
 80002f4:	ea40 4007 	orr.w	r0, r0, r7, lsl #16
 80002f8:	eba4 040c 	sub.w	r4, r4, ip
 80002fc:	2700      	movs	r7, #0
 80002fe:	b11e      	cbz	r6, 8000308 <__udivmoddi4+0xa0>
 8000300:	40d4      	lsrs	r4, r2
 8000302:	2300      	movs	r3, #0
 8000304:	e9c6 4300 	strd	r4, r3, [r6]
 8000308:	4639      	mov	r1, r7
 800030a:	e8bd 87f0 	ldmia.w	sp!, {r4, r5, r6, r7, r8, r9, sl, pc}
 800030e:	428b      	cmp	r3, r1
 8000310:	d909      	bls.n	8000326 <__udivmoddi4+0xbe>
 8000312:	2e00      	cmp	r6, #0
 8000314:	f000 80eb 	beq.w	80004ee <__udivmoddi4+0x286>
 8000318:	2700      	movs	r7, #0
 800031a:	e9c6 0100 	strd	r0, r1, [r6]
 800031e:	4638      	mov	r0, r7
 8000320:	4639      	mov	r1, r7
 8000322:	e8bd 87f0 	ldmia.w	sp!, {r4, r5, r6, r7, r8, r9, sl, pc}
 8000326:	fab3 f783 	clz	r7, r3
 800032a:	2f00      	cmp	r7, #0
 800032c:	d147      	bne.n	80003be <__udivmoddi4+0x156>
 800032e:	428b      	cmp	r3, r1
 8000330:	d302      	bcc.n	8000338 <__udivmoddi4+0xd0>
 8000332:	4282      	cmp	r2, r0
 8000334:	f200 80fa 	bhi.w	800052c <__udivmoddi4+0x2c4>
 8000338:	1a84      	subs	r4, r0, r2
 800033a:	eb61 0303 	sbc.w	r3, r1, r3
 800033e:	2001      	movs	r0, #1
 8000340:	4698      	mov	r8, r3
 8000342:	2e00      	cmp	r6, #0
 8000344:	d0e0      	beq.n	8000308 <__udivmoddi4+0xa0>
 8000346:	e9c6 4800 	strd	r4, r8, [r6]
 800034a:	e7dd      	b.n	8000308 <__udivmoddi4+0xa0>
 800034c:	b902      	cbnz	r2, 8000350 <__udivmoddi4+0xe8>
 800034e:	deff      	udf	#255	; 0xff
 8000350:	fab2 f282 	clz	r2, r2
 8000354:	2a00      	cmp	r2, #0
 8000356:	f040 808f 	bne.w	8000478 <__udivmoddi4+0x210>
 800035a:	1b49      	subs	r1, r1, r5
 800035c:	ea4f 4e15 	mov.w	lr, r5, lsr #16
 8000360:	fa1f f885 	uxth.w	r8, r5
 8000364:	2701      	movs	r7, #1
 8000366:	fbb1 fcfe 	udiv	ip, r1, lr
 800036a:	0c23      	lsrs	r3, r4, #16
 800036c:	fb0e 111c 	mls	r1, lr, ip, r1
 8000370:	ea43 4301 	orr.w	r3, r3, r1, lsl #16
 8000374:	fb08 f10c 	mul.w	r1, r8, ip
 8000378:	4299      	cmp	r1, r3
 800037a:	d907      	bls.n	800038c <__udivmoddi4+0x124>
 800037c:	18eb      	adds	r3, r5, r3
 800037e:	f10c 30ff 	add.w	r0, ip, #4294967295
 8000382:	d202      	bcs.n	800038a <__udivmoddi4+0x122>
 8000384:	4299      	cmp	r1, r3
 8000386:	f200 80cd 	bhi.w	8000524 <__udivmoddi4+0x2bc>
 800038a:	4684      	mov	ip, r0
 800038c:	1a59      	subs	r1, r3, r1
 800038e:	b2a3      	uxth	r3, r4
 8000390:	fbb1 f0fe 	udiv	r0, r1, lr
 8000394:	fb0e 1410 	mls	r4, lr, r0, r1
 8000398:	ea43 4404 	orr.w	r4, r3, r4, lsl #16
 800039c:	fb08 f800 	mul.w	r8, r8, r0
 80003a0:	45a0      	cmp	r8, r4
 80003a2:	d907      	bls.n	80003b4 <__udivmoddi4+0x14c>
 80003a4:	192c      	adds	r4, r5, r4
 80003a6:	f100 33ff 	add.w	r3, r0, #4294967295
 80003aa:	d202      	bcs.n	80003b2 <__udivmoddi4+0x14a>
 80003ac:	45a0      	cmp	r8, r4
 80003ae:	f200 80b6 	bhi.w	800051e <__udivmoddi4+0x2b6>
 80003b2:	4618      	mov	r0, r3
 80003b4:	eba4 0408 	sub.w	r4, r4, r8
 80003b8:	ea40 400c 	orr.w	r0, r0, ip, lsl #16
 80003bc:	e79f      	b.n	80002fe <__udivmoddi4+0x96>
 80003be:	f1c7 0c20 	rsb	ip, r7, #32
 80003c2:	40bb      	lsls	r3, r7
 80003c4:	fa22 fe0c 	lsr.w	lr, r2, ip
 80003c8:	ea4e 0e03 	orr.w	lr, lr, r3
 80003cc:	fa01 f407 	lsl.w	r4, r1, r7
 80003d0:	fa20 f50c 	lsr.w	r5, r0, ip
 80003d4:	fa21 f30c 	lsr.w	r3, r1, ip
 80003d8:	ea4f 481e 	mov.w	r8, lr, lsr #16
 80003dc:	4325      	orrs	r5, r4
 80003de:	fbb3 f9f8 	udiv	r9, r3, r8
 80003e2:	0c2c      	lsrs	r4, r5, #16
 80003e4:	fb08 3319 	mls	r3, r8, r9, r3
 80003e8:	fa1f fa8e 	uxth.w	sl, lr
 80003ec:	ea44 4303 	orr.w	r3, r4, r3, lsl #16
 80003f0:	fb09 f40a 	mul.w	r4, r9, sl
 80003f4:	429c      	cmp	r4, r3
 80003f6:	fa02 f207 	lsl.w	r2, r2, r7
 80003fa:	fa00 f107 	lsl.w	r1, r0, r7
 80003fe:	d90b      	bls.n	8000418 <__udivmoddi4+0x1b0>
 8000400:	eb1e 0303 	adds.w	r3, lr, r3
 8000404:	f109 30ff 	add.w	r0, r9, #4294967295
 8000408:	f080 8087 	bcs.w	800051a <__udivmoddi4+0x2b2>
 800040c:	429c      	cmp	r4, r3
 800040e:	f240 8084 	bls.w	800051a <__udivmoddi4+0x2b2>
 8000412:	f1a9 0902 	sub.w	r9, r9, #2
 8000416:	4473      	add	r3, lr
 8000418:	1b1b      	subs	r3, r3, r4
 800041a:	b2ad      	uxth	r5, r5
 800041c:	fbb3 f0f8 	udiv	r0, r3, r8
 8000420:	fb08 3310 	mls	r3, r8, r0, r3
 8000424:	ea45 4403 	orr.w	r4, r5, r3, lsl #16
 8000428:	fb00 fa0a 	mul.w	sl, r0, sl
 800042c:	45a2      	cmp	sl, r4
 800042e:	d908      	bls.n	8000442 <__udivmoddi4+0x1da>
 8000430:	eb1e 0404 	adds.w	r4, lr, r4
 8000434:	f100 33ff 	add.w	r3, r0, #4294967295
 8000438:	d26b      	bcs.n	8000512 <__udivmoddi4+0x2aa>
 800043a:	45a2      	cmp	sl, r4
 800043c:	d969      	bls.n	8000512 <__udivmoddi4+0x2aa>
 800043e:	3802      	subs	r0, #2
 8000440:	4474      	add	r4, lr
 8000442:	ea40 4009 	orr.w	r0, r0, r9, lsl #16
 8000446:	fba0 8902 	umull	r8, r9, r0, r2
 800044a:	eba4 040a 	sub.w	r4, r4, sl
 800044e:	454c      	cmp	r4, r9
 8000450:	46c2      	mov	sl, r8
 8000452:	464b      	mov	r3, r9
 8000454:	d354      	bcc.n	8000500 <__udivmoddi4+0x298>
 8000456:	d051      	beq.n	80004fc <__udivmoddi4+0x294>
 8000458:	2e00      	cmp	r6, #0
 800045a:	d069      	beq.n	8000530 <__udivmoddi4+0x2c8>
 800045c:	ebb1 050a 	subs.w	r5, r1, sl
 8000460:	eb64 0403 	sbc.w	r4, r4, r3
 8000464:	fa04 fc0c 	lsl.w	ip, r4, ip
 8000468:	40fd      	lsrs	r5, r7
 800046a:	40fc      	lsrs	r4, r7
 800046c:	ea4c 0505 	orr.w	r5, ip, r5
 8000470:	e9c6 5400 	strd	r5, r4, [r6]
 8000474:	2700      	movs	r7, #0
 8000476:	e747      	b.n	8000308 <__udivmoddi4+0xa0>
 8000478:	f1c2 0320 	rsb	r3, r2, #32
 800047c:	fa20 f703 	lsr.w	r7, r0, r3
 8000480:	4095      	lsls	r5, r2
 8000482:	fa01 f002 	lsl.w	r0, r1, r2
 8000486:	fa21 f303 	lsr.w	r3, r1, r3
 800048a:	ea4f 4e15 	mov.w	lr, r5, lsr #16
 800048e:	4338      	orrs	r0, r7
 8000490:	0c01      	lsrs	r1, r0, #16
 8000492:	fbb3 f7fe 	udiv	r7, r3, lr
 8000496:	fa1f f885 	uxth.w	r8, r5
 800049a:	fb0e 3317 	mls	r3, lr, r7, r3
 800049e:	ea41 4103 	orr.w	r1, r1, r3, lsl #16
 80004a2:	fb07 f308 	mul.w	r3, r7, r8
 80004a6:	428b      	cmp	r3, r1
 80004a8:	fa04 f402 	lsl.w	r4, r4, r2
 80004ac:	d907      	bls.n	80004be <__udivmoddi4+0x256>
 80004ae:	1869      	adds	r1, r5, r1
 80004b0:	f107 3cff 	add.w	ip, r7, #4294967295
 80004b4:	d22f      	bcs.n	8000516 <__udivmoddi4+0x2ae>
 80004b6:	428b      	cmp	r3, r1
 80004b8:	d92d      	bls.n	8000516 <__udivmoddi4+0x2ae>
 80004ba:	3f02      	subs	r7, #2
 80004bc:	4429      	add	r1, r5
 80004be:	1acb      	subs	r3, r1, r3
 80004c0:	b281      	uxth	r1, r0
 80004c2:	fbb3 f0fe 	udiv	r0, r3, lr
 80004c6:	fb0e 3310 	mls	r3, lr, r0, r3
 80004ca:	ea41 4103 	orr.w	r1, r1, r3, lsl #16
 80004ce:	fb00 f308 	mul.w	r3, r0, r8
 80004d2:	428b      	cmp	r3, r1
 80004d4:	d907      	bls.n	80004e6 <__udivmoddi4+0x27e>
 80004d6:	1869      	adds	r1, r5, r1
 80004d8:	f100 3cff 	add.w	ip, r0, #4294967295
 80004dc:	d217      	bcs.n	800050e <__udivmoddi4+0x2a6>
 80004de:	428b      	cmp	r3, r1
 80004e0:	d915      	bls.n	800050e <__udivmoddi4+0x2a6>
 80004e2:	3802      	subs	r0, #2
 80004e4:	4429      	add	r1, r5
 80004e6:	1ac9      	subs	r1, r1, r3
 80004e8:	ea40 4707 	orr.w	r7, r0, r7, lsl #16
 80004ec:	e73b      	b.n	8000366 <__udivmoddi4+0xfe>
 80004ee:	4637      	mov	r7, r6
 80004f0:	4630      	mov	r0, r6
 80004f2:	e709      	b.n	8000308 <__udivmoddi4+0xa0>
 80004f4:	4607      	mov	r7, r0
 80004f6:	e6e7      	b.n	80002c8 <__udivmoddi4+0x60>
 80004f8:	4618      	mov	r0, r3
 80004fa:	e6fb      	b.n	80002f4 <__udivmoddi4+0x8c>
 80004fc:	4541      	cmp	r1, r8
 80004fe:	d2ab      	bcs.n	8000458 <__udivmoddi4+0x1f0>
 8000500:	ebb8 0a02 	subs.w	sl, r8, r2
 8000504:	eb69 020e 	sbc.w	r2, r9, lr
 8000508:	3801      	subs	r0, #1
 800050a:	4613      	mov	r3, r2
 800050c:	e7a4      	b.n	8000458 <__udivmoddi4+0x1f0>
 800050e:	4660      	mov	r0, ip
 8000510:	e7e9      	b.n	80004e6 <__udivmoddi4+0x27e>
 8000512:	4618      	mov	r0, r3
 8000514:	e795      	b.n	8000442 <__udivmoddi4+0x1da>
 8000516:	4667      	mov	r7, ip
 8000518:	e7d1      	b.n	80004be <__udivmoddi4+0x256>
 800051a:	4681      	mov	r9, r0
 800051c:	e77c      	b.n	8000418 <__udivmoddi4+0x1b0>
 800051e:	3802      	subs	r0, #2
 8000520:	442c      	add	r4, r5
 8000522:	e747      	b.n	80003b4 <__udivmoddi4+0x14c>
 8000524:	f1ac 0c02 	sub.w	ip, ip, #2
 8000528:	442b      	add	r3, r5
 800052a:	e72f      	b.n	800038c <__udivmoddi4+0x124>
 800052c:	4638      	mov	r0, r7
 800052e:	e708      	b.n	8000342 <__udivmoddi4+0xda>
 8000530:	4637      	mov	r7, r6
 8000532:	e6e9      	b.n	8000308 <__udivmoddi4+0xa0>

08000534 <__aeabi_idiv0>:
 8000534:	4770      	bx	lr
 8000536:	bf00      	nop

08000538 <HAL_Init>:
 8000538:	b580      	push	{r7, lr}
 800053a:	af00      	add	r7, sp, #0
 800053c:	2003      	movs	r0, #3
 800053e:	f000 f94b 	bl	80007d8 <HAL_NVIC_SetPriorityGrouping>
 8000542:	2000      	movs	r0, #0
 8000544:	f000 f806 	bl	8000554 <HAL_InitTick>
 8000548:	f006 fede 	bl	8007308 <HAL_MspInit>
 800054c:	2300      	movs	r3, #0
 800054e:	4618      	mov	r0, r3
 8000550:	bd80      	pop	{r7, pc}
	...

08000554 <HAL_InitTick>:
 8000554:	b580      	push	{r7, lr}
 8000556:	b082      	sub	sp, #8
 8000558:	af00      	add	r7, sp, #0
 800055a:	6078      	str	r0, [r7, #4]
 800055c:	4b12      	ldr	r3, [pc, #72]	; (80005a8 <HAL_InitTick+0x54>)
 800055e:	681a      	ldr	r2, [r3, #0]
 8000560:	4b12      	ldr	r3, [pc, #72]	; (80005ac <HAL_InitTick+0x58>)
 8000562:	781b      	ldrb	r3, [r3, #0]
 8000564:	4619      	mov	r1, r3
 8000566:	f44f 737a 	mov.w	r3, #1000	; 0x3e8
 800056a:	fbb3 f3f1 	udiv	r3, r3, r1
 800056e:	fbb2 f3f3 	udiv	r3, r2, r3
 8000572:	4618      	mov	r0, r3
 8000574:	f000 f965 	bl	8000842 <HAL_SYSTICK_Config>
 8000578:	4603      	mov	r3, r0
 800057a:	2b00      	cmp	r3, #0
 800057c:	d001      	beq.n	8000582 <HAL_InitTick+0x2e>
 800057e:	2301      	movs	r3, #1
 8000580:	e00e      	b.n	80005a0 <HAL_InitTick+0x4c>
 8000582:	687b      	ldr	r3, [r7, #4]
 8000584:	2b0f      	cmp	r3, #15
 8000586:	d80a      	bhi.n	800059e <HAL_InitTick+0x4a>
 8000588:	2200      	movs	r2, #0
 800058a:	6879      	ldr	r1, [r7, #4]
 800058c:	f04f 30ff 	mov.w	r0, #4294967295
 8000590:	f000 f92d 	bl	80007ee <HAL_NVIC_SetPriority>
 8000594:	4a06      	ldr	r2, [pc, #24]	; (80005b0 <HAL_InitTick+0x5c>)
 8000596:	687b      	ldr	r3, [r7, #4]
 8000598:	6013      	str	r3, [r2, #0]
 800059a:	2300      	movs	r3, #0
 800059c:	e000      	b.n	80005a0 <HAL_InitTick+0x4c>
 800059e:	2301      	movs	r3, #1
 80005a0:	4618      	mov	r0, r3
 80005a2:	3708      	adds	r7, #8
 80005a4:	46bd      	mov	sp, r7
 80005a6:	bd80      	pop	{r7, pc}
 80005a8:	20000180 	.word	0x20000180
 80005ac:	20000004 	.word	0x20000004
 80005b0:	20000000 	.word	0x20000000

080005b4 <HAL_IncTick>:
 80005b4:	b480      	push	{r7}
 80005b6:	af00      	add	r7, sp, #0
 80005b8:	4b06      	ldr	r3, [pc, #24]	; (80005d4 <HAL_IncTick+0x20>)
 80005ba:	781b      	ldrb	r3, [r3, #0]
 80005bc:	461a      	mov	r2, r3
 80005be:	4b06      	ldr	r3, [pc, #24]	; (80005d8 <HAL_IncTick+0x24>)
 80005c0:	681b      	ldr	r3, [r3, #0]
 80005c2:	4413      	add	r3, r2
 80005c4:	4a04      	ldr	r2, [pc, #16]	; (80005d8 <HAL_IncTick+0x24>)
 80005c6:	6013      	str	r3, [r2, #0]
 80005c8:	bf00      	nop
 80005ca:	46bd      	mov	sp, r7
 80005cc:	f85d 7b04 	ldr.w	r7, [sp], #4
 80005d0:	4770      	bx	lr
 80005d2:	bf00      	nop
 80005d4:	20000004 	.word	0x20000004
 80005d8:	20000274 	.word	0x20000274

080005dc <HAL_GetTick>:
 80005dc:	b480      	push	{r7}
 80005de:	af00      	add	r7, sp, #0
 80005e0:	4b03      	ldr	r3, [pc, #12]	; (80005f0 <HAL_GetTick+0x14>)
 80005e2:	681b      	ldr	r3, [r3, #0]
 80005e4:	4618      	mov	r0, r3
 80005e6:	46bd      	mov	sp, r7
 80005e8:	f85d 7b04 	ldr.w	r7, [sp], #4
 80005ec:	4770      	bx	lr
 80005ee:	bf00      	nop
 80005f0:	20000274 	.word	0x20000274

080005f4 <HAL_Delay>:
 80005f4:	b580      	push	{r7, lr}
 80005f6:	b084      	sub	sp, #16
 80005f8:	af00      	add	r7, sp, #0
 80005fa:	6078      	str	r0, [r7, #4]
 80005fc:	f7ff ffee 	bl	80005dc <HAL_GetTick>
 8000600:	60b8      	str	r0, [r7, #8]
 8000602:	687b      	ldr	r3, [r7, #4]
 8000604:	60fb      	str	r3, [r7, #12]
 8000606:	68fb      	ldr	r3, [r7, #12]
 8000608:	f1b3 3fff 	cmp.w	r3, #4294967295
 800060c:	d005      	beq.n	800061a <HAL_Delay+0x26>
 800060e:	4b09      	ldr	r3, [pc, #36]	; (8000634 <HAL_Delay+0x40>)
 8000610:	781b      	ldrb	r3, [r3, #0]
 8000612:	461a      	mov	r2, r3
 8000614:	68fb      	ldr	r3, [r7, #12]
 8000616:	4413      	add	r3, r2
 8000618:	60fb      	str	r3, [r7, #12]
 800061a:	bf00      	nop
 800061c:	f7ff ffde 	bl	80005dc <HAL_GetTick>
 8000620:	4602      	mov	r2, r0
 8000622:	68bb      	ldr	r3, [r7, #8]
 8000624:	1ad3      	subs	r3, r2, r3
 8000626:	68fa      	ldr	r2, [r7, #12]
 8000628:	429a      	cmp	r2, r3
 800062a:	d8f7      	bhi.n	800061c <HAL_Delay+0x28>
 800062c:	bf00      	nop
 800062e:	3710      	adds	r7, #16
 8000630:	46bd      	mov	sp, r7
 8000632:	bd80      	pop	{r7, pc}
 8000634:	20000004 	.word	0x20000004

08000638 <__NVIC_SetPriorityGrouping>:
 8000638:	b480      	push	{r7}
 800063a:	b085      	sub	sp, #20
 800063c:	af00      	add	r7, sp, #0
 800063e:	6078      	str	r0, [r7, #4]
 8000640:	687b      	ldr	r3, [r7, #4]
 8000642:	f003 0307 	and.w	r3, r3, #7
 8000646:	60fb      	str	r3, [r7, #12]
 8000648:	4b0b      	ldr	r3, [pc, #44]	; (8000678 <__NVIC_SetPriorityGrouping+0x40>)
 800064a:	68db      	ldr	r3, [r3, #12]
 800064c:	60bb      	str	r3, [r7, #8]
 800064e:	68ba      	ldr	r2, [r7, #8]
 8000650:	f64f 03ff 	movw	r3, #63743	; 0xf8ff
 8000654:	4013      	ands	r3, r2
 8000656:	60bb      	str	r3, [r7, #8]
 8000658:	68fb      	ldr	r3, [r7, #12]
 800065a:	021a      	lsls	r2, r3, #8
 800065c:	68bb      	ldr	r3, [r7, #8]
 800065e:	431a      	orrs	r2, r3
 8000660:	4b06      	ldr	r3, [pc, #24]	; (800067c <__NVIC_SetPriorityGrouping+0x44>)
 8000662:	4313      	orrs	r3, r2
 8000664:	60bb      	str	r3, [r7, #8]
 8000666:	4a04      	ldr	r2, [pc, #16]	; (8000678 <__NVIC_SetPriorityGrouping+0x40>)
 8000668:	68bb      	ldr	r3, [r7, #8]
 800066a:	60d3      	str	r3, [r2, #12]
 800066c:	bf00      	nop
 800066e:	3714      	adds	r7, #20
 8000670:	46bd      	mov	sp, r7
 8000672:	f85d 7b04 	ldr.w	r7, [sp], #4
 8000676:	4770      	bx	lr
 8000678:	e000ed00 	.word	0xe000ed00
 800067c:	05fa0000 	.word	0x05fa0000

08000680 <__NVIC_GetPriorityGrouping>:
 8000680:	b480      	push	{r7}
 8000682:	af00      	add	r7, sp, #0
 8000684:	4b04      	ldr	r3, [pc, #16]	; (8000698 <__NVIC_GetPriorityGrouping+0x18>)
 8000686:	68db      	ldr	r3, [r3, #12]
 8000688:	0a1b      	lsrs	r3, r3, #8
 800068a:	f003 0307 	and.w	r3, r3, #7
 800068e:	4618      	mov	r0, r3
 8000690:	46bd      	mov	sp, r7
 8000692:	f85d 7b04 	ldr.w	r7, [sp], #4
 8000696:	4770      	bx	lr
 8000698:	e000ed00 	.word	0xe000ed00

0800069c <__NVIC_EnableIRQ>:
 800069c:	b480      	push	{r7}
 800069e:	b083      	sub	sp, #12
 80006a0:	af00      	add	r7, sp, #0
 80006a2:	4603      	mov	r3, r0
 80006a4:	71fb      	strb	r3, [r7, #7]
 80006a6:	f997 3007 	ldrsb.w	r3, [r7, #7]
 80006aa:	2b00      	cmp	r3, #0
 80006ac:	db0b      	blt.n	80006c6 <__NVIC_EnableIRQ+0x2a>
 80006ae:	79fb      	ldrb	r3, [r7, #7]
 80006b0:	f003 021f 	and.w	r2, r3, #31
 80006b4:	4907      	ldr	r1, [pc, #28]	; (80006d4 <__NVIC_EnableIRQ+0x38>)
 80006b6:	f997 3007 	ldrsb.w	r3, [r7, #7]
 80006ba:	095b      	lsrs	r3, r3, #5
 80006bc:	2001      	movs	r0, #1
 80006be:	fa00 f202 	lsl.w	r2, r0, r2
 80006c2:	f841 2023 	str.w	r2, [r1, r3, lsl #2]
 80006c6:	bf00      	nop
 80006c8:	370c      	adds	r7, #12
 80006ca:	46bd      	mov	sp, r7
 80006cc:	f85d 7b04 	ldr.w	r7, [sp], #4
 80006d0:	4770      	bx	lr
 80006d2:	bf00      	nop
 80006d4:	e000e100 	.word	0xe000e100

080006d8 <__NVIC_SetPriority>:
 80006d8:	b480      	push	{r7}
 80006da:	b083      	sub	sp, #12
 80006dc:	af00      	add	r7, sp, #0
 80006de:	4603      	mov	r3, r0
 80006e0:	6039      	str	r1, [r7, #0]
 80006e2:	71fb      	strb	r3, [r7, #7]
 80006e4:	f997 3007 	ldrsb.w	r3, [r7, #7]
 80006e8:	2b00      	cmp	r3, #0
 80006ea:	db0a      	blt.n	8000702 <__NVIC_SetPriority+0x2a>
 80006ec:	683b      	ldr	r3, [r7, #0]
 80006ee:	b2da      	uxtb	r2, r3
 80006f0:	490c      	ldr	r1, [pc, #48]	; (8000724 <__NVIC_SetPriority+0x4c>)
 80006f2:	f997 3007 	ldrsb.w	r3, [r7, #7]
 80006f6:	0112      	lsls	r2, r2, #4
 80006f8:	b2d2      	uxtb	r2, r2
 80006fa:	440b      	add	r3, r1
 80006fc:	f883 2300 	strb.w	r2, [r3, #768]	; 0x300
 8000700:	e00a      	b.n	8000718 <__NVIC_SetPriority+0x40>
 8000702:	683b      	ldr	r3, [r7, #0]
 8000704:	b2da      	uxtb	r2, r3
 8000706:	4908      	ldr	r1, [pc, #32]	; (8000728 <__NVIC_SetPriority+0x50>)
 8000708:	79fb      	ldrb	r3, [r7, #7]
 800070a:	f003 030f 	and.w	r3, r3, #15
 800070e:	3b04      	subs	r3, #4
 8000710:	0112      	lsls	r2, r2, #4
 8000712:	b2d2      	uxtb	r2, r2
 8000714:	440b      	add	r3, r1
 8000716:	761a      	strb	r2, [r3, #24]
 8000718:	bf00      	nop
 800071a:	370c      	adds	r7, #12
 800071c:	46bd      	mov	sp, r7
 800071e:	f85d 7b04 	ldr.w	r7, [sp], #4
 8000722:	4770      	bx	lr
 8000724:	e000e100 	.word	0xe000e100
 8000728:	e000ed00 	.word	0xe000ed00

0800072c <NVIC_EncodePriority>:
 800072c:	b480      	push	{r7}
 800072e:	b089      	sub	sp, #36	; 0x24
 8000730:	af00      	add	r7, sp, #0
 8000732:	60f8      	str	r0, [r7, #12]
 8000734:	60b9      	str	r1, [r7, #8]
 8000736:	607a      	str	r2, [r7, #4]
 8000738:	68fb      	ldr	r3, [r7, #12]
 800073a:	f003 0307 	and.w	r3, r3, #7
 800073e:	61fb      	str	r3, [r7, #28]
 8000740:	69fb      	ldr	r3, [r7, #28]
 8000742:	f1c3 0307 	rsb	r3, r3, #7
 8000746:	2b04      	cmp	r3, #4
 8000748:	bf28      	it	cs
 800074a:	2304      	movcs	r3, #4
 800074c:	61bb      	str	r3, [r7, #24]
 800074e:	69fb      	ldr	r3, [r7, #28]
 8000750:	3304      	adds	r3, #4
 8000752:	2b06      	cmp	r3, #6
 8000754:	d902      	bls.n	800075c <NVIC_EncodePriority+0x30>
 8000756:	69fb      	ldr	r3, [r7, #28]
 8000758:	3b03      	subs	r3, #3
 800075a:	e000      	b.n	800075e <NVIC_EncodePriority+0x32>
 800075c:	2300      	movs	r3, #0
 800075e:	617b      	str	r3, [r7, #20]
 8000760:	f04f 32ff 	mov.w	r2, #4294967295
 8000764:	69bb      	ldr	r3, [r7, #24]
 8000766:	fa02 f303 	lsl.w	r3, r2, r3
 800076a:	43da      	mvns	r2, r3
 800076c:	68bb      	ldr	r3, [r7, #8]
 800076e:	401a      	ands	r2, r3
 8000770:	697b      	ldr	r3, [r7, #20]
 8000772:	409a      	lsls	r2, r3
 8000774:	f04f 31ff 	mov.w	r1, #4294967295
 8000778:	697b      	ldr	r3, [r7, #20]
 800077a:	fa01 f303 	lsl.w	r3, r1, r3
 800077e:	43d9      	mvns	r1, r3
 8000780:	687b      	ldr	r3, [r7, #4]
 8000782:	400b      	ands	r3, r1
 8000784:	4313      	orrs	r3, r2
 8000786:	4618      	mov	r0, r3
 8000788:	3724      	adds	r7, #36	; 0x24
 800078a:	46bd      	mov	sp, r7
 800078c:	f85d 7b04 	ldr.w	r7, [sp], #4
 8000790:	4770      	bx	lr
	...

08000794 <SysTick_Config>:
 8000794:	b580      	push	{r7, lr}
 8000796:	b082      	sub	sp, #8
 8000798:	af00      	add	r7, sp, #0
 800079a:	6078      	str	r0, [r7, #4]
 800079c:	687b      	ldr	r3, [r7, #4]
 800079e:	3b01      	subs	r3, #1
 80007a0:	f1b3 7f80 	cmp.w	r3, #16777216	; 0x1000000
 80007a4:	d301      	bcc.n	80007aa <SysTick_Config+0x16>
 80007a6:	2301      	movs	r3, #1
 80007a8:	e00f      	b.n	80007ca <SysTick_Config+0x36>
 80007aa:	4a0a      	ldr	r2, [pc, #40]	; (80007d4 <SysTick_Config+0x40>)
 80007ac:	687b      	ldr	r3, [r7, #4]
 80007ae:	3b01      	subs	r3, #1
 80007b0:	6053      	str	r3, [r2, #4]
 80007b2:	210f      	movs	r1, #15
 80007b4:	f04f 30ff 	mov.w	r0, #4294967295
 80007b8:	f7ff ff8e 	bl	80006d8 <__NVIC_SetPriority>
 80007bc:	4b05      	ldr	r3, [pc, #20]	; (80007d4 <SysTick_Config+0x40>)
 80007be:	2200      	movs	r2, #0
 80007c0:	609a      	str	r2, [r3, #8]
 80007c2:	4b04      	ldr	r3, [pc, #16]	; (80007d4 <SysTick_Config+0x40>)
 80007c4:	2207      	movs	r2, #7
 80007c6:	601a      	str	r2, [r3, #0]
 80007c8:	2300      	movs	r3, #0
 80007ca:	4618      	mov	r0, r3
 80007cc:	3708      	adds	r7, #8
 80007ce:	46bd      	mov	sp, r7
 80007d0:	bd80      	pop	{r7, pc}
 80007d2:	bf00      	nop
 80007d4:	e000e010 	.word	0xe000e010

080007d8 <HAL_NVIC_SetPriorityGrouping>:
 80007d8:	b580      	push	{r7, lr}
 80007da:	b082      	sub	sp, #8
 80007dc:	af00      	add	r7, sp, #0
 80007de:	6078      	str	r0, [r7, #4]
 80007e0:	6878      	ldr	r0, [r7, #4]
 80007e2:	f7ff ff29 	bl	8000638 <__NVIC_SetPriorityGrouping>
 80007e6:	bf00      	nop
 80007e8:	3708      	adds	r7, #8
 80007ea:	46bd      	mov	sp, r7
 80007ec:	bd80      	pop	{r7, pc}

080007ee <HAL_NVIC_SetPriority>:
 80007ee:	b580      	push	{r7, lr}
 80007f0:	b086      	sub	sp, #24
 80007f2:	af00      	add	r7, sp, #0
 80007f4:	4603      	mov	r3, r0
 80007f6:	60b9      	str	r1, [r7, #8]
 80007f8:	607a      	str	r2, [r7, #4]
 80007fa:	73fb      	strb	r3, [r7, #15]
 80007fc:	2300      	movs	r3, #0
 80007fe:	617b      	str	r3, [r7, #20]
 8000800:	f7ff ff3e 	bl	8000680 <__NVIC_GetPriorityGrouping>
 8000804:	6178      	str	r0, [r7, #20]
 8000806:	687a      	ldr	r2, [r7, #4]
 8000808:	68b9      	ldr	r1, [r7, #8]
 800080a:	6978      	ldr	r0, [r7, #20]
 800080c:	f7ff ff8e 	bl	800072c <NVIC_EncodePriority>
 8000810:	4602      	mov	r2, r0
 8000812:	f997 300f 	ldrsb.w	r3, [r7, #15]
 8000816:	4611      	mov	r1, r2
 8000818:	4618      	mov	r0, r3
 800081a:	f7ff ff5d 	bl	80006d8 <__NVIC_SetPriority>
 800081e:	bf00      	nop
 8000820:	3718      	adds	r7, #24
 8000822:	46bd      	mov	sp, r7
 8000824:	bd80      	pop	{r7, pc}

08000826 <HAL_NVIC_EnableIRQ>:
 8000826:	b580      	push	{r7, lr}
 8000828:	b082      	sub	sp, #8
 800082a:	af00      	add	r7, sp, #0
 800082c:	4603      	mov	r3, r0
 800082e:	71fb      	strb	r3, [r7, #7]
 8000830:	f997 3007 	ldrsb.w	r3, [r7, #7]
 8000834:	4618      	mov	r0, r3
 8000836:	f7ff ff31 	bl	800069c <__NVIC_EnableIRQ>
 800083a:	bf00      	nop
 800083c:	3708      	adds	r7, #8
 800083e:	46bd      	mov	sp, r7
 8000840:	bd80      	pop	{r7, pc}

08000842 <HAL_SYSTICK_Config>:
 8000842:	b580      	push	{r7, lr}
 8000844:	b082      	sub	sp, #8
 8000846:	af00      	add	r7, sp, #0
 8000848:	6078      	str	r0, [r7, #4]
 800084a:	6878      	ldr	r0, [r7, #4]
 800084c:	f7ff ffa2 	bl	8000794 <SysTick_Config>
 8000850:	4603      	mov	r3, r0
 8000852:	4618      	mov	r0, r3
 8000854:	3708      	adds	r7, #8
 8000856:	46bd      	mov	sp, r7
 8000858:	bd80      	pop	{r7, pc}
	...

0800085c <HAL_ETH_Init>:
 800085c:	b580      	push	{r7, lr}
 800085e:	b088      	sub	sp, #32
 8000860:	af00      	add	r7, sp, #0
 8000862:	6078      	str	r0, [r7, #4]
 8000864:	2300      	movs	r3, #0
 8000866:	61fb      	str	r3, [r7, #28]
 8000868:	2300      	movs	r3, #0
 800086a:	60fb      	str	r3, [r7, #12]
 800086c:	4ba9      	ldr	r3, [pc, #676]	; (8000b14 <HAL_ETH_Init+0x2b8>)
 800086e:	61bb      	str	r3, [r7, #24]
 8000870:	2300      	movs	r3, #0
 8000872:	617b      	str	r3, [r7, #20]
 8000874:	2300      	movs	r3, #0
 8000876:	613b      	str	r3, [r7, #16]
 8000878:	687b      	ldr	r3, [r7, #4]
 800087a:	2b00      	cmp	r3, #0
 800087c:	d101      	bne.n	8000882 <HAL_ETH_Init+0x26>
 800087e:	2301      	movs	r3, #1
 8000880:	e183      	b.n	8000b8a <HAL_ETH_Init+0x32e>
 8000882:	687b      	ldr	r3, [r7, #4]
 8000884:	f893 3044 	ldrb.w	r3, [r3, #68]	; 0x44
 8000888:	b2db      	uxtb	r3, r3
 800088a:	2b00      	cmp	r3, #0
 800088c:	d106      	bne.n	800089c <HAL_ETH_Init+0x40>
 800088e:	687b      	ldr	r3, [r7, #4]
 8000890:	2200      	movs	r2, #0
 8000892:	f883 2045 	strb.w	r2, [r3, #69]	; 0x45
 8000896:	6878      	ldr	r0, [r7, #4]
 8000898:	f006 fd5a 	bl	8007350 <HAL_ETH_MspInit>
 800089c:	4b9e      	ldr	r3, [pc, #632]	; (8000b18 <HAL_ETH_Init+0x2bc>)
 800089e:	6c5b      	ldr	r3, [r3, #68]	; 0x44
 80008a0:	4a9d      	ldr	r2, [pc, #628]	; (8000b18 <HAL_ETH_Init+0x2bc>)
 80008a2:	f443 4380 	orr.w	r3, r3, #16384	; 0x4000
 80008a6:	6453      	str	r3, [r2, #68]	; 0x44
 80008a8:	4b9b      	ldr	r3, [pc, #620]	; (8000b18 <HAL_ETH_Init+0x2bc>)
 80008aa:	6c5b      	ldr	r3, [r3, #68]	; 0x44
 80008ac:	f403 4380 	and.w	r3, r3, #16384	; 0x4000
 80008b0:	60bb      	str	r3, [r7, #8]
 80008b2:	68bb      	ldr	r3, [r7, #8]
 80008b4:	4b99      	ldr	r3, [pc, #612]	; (8000b1c <HAL_ETH_Init+0x2c0>)
 80008b6:	685b      	ldr	r3, [r3, #4]
 80008b8:	4a98      	ldr	r2, [pc, #608]	; (8000b1c <HAL_ETH_Init+0x2c0>)
 80008ba:	f423 0300 	bic.w	r3, r3, #8388608	; 0x800000
 80008be:	6053      	str	r3, [r2, #4]
 80008c0:	4b96      	ldr	r3, [pc, #600]	; (8000b1c <HAL_ETH_Init+0x2c0>)
 80008c2:	685a      	ldr	r2, [r3, #4]
 80008c4:	687b      	ldr	r3, [r7, #4]
 80008c6:	6a1b      	ldr	r3, [r3, #32]
 80008c8:	4994      	ldr	r1, [pc, #592]	; (8000b1c <HAL_ETH_Init+0x2c0>)
 80008ca:	4313      	orrs	r3, r2
 80008cc:	604b      	str	r3, [r1, #4]
 80008ce:	687b      	ldr	r3, [r7, #4]
 80008d0:	681b      	ldr	r3, [r3, #0]
 80008d2:	f503 5380 	add.w	r3, r3, #4096	; 0x1000
 80008d6:	681a      	ldr	r2, [r3, #0]
 80008d8:	687b      	ldr	r3, [r7, #4]
 80008da:	681b      	ldr	r3, [r3, #0]
 80008dc:	f042 0201 	orr.w	r2, r2, #1
 80008e0:	f503 5380 	add.w	r3, r3, #4096	; 0x1000
 80008e4:	601a      	str	r2, [r3, #0]
 80008e6:	f7ff fe79 	bl	80005dc <HAL_GetTick>
 80008ea:	6178      	str	r0, [r7, #20]
 80008ec:	e011      	b.n	8000912 <HAL_ETH_Init+0xb6>
 80008ee:	f7ff fe75 	bl	80005dc <HAL_GetTick>
 80008f2:	4602      	mov	r2, r0
 80008f4:	697b      	ldr	r3, [r7, #20]
 80008f6:	1ad3      	subs	r3, r2, r3
 80008f8:	f5b3 7ffa 	cmp.w	r3, #500	; 0x1f4
 80008fc:	d909      	bls.n	8000912 <HAL_ETH_Init+0xb6>
 80008fe:	687b      	ldr	r3, [r7, #4]
 8000900:	2203      	movs	r2, #3
 8000902:	f883 2044 	strb.w	r2, [r3, #68]	; 0x44
 8000906:	687b      	ldr	r3, [r7, #4]
 8000908:	2200      	movs	r2, #0
 800090a:	f883 2045 	strb.w	r2, [r3, #69]	; 0x45
 800090e:	2303      	movs	r3, #3
 8000910:	e13b      	b.n	8000b8a <HAL_ETH_Init+0x32e>
 8000912:	687b      	ldr	r3, [r7, #4]
 8000914:	681b      	ldr	r3, [r3, #0]
 8000916:	f503 5380 	add.w	r3, r3, #4096	; 0x1000
 800091a:	681b      	ldr	r3, [r3, #0]
 800091c:	f003 0301 	and.w	r3, r3, #1
 8000920:	2b00      	cmp	r3, #0
 8000922:	d1e4      	bne.n	80008ee <HAL_ETH_Init+0x92>
 8000924:	687b      	ldr	r3, [r7, #4]
 8000926:	681b      	ldr	r3, [r3, #0]
 8000928:	691b      	ldr	r3, [r3, #16]
 800092a:	61fb      	str	r3, [r7, #28]
 800092c:	69fb      	ldr	r3, [r7, #28]
 800092e:	f023 031c 	bic.w	r3, r3, #28
 8000932:	61fb      	str	r3, [r7, #28]
 8000934:	f002 fc42 	bl	80031bc <HAL_RCC_GetHCLKFreq>
 8000938:	61b8      	str	r0, [r7, #24]
 800093a:	69bb      	ldr	r3, [r7, #24]
 800093c:	4a78      	ldr	r2, [pc, #480]	; (8000b20 <HAL_ETH_Init+0x2c4>)
 800093e:	4293      	cmp	r3, r2
 8000940:	d908      	bls.n	8000954 <HAL_ETH_Init+0xf8>
 8000942:	69bb      	ldr	r3, [r7, #24]
 8000944:	4a77      	ldr	r2, [pc, #476]	; (8000b24 <HAL_ETH_Init+0x2c8>)
 8000946:	4293      	cmp	r3, r2
 8000948:	d804      	bhi.n	8000954 <HAL_ETH_Init+0xf8>
 800094a:	69fb      	ldr	r3, [r7, #28]
 800094c:	f043 0308 	orr.w	r3, r3, #8
 8000950:	61fb      	str	r3, [r7, #28]
 8000952:	e027      	b.n	80009a4 <HAL_ETH_Init+0x148>
 8000954:	69bb      	ldr	r3, [r7, #24]
 8000956:	4a73      	ldr	r2, [pc, #460]	; (8000b24 <HAL_ETH_Init+0x2c8>)
 8000958:	4293      	cmp	r3, r2
 800095a:	d908      	bls.n	800096e <HAL_ETH_Init+0x112>
 800095c:	69bb      	ldr	r3, [r7, #24]
 800095e:	4a72      	ldr	r2, [pc, #456]	; (8000b28 <HAL_ETH_Init+0x2cc>)
 8000960:	4293      	cmp	r3, r2
 8000962:	d804      	bhi.n	800096e <HAL_ETH_Init+0x112>
 8000964:	69fb      	ldr	r3, [r7, #28]
 8000966:	f043 030c 	orr.w	r3, r3, #12
 800096a:	61fb      	str	r3, [r7, #28]
 800096c:	e01a      	b.n	80009a4 <HAL_ETH_Init+0x148>
 800096e:	69bb      	ldr	r3, [r7, #24]
 8000970:	4a6d      	ldr	r2, [pc, #436]	; (8000b28 <HAL_ETH_Init+0x2cc>)
 8000972:	4293      	cmp	r3, r2
 8000974:	d903      	bls.n	800097e <HAL_ETH_Init+0x122>
 8000976:	69bb      	ldr	r3, [r7, #24]
 8000978:	4a6c      	ldr	r2, [pc, #432]	; (8000b2c <HAL_ETH_Init+0x2d0>)
 800097a:	4293      	cmp	r3, r2
 800097c:	d911      	bls.n	80009a2 <HAL_ETH_Init+0x146>
 800097e:	69bb      	ldr	r3, [r7, #24]
 8000980:	4a6a      	ldr	r2, [pc, #424]	; (8000b2c <HAL_ETH_Init+0x2d0>)
 8000982:	4293      	cmp	r3, r2
 8000984:	d908      	bls.n	8000998 <HAL_ETH_Init+0x13c>
 8000986:	69bb      	ldr	r3, [r7, #24]
 8000988:	4a69      	ldr	r2, [pc, #420]	; (8000b30 <HAL_ETH_Init+0x2d4>)
 800098a:	4293      	cmp	r3, r2
 800098c:	d804      	bhi.n	8000998 <HAL_ETH_Init+0x13c>
 800098e:	69fb      	ldr	r3, [r7, #28]
 8000990:	f043 0304 	orr.w	r3, r3, #4
 8000994:	61fb      	str	r3, [r7, #28]
 8000996:	e005      	b.n	80009a4 <HAL_ETH_Init+0x148>
 8000998:	69fb      	ldr	r3, [r7, #28]
 800099a:	f043 0310 	orr.w	r3, r3, #16
 800099e:	61fb      	str	r3, [r7, #28]
 80009a0:	e000      	b.n	80009a4 <HAL_ETH_Init+0x148>
 80009a2:	bf00      	nop
 80009a4:	687b      	ldr	r3, [r7, #4]
 80009a6:	681b      	ldr	r3, [r3, #0]
 80009a8:	69fa      	ldr	r2, [r7, #28]
 80009aa:	611a      	str	r2, [r3, #16]
 80009ac:	f44f 4200 	mov.w	r2, #32768	; 0x8000
 80009b0:	2100      	movs	r1, #0
 80009b2:	6878      	ldr	r0, [r7, #4]
 80009b4:	f000 f956 	bl	8000c64 <HAL_ETH_WritePHYRegister>
 80009b8:	4603      	mov	r3, r0
 80009ba:	2b00      	cmp	r3, #0
 80009bc:	d00b      	beq.n	80009d6 <HAL_ETH_Init+0x17a>
 80009be:	2301      	movs	r3, #1
 80009c0:	613b      	str	r3, [r7, #16]
 80009c2:	6939      	ldr	r1, [r7, #16]
 80009c4:	6878      	ldr	r0, [r7, #4]
 80009c6:	f000 f9b3 	bl	8000d30 <ETH_MACDMAConfig>
 80009ca:	687b      	ldr	r3, [r7, #4]
 80009cc:	2201      	movs	r2, #1
 80009ce:	f883 2044 	strb.w	r2, [r3, #68]	; 0x44
 80009d2:	2301      	movs	r3, #1
 80009d4:	e0d9      	b.n	8000b8a <HAL_ETH_Init+0x32e>
 80009d6:	20ff      	movs	r0, #255	; 0xff
 80009d8:	f7ff fe0c 	bl	80005f4 <HAL_Delay>
 80009dc:	687b      	ldr	r3, [r7, #4]
 80009de:	685b      	ldr	r3, [r3, #4]
 80009e0:	2b00      	cmp	r3, #0
 80009e2:	f000 80a7 	beq.w	8000b34 <HAL_ETH_Init+0x2d8>
 80009e6:	f7ff fdf9 	bl	80005dc <HAL_GetTick>
 80009ea:	6178      	str	r0, [r7, #20]
 80009ec:	f107 030c 	add.w	r3, r7, #12
 80009f0:	461a      	mov	r2, r3
 80009f2:	2101      	movs	r1, #1
 80009f4:	6878      	ldr	r0, [r7, #4]
 80009f6:	f000 f8cd 	bl	8000b94 <HAL_ETH_ReadPHYRegister>
 80009fa:	f7ff fdef 	bl	80005dc <HAL_GetTick>
 80009fe:	4602      	mov	r2, r0
 8000a00:	697b      	ldr	r3, [r7, #20]
 8000a02:	1ad3      	subs	r3, r2, r3
 8000a04:	f241 3288 	movw	r2, #5000	; 0x1388
 8000a08:	4293      	cmp	r3, r2
 8000a0a:	d90f      	bls.n	8000a2c <HAL_ETH_Init+0x1d0>
 8000a0c:	2301      	movs	r3, #1
 8000a0e:	613b      	str	r3, [r7, #16]
 8000a10:	6939      	ldr	r1, [r7, #16]
 8000a12:	6878      	ldr	r0, [r7, #4]
 8000a14:	f000 f98c 	bl	8000d30 <ETH_MACDMAConfig>
 8000a18:	687b      	ldr	r3, [r7, #4]
 8000a1a:	2201      	movs	r2, #1
 8000a1c:	f883 2044 	strb.w	r2, [r3, #68]	; 0x44
 8000a20:	687b      	ldr	r3, [r7, #4]
 8000a22:	2200      	movs	r2, #0
 8000a24:	f883 2045 	strb.w	r2, [r3, #69]	; 0x45
 8000a28:	2303      	movs	r3, #3
 8000a2a:	e0ae      	b.n	8000b8a <HAL_ETH_Init+0x32e>
 8000a2c:	68fb      	ldr	r3, [r7, #12]
 8000a2e:	f003 0304 	and.w	r3, r3, #4
 8000a32:	2b00      	cmp	r3, #0
 8000a34:	d0da      	beq.n	80009ec <HAL_ETH_Init+0x190>
 8000a36:	f44f 5280 	mov.w	r2, #4096	; 0x1000
 8000a3a:	2100      	movs	r1, #0
 8000a3c:	6878      	ldr	r0, [r7, #4]
 8000a3e:	f000 f911 	bl	8000c64 <HAL_ETH_WritePHYRegister>
 8000a42:	4603      	mov	r3, r0
 8000a44:	2b00      	cmp	r3, #0
 8000a46:	d00b      	beq.n	8000a60 <HAL_ETH_Init+0x204>
 8000a48:	2301      	movs	r3, #1
 8000a4a:	613b      	str	r3, [r7, #16]
 8000a4c:	6939      	ldr	r1, [r7, #16]
 8000a4e:	6878      	ldr	r0, [r7, #4]
 8000a50:	f000 f96e 	bl	8000d30 <ETH_MACDMAConfig>
 8000a54:	687b      	ldr	r3, [r7, #4]
 8000a56:	2201      	movs	r2, #1
 8000a58:	f883 2044 	strb.w	r2, [r3, #68]	; 0x44
 8000a5c:	2301      	movs	r3, #1
 8000a5e:	e094      	b.n	8000b8a <HAL_ETH_Init+0x32e>
 8000a60:	f7ff fdbc 	bl	80005dc <HAL_GetTick>
 8000a64:	6178      	str	r0, [r7, #20]
 8000a66:	f107 030c 	add.w	r3, r7, #12
 8000a6a:	461a      	mov	r2, r3
 8000a6c:	2101      	movs	r1, #1
 8000a6e:	6878      	ldr	r0, [r7, #4]
 8000a70:	f000 f890 	bl	8000b94 <HAL_ETH_ReadPHYRegister>
 8000a74:	f7ff fdb2 	bl	80005dc <HAL_GetTick>
 8000a78:	4602      	mov	r2, r0
 8000a7a:	697b      	ldr	r3, [r7, #20]
 8000a7c:	1ad3      	subs	r3, r2, r3
 8000a7e:	f241 3288 	movw	r2, #5000	; 0x1388
 8000a82:	4293      	cmp	r3, r2
 8000a84:	d90f      	bls.n	8000aa6 <HAL_ETH_Init+0x24a>
 8000a86:	2301      	movs	r3, #1
 8000a88:	613b      	str	r3, [r7, #16]
 8000a8a:	6939      	ldr	r1, [r7, #16]
 8000a8c:	6878      	ldr	r0, [r7, #4]
 8000a8e:	f000 f94f 	bl	8000d30 <ETH_MACDMAConfig>
 8000a92:	687b      	ldr	r3, [r7, #4]
 8000a94:	2201      	movs	r2, #1
 8000a96:	f883 2044 	strb.w	r2, [r3, #68]	; 0x44
 8000a9a:	687b      	ldr	r3, [r7, #4]
 8000a9c:	2200      	movs	r2, #0
 8000a9e:	f883 2045 	strb.w	r2, [r3, #69]	; 0x45
 8000aa2:	2303      	movs	r3, #3
 8000aa4:	e071      	b.n	8000b8a <HAL_ETH_Init+0x32e>
 8000aa6:	68fb      	ldr	r3, [r7, #12]
 8000aa8:	f003 0320 	and.w	r3, r3, #32
 8000aac:	2b00      	cmp	r3, #0
 8000aae:	d0da      	beq.n	8000a66 <HAL_ETH_Init+0x20a>
 8000ab0:	f107 030c 	add.w	r3, r7, #12
 8000ab4:	461a      	mov	r2, r3
 8000ab6:	211f      	movs	r1, #31
 8000ab8:	6878      	ldr	r0, [r7, #4]
 8000aba:	f000 f86b 	bl	8000b94 <HAL_ETH_ReadPHYRegister>
 8000abe:	4603      	mov	r3, r0
 8000ac0:	2b00      	cmp	r3, #0
 8000ac2:	d00b      	beq.n	8000adc <HAL_ETH_Init+0x280>
 8000ac4:	2301      	movs	r3, #1
 8000ac6:	613b      	str	r3, [r7, #16]
 8000ac8:	6939      	ldr	r1, [r7, #16]
 8000aca:	6878      	ldr	r0, [r7, #4]
 8000acc:	f000 f930 	bl	8000d30 <ETH_MACDMAConfig>
 8000ad0:	687b      	ldr	r3, [r7, #4]
 8000ad2:	2201      	movs	r2, #1
 8000ad4:	f883 2044 	strb.w	r2, [r3, #68]	; 0x44
 8000ad8:	2301      	movs	r3, #1
 8000ada:	e056      	b.n	8000b8a <HAL_ETH_Init+0x32e>
 8000adc:	68fb      	ldr	r3, [r7, #12]
 8000ade:	f003 0310 	and.w	r3, r3, #16
 8000ae2:	2b00      	cmp	r3, #0
 8000ae4:	d004      	beq.n	8000af0 <HAL_ETH_Init+0x294>
 8000ae6:	687b      	ldr	r3, [r7, #4]
 8000ae8:	f44f 6200 	mov.w	r2, #2048	; 0x800
 8000aec:	60da      	str	r2, [r3, #12]
 8000aee:	e002      	b.n	8000af6 <HAL_ETH_Init+0x29a>
 8000af0:	687b      	ldr	r3, [r7, #4]
 8000af2:	2200      	movs	r2, #0
 8000af4:	60da      	str	r2, [r3, #12]
 8000af6:	68fb      	ldr	r3, [r7, #12]
 8000af8:	f003 0304 	and.w	r3, r3, #4
 8000afc:	2b00      	cmp	r3, #0
 8000afe:	d003      	beq.n	8000b08 <HAL_ETH_Init+0x2ac>
 8000b00:	687b      	ldr	r3, [r7, #4]
 8000b02:	2200      	movs	r2, #0
 8000b04:	609a      	str	r2, [r3, #8]
 8000b06:	e037      	b.n	8000b78 <HAL_ETH_Init+0x31c>
 8000b08:	687b      	ldr	r3, [r7, #4]
 8000b0a:	f44f 4280 	mov.w	r2, #16384	; 0x4000
 8000b0e:	609a      	str	r2, [r3, #8]
 8000b10:	e032      	b.n	8000b78 <HAL_ETH_Init+0x31c>
 8000b12:	bf00      	nop
 8000b14:	03938700 	.word	0x03938700
 8000b18:	40023800 	.word	0x40023800
 8000b1c:	40013800 	.word	0x40013800
 8000b20:	01312cff 	.word	0x01312cff
 8000b24:	02160ebf 	.word	0x02160ebf
 8000b28:	039386ff 	.word	0x039386ff
 8000b2c:	05f5e0ff 	.word	0x05f5e0ff
 8000b30:	08f0d17f 	.word	0x08f0d17f
 8000b34:	687b      	ldr	r3, [r7, #4]
 8000b36:	68db      	ldr	r3, [r3, #12]
 8000b38:	08db      	lsrs	r3, r3, #3
 8000b3a:	b29a      	uxth	r2, r3
 8000b3c:	687b      	ldr	r3, [r7, #4]
 8000b3e:	689b      	ldr	r3, [r3, #8]
 8000b40:	085b      	lsrs	r3, r3, #1
 8000b42:	b29b      	uxth	r3, r3
 8000b44:	4313      	orrs	r3, r2
 8000b46:	b29b      	uxth	r3, r3
 8000b48:	461a      	mov	r2, r3
 8000b4a:	2100      	movs	r1, #0
 8000b4c:	6878      	ldr	r0, [r7, #4]
 8000b4e:	f000 f889 	bl	8000c64 <HAL_ETH_WritePHYRegister>
 8000b52:	4603      	mov	r3, r0
 8000b54:	2b00      	cmp	r3, #0
 8000b56:	d00b      	beq.n	8000b70 <HAL_ETH_Init+0x314>
 8000b58:	2301      	movs	r3, #1
 8000b5a:	613b      	str	r3, [r7, #16]
 8000b5c:	6939      	ldr	r1, [r7, #16]
 8000b5e:	6878      	ldr	r0, [r7, #4]
 8000b60:	f000 f8e6 	bl	8000d30 <ETH_MACDMAConfig>
 8000b64:	687b      	ldr	r3, [r7, #4]
 8000b66:	2201      	movs	r2, #1
 8000b68:	f883 2044 	strb.w	r2, [r3, #68]	; 0x44
 8000b6c:	2301      	movs	r3, #1
 8000b6e:	e00c      	b.n	8000b8a <HAL_ETH_Init+0x32e>
 8000b70:	f640 70ff 	movw	r0, #4095	; 0xfff
 8000b74:	f7ff fd3e 	bl	80005f4 <HAL_Delay>
 8000b78:	6939      	ldr	r1, [r7, #16]
 8000b7a:	6878      	ldr	r0, [r7, #4]
 8000b7c:	f000 f8d8 	bl	8000d30 <ETH_MACDMAConfig>
 8000b80:	687b      	ldr	r3, [r7, #4]
 8000b82:	2201      	movs	r2, #1
 8000b84:	f883 2044 	strb.w	r2, [r3, #68]	; 0x44
 8000b88:	2300      	movs	r3, #0
 8000b8a:	4618      	mov	r0, r3
 8000b8c:	3720      	adds	r7, #32
 8000b8e:	46bd      	mov	sp, r7
 8000b90:	bd80      	pop	{r7, pc}
 8000b92:	bf00      	nop

08000b94 <HAL_ETH_ReadPHYRegister>:
 8000b94:	b580      	push	{r7, lr}
 8000b96:	b086      	sub	sp, #24
 8000b98:	af00      	add	r7, sp, #0
 8000b9a:	60f8      	str	r0, [r7, #12]
 8000b9c:	460b      	mov	r3, r1
 8000b9e:	607a      	str	r2, [r7, #4]
 8000ba0:	817b      	strh	r3, [r7, #10]
 8000ba2:	2300      	movs	r3, #0
 8000ba4:	617b      	str	r3, [r7, #20]
 8000ba6:	2300      	movs	r3, #0
 8000ba8:	613b      	str	r3, [r7, #16]
 8000baa:	68fb      	ldr	r3, [r7, #12]
 8000bac:	f893 3044 	ldrb.w	r3, [r3, #68]	; 0x44
 8000bb0:	b2db      	uxtb	r3, r3
 8000bb2:	2b82      	cmp	r3, #130	; 0x82
 8000bb4:	d101      	bne.n	8000bba <HAL_ETH_ReadPHYRegister+0x26>
 8000bb6:	2302      	movs	r3, #2
 8000bb8:	e050      	b.n	8000c5c <HAL_ETH_ReadPHYRegister+0xc8>
 8000bba:	68fb      	ldr	r3, [r7, #12]
 8000bbc:	2282      	movs	r2, #130	; 0x82
 8000bbe:	f883 2044 	strb.w	r2, [r3, #68]	; 0x44
 8000bc2:	68fb      	ldr	r3, [r7, #12]
 8000bc4:	681b      	ldr	r3, [r3, #0]
 8000bc6:	691b      	ldr	r3, [r3, #16]
 8000bc8:	617b      	str	r3, [r7, #20]
 8000bca:	697b      	ldr	r3, [r7, #20]
 8000bcc:	f003 031c 	and.w	r3, r3, #28
 8000bd0:	617b      	str	r3, [r7, #20]
 8000bd2:	68fb      	ldr	r3, [r7, #12]
 8000bd4:	8a1b      	ldrh	r3, [r3, #16]
 8000bd6:	02db      	lsls	r3, r3, #11
 8000bd8:	b29b      	uxth	r3, r3
 8000bda:	697a      	ldr	r2, [r7, #20]
 8000bdc:	4313      	orrs	r3, r2
 8000bde:	617b      	str	r3, [r7, #20]
 8000be0:	897b      	ldrh	r3, [r7, #10]
 8000be2:	019b      	lsls	r3, r3, #6
 8000be4:	f403 63f8 	and.w	r3, r3, #1984	; 0x7c0
 8000be8:	697a      	ldr	r2, [r7, #20]
 8000bea:	4313      	orrs	r3, r2
 8000bec:	617b      	str	r3, [r7, #20]
 8000bee:	697b      	ldr	r3, [r7, #20]
 8000bf0:	f023 0302 	bic.w	r3, r3, #2
 8000bf4:	617b      	str	r3, [r7, #20]
 8000bf6:	697b      	ldr	r3, [r7, #20]
 8000bf8:	f043 0301 	orr.w	r3, r3, #1
 8000bfc:	617b      	str	r3, [r7, #20]
 8000bfe:	68fb      	ldr	r3, [r7, #12]
 8000c00:	681b      	ldr	r3, [r3, #0]
 8000c02:	697a      	ldr	r2, [r7, #20]
 8000c04:	611a      	str	r2, [r3, #16]
 8000c06:	f7ff fce9 	bl	80005dc <HAL_GetTick>
 8000c0a:	6138      	str	r0, [r7, #16]
 8000c0c:	e015      	b.n	8000c3a <HAL_ETH_ReadPHYRegister+0xa6>
 8000c0e:	f7ff fce5 	bl	80005dc <HAL_GetTick>
 8000c12:	4602      	mov	r2, r0
 8000c14:	693b      	ldr	r3, [r7, #16]
 8000c16:	1ad3      	subs	r3, r2, r3
 8000c18:	f5b3 3f80 	cmp.w	r3, #65536	; 0x10000
 8000c1c:	d309      	bcc.n	8000c32 <HAL_ETH_ReadPHYRegister+0x9e>
 8000c1e:	68fb      	ldr	r3, [r7, #12]
 8000c20:	2201      	movs	r2, #1
 8000c22:	f883 2044 	strb.w	r2, [r3, #68]	; 0x44
 8000c26:	68fb      	ldr	r3, [r7, #12]
 8000c28:	2200      	movs	r2, #0
 8000c2a:	f883 2045 	strb.w	r2, [r3, #69]	; 0x45
 8000c2e:	2303      	movs	r3, #3
 8000c30:	e014      	b.n	8000c5c <HAL_ETH_ReadPHYRegister+0xc8>
 8000c32:	68fb      	ldr	r3, [r7, #12]
 8000c34:	681b      	ldr	r3, [r3, #0]
 8000c36:	691b      	ldr	r3, [r3, #16]
 8000c38:	617b      	str	r3, [r7, #20]
 8000c3a:	697b      	ldr	r3, [r7, #20]
 8000c3c:	f003 0301 	and.w	r3, r3, #1
 8000c40:	2b00      	cmp	r3, #0
 8000c42:	d1e4      	bne.n	8000c0e <HAL_ETH_ReadPHYRegister+0x7a>
 8000c44:	68fb      	ldr	r3, [r7, #12]
 8000c46:	681b      	ldr	r3, [r3, #0]
 8000c48:	695b      	ldr	r3, [r3, #20]
 8000c4a:	b29b      	uxth	r3, r3
 8000c4c:	461a      	mov	r2, r3
 8000c4e:	687b      	ldr	r3, [r7, #4]
 8000c50:	601a      	str	r2, [r3, #0]
 8000c52:	68fb      	ldr	r3, [r7, #12]
 8000c54:	2201      	movs	r2, #1
 8000c56:	f883 2044 	strb.w	r2, [r3, #68]	; 0x44
 8000c5a:	2300      	movs	r3, #0
 8000c5c:	4618      	mov	r0, r3
 8000c5e:	3718      	adds	r7, #24
 8000c60:	46bd      	mov	sp, r7
 8000c62:	bd80      	pop	{r7, pc}

08000c64 <HAL_ETH_WritePHYRegister>:
 8000c64:	b580      	push	{r7, lr}
 8000c66:	b086      	sub	sp, #24
 8000c68:	af00      	add	r7, sp, #0
 8000c6a:	60f8      	str	r0, [r7, #12]
 8000c6c:	460b      	mov	r3, r1
 8000c6e:	607a      	str	r2, [r7, #4]
 8000c70:	817b      	strh	r3, [r7, #10]
 8000c72:	2300      	movs	r3, #0
 8000c74:	617b      	str	r3, [r7, #20]
 8000c76:	2300      	movs	r3, #0
 8000c78:	613b      	str	r3, [r7, #16]
 8000c7a:	68fb      	ldr	r3, [r7, #12]
 8000c7c:	f893 3044 	ldrb.w	r3, [r3, #68]	; 0x44
 8000c80:	b2db      	uxtb	r3, r3
 8000c82:	2b42      	cmp	r3, #66	; 0x42
 8000c84:	d101      	bne.n	8000c8a <HAL_ETH_WritePHYRegister+0x26>
 8000c86:	2302      	movs	r3, #2
 8000c88:	e04e      	b.n	8000d28 <HAL_ETH_WritePHYRegister+0xc4>
 8000c8a:	68fb      	ldr	r3, [r7, #12]
 8000c8c:	2242      	movs	r2, #66	; 0x42
 8000c8e:	f883 2044 	strb.w	r2, [r3, #68]	; 0x44
 8000c92:	68fb      	ldr	r3, [r7, #12]
 8000c94:	681b      	ldr	r3, [r3, #0]
 8000c96:	691b      	ldr	r3, [r3, #16]
 8000c98:	617b      	str	r3, [r7, #20]
 8000c9a:	697b      	ldr	r3, [r7, #20]
 8000c9c:	f003 031c 	and.w	r3, r3, #28
 8000ca0:	617b      	str	r3, [r7, #20]
 8000ca2:	68fb      	ldr	r3, [r7, #12]
 8000ca4:	8a1b      	ldrh	r3, [r3, #16]
 8000ca6:	02db      	lsls	r3, r3, #11
 8000ca8:	b29b      	uxth	r3, r3
 8000caa:	697a      	ldr	r2, [r7, #20]
 8000cac:	4313      	orrs	r3, r2
 8000cae:	617b      	str	r3, [r7, #20]
 8000cb0:	897b      	ldrh	r3, [r7, #10]
 8000cb2:	019b      	lsls	r3, r3, #6
 8000cb4:	f403 63f8 	and.w	r3, r3, #1984	; 0x7c0
 8000cb8:	697a      	ldr	r2, [r7, #20]
 8000cba:	4313      	orrs	r3, r2
 8000cbc:	617b      	str	r3, [r7, #20]
 8000cbe:	697b      	ldr	r3, [r7, #20]
 8000cc0:	f043 0302 	orr.w	r3, r3, #2
 8000cc4:	617b      	str	r3, [r7, #20]
 8000cc6:	697b      	ldr	r3, [r7, #20]
 8000cc8:	f043 0301 	orr.w	r3, r3, #1
 8000ccc:	617b      	str	r3, [r7, #20]
 8000cce:	687b      	ldr	r3, [r7, #4]
 8000cd0:	b29a      	uxth	r2, r3
 8000cd2:	68fb      	ldr	r3, [r7, #12]
 8000cd4:	681b      	ldr	r3, [r3, #0]
 8000cd6:	615a      	str	r2, [r3, #20]
 8000cd8:	68fb      	ldr	r3, [r7, #12]
 8000cda:	681b      	ldr	r3, [r3, #0]
 8000cdc:	697a      	ldr	r2, [r7, #20]
 8000cde:	611a      	str	r2, [r3, #16]
 8000ce0:	f7ff fc7c 	bl	80005dc <HAL_GetTick>
 8000ce4:	6138      	str	r0, [r7, #16]
 8000ce6:	e015      	b.n	8000d14 <HAL_ETH_WritePHYRegister+0xb0>
 8000ce8:	f7ff fc78 	bl	80005dc <HAL_GetTick>
 8000cec:	4602      	mov	r2, r0
 8000cee:	693b      	ldr	r3, [r7, #16]
 8000cf0:	1ad3      	subs	r3, r2, r3
 8000cf2:	f5b3 3f80 	cmp.w	r3, #65536	; 0x10000
 8000cf6:	d309      	bcc.n	8000d0c <HAL_ETH_WritePHYRegister+0xa8>
 8000cf8:	68fb      	ldr	r3, [r7, #12]
 8000cfa:	2201      	movs	r2, #1
 8000cfc:	f883 2044 	strb.w	r2, [r3, #68]	; 0x44
 8000d00:	68fb      	ldr	r3, [r7, #12]
 8000d02:	2200      	movs	r2, #0
 8000d04:	f883 2045 	strb.w	r2, [r3, #69]	; 0x45
 8000d08:	2303      	movs	r3, #3
 8000d0a:	e00d      	b.n	8000d28 <HAL_ETH_WritePHYRegister+0xc4>
 8000d0c:	68fb      	ldr	r3, [r7, #12]
 8000d0e:	681b      	ldr	r3, [r3, #0]
 8000d10:	691b      	ldr	r3, [r3, #16]
 8000d12:	617b      	str	r3, [r7, #20]
 8000d14:	697b      	ldr	r3, [r7, #20]
 8000d16:	f003 0301 	and.w	r3, r3, #1
 8000d1a:	2b00      	cmp	r3, #0
 8000d1c:	d1e4      	bne.n	8000ce8 <HAL_ETH_WritePHYRegister+0x84>
 8000d1e:	68fb      	ldr	r3, [r7, #12]
 8000d20:	2201      	movs	r2, #1
 8000d22:	f883 2044 	strb.w	r2, [r3, #68]	; 0x44
 8000d26:	2300      	movs	r3, #0
 8000d28:	4618      	mov	r0, r3
 8000d2a:	3718      	adds	r7, #24
 8000d2c:	46bd      	mov	sp, r7
 8000d2e:	bd80      	pop	{r7, pc}

08000d30 <ETH_MACDMAConfig>:
 8000d30:	b580      	push	{r7, lr}
 8000d32:	b0b0      	sub	sp, #192	; 0xc0
 8000d34:	af00      	add	r7, sp, #0
 8000d36:	6078      	str	r0, [r7, #4]
 8000d38:	6039      	str	r1, [r7, #0]
 8000d3a:	2300      	movs	r3, #0
 8000d3c:	f8c7 30bc 	str.w	r3, [r7, #188]	; 0xbc
 8000d40:	683b      	ldr	r3, [r7, #0]
 8000d42:	2b00      	cmp	r3, #0
 8000d44:	d007      	beq.n	8000d56 <ETH_MACDMAConfig+0x26>
 8000d46:	687b      	ldr	r3, [r7, #4]
 8000d48:	f44f 6200 	mov.w	r2, #2048	; 0x800
 8000d4c:	60da      	str	r2, [r3, #12]
 8000d4e:	687b      	ldr	r3, [r7, #4]
 8000d50:	f44f 4280 	mov.w	r2, #16384	; 0x4000
 8000d54:	609a      	str	r2, [r3, #8]
 8000d56:	2300      	movs	r3, #0
 8000d58:	64bb      	str	r3, [r7, #72]	; 0x48
 8000d5a:	2300      	movs	r3, #0
 8000d5c:	64fb      	str	r3, [r7, #76]	; 0x4c
 8000d5e:	2300      	movs	r3, #0
 8000d60:	653b      	str	r3, [r7, #80]	; 0x50
 8000d62:	2300      	movs	r3, #0
 8000d64:	657b      	str	r3, [r7, #84]	; 0x54
 8000d66:	2300      	movs	r3, #0
 8000d68:	65bb      	str	r3, [r7, #88]	; 0x58
 8000d6a:	2300      	movs	r3, #0
 8000d6c:	65fb      	str	r3, [r7, #92]	; 0x5c
 8000d6e:	687b      	ldr	r3, [r7, #4]
 8000d70:	69db      	ldr	r3, [r3, #28]
 8000d72:	2b00      	cmp	r3, #0
 8000d74:	d103      	bne.n	8000d7e <ETH_MACDMAConfig+0x4e>
 8000d76:	f44f 6380 	mov.w	r3, #1024	; 0x400
 8000d7a:	663b      	str	r3, [r7, #96]	; 0x60
 8000d7c:	e001      	b.n	8000d82 <ETH_MACDMAConfig+0x52>
 8000d7e:	2300      	movs	r3, #0
 8000d80:	663b      	str	r3, [r7, #96]	; 0x60
 8000d82:	f44f 7300 	mov.w	r3, #512	; 0x200
 8000d86:	667b      	str	r3, [r7, #100]	; 0x64
 8000d88:	2300      	movs	r3, #0
 8000d8a:	66bb      	str	r3, [r7, #104]	; 0x68
 8000d8c:	2300      	movs	r3, #0
 8000d8e:	66fb      	str	r3, [r7, #108]	; 0x6c
 8000d90:	2300      	movs	r3, #0
 8000d92:	673b      	str	r3, [r7, #112]	; 0x70
 8000d94:	2300      	movs	r3, #0
 8000d96:	677b      	str	r3, [r7, #116]	; 0x74
 8000d98:	2300      	movs	r3, #0
 8000d9a:	67bb      	str	r3, [r7, #120]	; 0x78
 8000d9c:	2340      	movs	r3, #64	; 0x40
 8000d9e:	67fb      	str	r3, [r7, #124]	; 0x7c
 8000da0:	2300      	movs	r3, #0
 8000da2:	f8c7 3080 	str.w	r3, [r7, #128]	; 0x80
 8000da6:	2300      	movs	r3, #0
 8000da8:	f8c7 3084 	str.w	r3, [r7, #132]	; 0x84
 8000dac:	2300      	movs	r3, #0
 8000dae:	f8c7 3088 	str.w	r3, [r7, #136]	; 0x88
 8000db2:	2300      	movs	r3, #0
 8000db4:	f8c7 308c 	str.w	r3, [r7, #140]	; 0x8c
 8000db8:	2300      	movs	r3, #0
 8000dba:	f8c7 3090 	str.w	r3, [r7, #144]	; 0x90
 8000dbe:	2300      	movs	r3, #0
 8000dc0:	f8c7 3094 	str.w	r3, [r7, #148]	; 0x94
 8000dc4:	2300      	movs	r3, #0
 8000dc6:	f8c7 3098 	str.w	r3, [r7, #152]	; 0x98
 8000dca:	2300      	movs	r3, #0
 8000dcc:	f8c7 309c 	str.w	r3, [r7, #156]	; 0x9c
 8000dd0:	2380      	movs	r3, #128	; 0x80
 8000dd2:	f8c7 30a0 	str.w	r3, [r7, #160]	; 0xa0
 8000dd6:	2300      	movs	r3, #0
 8000dd8:	f8c7 30a4 	str.w	r3, [r7, #164]	; 0xa4
 8000ddc:	2300      	movs	r3, #0
 8000dde:	f8c7 30a8 	str.w	r3, [r7, #168]	; 0xa8
 8000de2:	2300      	movs	r3, #0
 8000de4:	f8c7 30ac 	str.w	r3, [r7, #172]	; 0xac
 8000de8:	2300      	movs	r3, #0
 8000dea:	f8c7 30b0 	str.w	r3, [r7, #176]	; 0xb0
 8000dee:	2300      	movs	r3, #0
 8000df0:	f8c7 30b4 	str.w	r3, [r7, #180]	; 0xb4
 8000df4:	2300      	movs	r3, #0
 8000df6:	f8c7 30b8 	str.w	r3, [r7, #184]	; 0xb8
 8000dfa:	687b      	ldr	r3, [r7, #4]
 8000dfc:	681b      	ldr	r3, [r3, #0]
 8000dfe:	681b      	ldr	r3, [r3, #0]
 8000e00:	f8c7 30bc 	str.w	r3, [r7, #188]	; 0xbc
 8000e04:	f8d7 20bc 	ldr.w	r2, [r7, #188]	; 0xbc
 8000e08:	4bab      	ldr	r3, [pc, #684]	; (80010b8 <ETH_MACDMAConfig+0x388>)
 8000e0a:	4013      	ands	r3, r2
 8000e0c:	f8c7 30bc 	str.w	r3, [r7, #188]	; 0xbc
 8000e10:	6cba      	ldr	r2, [r7, #72]	; 0x48
 8000e12:	6cfb      	ldr	r3, [r7, #76]	; 0x4c
 8000e14:	431a      	orrs	r2, r3
 8000e16:	6d3b      	ldr	r3, [r7, #80]	; 0x50
 8000e18:	431a      	orrs	r2, r3
 8000e1a:	6d7b      	ldr	r3, [r7, #84]	; 0x54
 8000e1c:	431a      	orrs	r2, r3
 8000e1e:	687b      	ldr	r3, [r7, #4]
 8000e20:	689b      	ldr	r3, [r3, #8]
 8000e22:	431a      	orrs	r2, r3
 8000e24:	6dbb      	ldr	r3, [r7, #88]	; 0x58
 8000e26:	431a      	orrs	r2, r3
 8000e28:	6dfb      	ldr	r3, [r7, #92]	; 0x5c
 8000e2a:	431a      	orrs	r2, r3
 8000e2c:	687b      	ldr	r3, [r7, #4]
 8000e2e:	68db      	ldr	r3, [r3, #12]
 8000e30:	431a      	orrs	r2, r3
 8000e32:	6e3b      	ldr	r3, [r7, #96]	; 0x60
 8000e34:	431a      	orrs	r2, r3
 8000e36:	6e7b      	ldr	r3, [r7, #100]	; 0x64
 8000e38:	431a      	orrs	r2, r3
 8000e3a:	6ebb      	ldr	r3, [r7, #104]	; 0x68
 8000e3c:	431a      	orrs	r2, r3
 8000e3e:	6efb      	ldr	r3, [r7, #108]	; 0x6c
 8000e40:	431a      	orrs	r2, r3
 8000e42:	6f3b      	ldr	r3, [r7, #112]	; 0x70
 8000e44:	4313      	orrs	r3, r2
 8000e46:	f8d7 20bc 	ldr.w	r2, [r7, #188]	; 0xbc
 8000e4a:	4313      	orrs	r3, r2
 8000e4c:	f8c7 30bc 	str.w	r3, [r7, #188]	; 0xbc
 8000e50:	687b      	ldr	r3, [r7, #4]
 8000e52:	681b      	ldr	r3, [r3, #0]
 8000e54:	f8d7 20bc 	ldr.w	r2, [r7, #188]	; 0xbc
 8000e58:	601a      	str	r2, [r3, #0]
 8000e5a:	687b      	ldr	r3, [r7, #4]
 8000e5c:	681b      	ldr	r3, [r3, #0]
 8000e5e:	681b      	ldr	r3, [r3, #0]
 8000e60:	f8c7 30bc 	str.w	r3, [r7, #188]	; 0xbc
 8000e64:	2001      	movs	r0, #1
 8000e66:	f7ff fbc5 	bl	80005f4 <HAL_Delay>
 8000e6a:	687b      	ldr	r3, [r7, #4]
 8000e6c:	681b      	ldr	r3, [r3, #0]
 8000e6e:	f8d7 20bc 	ldr.w	r2, [r7, #188]	; 0xbc
 8000e72:	601a      	str	r2, [r3, #0]
 8000e74:	6f7a      	ldr	r2, [r7, #116]	; 0x74
 8000e76:	6fbb      	ldr	r3, [r7, #120]	; 0x78
 8000e78:	431a      	orrs	r2, r3
 8000e7a:	6ffb      	ldr	r3, [r7, #124]	; 0x7c
 8000e7c:	431a      	orrs	r2, r3
 8000e7e:	f8d7 3080 	ldr.w	r3, [r7, #128]	; 0x80
 8000e82:	431a      	orrs	r2, r3
 8000e84:	f8d7 3084 	ldr.w	r3, [r7, #132]	; 0x84
 8000e88:	431a      	orrs	r2, r3
 8000e8a:	f8d7 3088 	ldr.w	r3, [r7, #136]	; 0x88
 8000e8e:	431a      	orrs	r2, r3
 8000e90:	f8d7 308c 	ldr.w	r3, [r7, #140]	; 0x8c
 8000e94:	ea42 0103 	orr.w	r1, r2, r3
 8000e98:	f8d7 2090 	ldr.w	r2, [r7, #144]	; 0x90
 8000e9c:	687b      	ldr	r3, [r7, #4]
 8000e9e:	681b      	ldr	r3, [r3, #0]
 8000ea0:	430a      	orrs	r2, r1
 8000ea2:	605a      	str	r2, [r3, #4]
 8000ea4:	687b      	ldr	r3, [r7, #4]
 8000ea6:	681b      	ldr	r3, [r3, #0]
 8000ea8:	685b      	ldr	r3, [r3, #4]
 8000eaa:	f8c7 30bc 	str.w	r3, [r7, #188]	; 0xbc
 8000eae:	2001      	movs	r0, #1
 8000eb0:	f7ff fba0 	bl	80005f4 <HAL_Delay>
 8000eb4:	687b      	ldr	r3, [r7, #4]
 8000eb6:	681b      	ldr	r3, [r3, #0]
 8000eb8:	f8d7 20bc 	ldr.w	r2, [r7, #188]	; 0xbc
 8000ebc:	605a      	str	r2, [r3, #4]
 8000ebe:	687b      	ldr	r3, [r7, #4]
 8000ec0:	681b      	ldr	r3, [r3, #0]
 8000ec2:	f8d7 2094 	ldr.w	r2, [r7, #148]	; 0x94
 8000ec6:	609a      	str	r2, [r3, #8]
 8000ec8:	687b      	ldr	r3, [r7, #4]
 8000eca:	681b      	ldr	r3, [r3, #0]
 8000ecc:	f8d7 2098 	ldr.w	r2, [r7, #152]	; 0x98
 8000ed0:	60da      	str	r2, [r3, #12]
 8000ed2:	687b      	ldr	r3, [r7, #4]
 8000ed4:	681b      	ldr	r3, [r3, #0]
 8000ed6:	699b      	ldr	r3, [r3, #24]
 8000ed8:	f8c7 30bc 	str.w	r3, [r7, #188]	; 0xbc
 8000edc:	f8d7 20bc 	ldr.w	r2, [r7, #188]	; 0xbc
 8000ee0:	f64f 7341 	movw	r3, #65345	; 0xff41
 8000ee4:	4013      	ands	r3, r2
 8000ee6:	f8c7 30bc 	str.w	r3, [r7, #188]	; 0xbc
 8000eea:	f8d7 309c 	ldr.w	r3, [r7, #156]	; 0x9c
 8000eee:	041a      	lsls	r2, r3, #16
 8000ef0:	f8d7 30a0 	ldr.w	r3, [r7, #160]	; 0xa0
 8000ef4:	431a      	orrs	r2, r3
 8000ef6:	f8d7 30a4 	ldr.w	r3, [r7, #164]	; 0xa4
 8000efa:	431a      	orrs	r2, r3
 8000efc:	f8d7 30a8 	ldr.w	r3, [r7, #168]	; 0xa8
 8000f00:	431a      	orrs	r2, r3
 8000f02:	f8d7 30ac 	ldr.w	r3, [r7, #172]	; 0xac
 8000f06:	431a      	orrs	r2, r3
 8000f08:	f8d7 30b0 	ldr.w	r3, [r7, #176]	; 0xb0
 8000f0c:	4313      	orrs	r3, r2
 8000f0e:	f8d7 20bc 	ldr.w	r2, [r7, #188]	; 0xbc
 8000f12:	4313      	orrs	r3, r2
 8000f14:	f8c7 30bc 	str.w	r3, [r7, #188]	; 0xbc
 8000f18:	687b      	ldr	r3, [r7, #4]
 8000f1a:	681b      	ldr	r3, [r3, #0]
 8000f1c:	f8d7 20bc 	ldr.w	r2, [r7, #188]	; 0xbc
 8000f20:	619a      	str	r2, [r3, #24]
 8000f22:	687b      	ldr	r3, [r7, #4]
 8000f24:	681b      	ldr	r3, [r3, #0]
 8000f26:	699b      	ldr	r3, [r3, #24]
 8000f28:	f8c7 30bc 	str.w	r3, [r7, #188]	; 0xbc
 8000f2c:	2001      	movs	r0, #1
 8000f2e:	f7ff fb61 	bl	80005f4 <HAL_Delay>
 8000f32:	687b      	ldr	r3, [r7, #4]
 8000f34:	681b      	ldr	r3, [r3, #0]
 8000f36:	f8d7 20bc 	ldr.w	r2, [r7, #188]	; 0xbc
 8000f3a:	619a      	str	r2, [r3, #24]
 8000f3c:	f8d7 10b4 	ldr.w	r1, [r7, #180]	; 0xb4
 8000f40:	f8d7 20b8 	ldr.w	r2, [r7, #184]	; 0xb8
 8000f44:	687b      	ldr	r3, [r7, #4]
 8000f46:	681b      	ldr	r3, [r3, #0]
 8000f48:	430a      	orrs	r2, r1
 8000f4a:	61da      	str	r2, [r3, #28]
 8000f4c:	687b      	ldr	r3, [r7, #4]
 8000f4e:	681b      	ldr	r3, [r3, #0]
 8000f50:	69db      	ldr	r3, [r3, #28]
 8000f52:	f8c7 30bc 	str.w	r3, [r7, #188]	; 0xbc
 8000f56:	2001      	movs	r0, #1
 8000f58:	f7ff fb4c 	bl	80005f4 <HAL_Delay>
 8000f5c:	687b      	ldr	r3, [r7, #4]
 8000f5e:	681b      	ldr	r3, [r3, #0]
 8000f60:	f8d7 20bc 	ldr.w	r2, [r7, #188]	; 0xbc
 8000f64:	61da      	str	r2, [r3, #28]
 8000f66:	2300      	movs	r3, #0
 8000f68:	60bb      	str	r3, [r7, #8]
 8000f6a:	f04f 7300 	mov.w	r3, #33554432	; 0x2000000
 8000f6e:	60fb      	str	r3, [r7, #12]
 8000f70:	2300      	movs	r3, #0
 8000f72:	613b      	str	r3, [r7, #16]
 8000f74:	f44f 1300 	mov.w	r3, #2097152	; 0x200000
 8000f78:	617b      	str	r3, [r7, #20]
 8000f7a:	2300      	movs	r3, #0
 8000f7c:	61bb      	str	r3, [r7, #24]
 8000f7e:	2300      	movs	r3, #0
 8000f80:	61fb      	str	r3, [r7, #28]
 8000f82:	2300      	movs	r3, #0
 8000f84:	623b      	str	r3, [r7, #32]
 8000f86:	2300      	movs	r3, #0
 8000f88:	627b      	str	r3, [r7, #36]	; 0x24
 8000f8a:	2304      	movs	r3, #4
 8000f8c:	62bb      	str	r3, [r7, #40]	; 0x28
 8000f8e:	f04f 7300 	mov.w	r3, #33554432	; 0x2000000
 8000f92:	62fb      	str	r3, [r7, #44]	; 0x2c
 8000f94:	f44f 3380 	mov.w	r3, #65536	; 0x10000
 8000f98:	633b      	str	r3, [r7, #48]	; 0x30
 8000f9a:	f44f 0380 	mov.w	r3, #4194304	; 0x400000
 8000f9e:	637b      	str	r3, [r7, #52]	; 0x34
 8000fa0:	f44f 5300 	mov.w	r3, #8192	; 0x2000
 8000fa4:	63bb      	str	r3, [r7, #56]	; 0x38
 8000fa6:	2380      	movs	r3, #128	; 0x80
 8000fa8:	63fb      	str	r3, [r7, #60]	; 0x3c
 8000faa:	2300      	movs	r3, #0
 8000fac:	643b      	str	r3, [r7, #64]	; 0x40
 8000fae:	2300      	movs	r3, #0
 8000fb0:	647b      	str	r3, [r7, #68]	; 0x44
 8000fb2:	687b      	ldr	r3, [r7, #4]
 8000fb4:	681a      	ldr	r2, [r3, #0]
 8000fb6:	f241 0318 	movw	r3, #4120	; 0x1018
 8000fba:	4413      	add	r3, r2
 8000fbc:	681b      	ldr	r3, [r3, #0]
 8000fbe:	f8c7 30bc 	str.w	r3, [r7, #188]	; 0xbc
 8000fc2:	f8d7 20bc 	ldr.w	r2, [r7, #188]	; 0xbc
 8000fc6:	4b3d      	ldr	r3, [pc, #244]	; (80010bc <ETH_MACDMAConfig+0x38c>)
 8000fc8:	4013      	ands	r3, r2
 8000fca:	f8c7 30bc 	str.w	r3, [r7, #188]	; 0xbc
 8000fce:	68ba      	ldr	r2, [r7, #8]
 8000fd0:	68fb      	ldr	r3, [r7, #12]
 8000fd2:	431a      	orrs	r2, r3
 8000fd4:	693b      	ldr	r3, [r7, #16]
 8000fd6:	431a      	orrs	r2, r3
 8000fd8:	697b      	ldr	r3, [r7, #20]
 8000fda:	431a      	orrs	r2, r3
 8000fdc:	69bb      	ldr	r3, [r7, #24]
 8000fde:	431a      	orrs	r2, r3
 8000fe0:	69fb      	ldr	r3, [r7, #28]
 8000fe2:	431a      	orrs	r2, r3
 8000fe4:	6a3b      	ldr	r3, [r7, #32]
 8000fe6:	431a      	orrs	r2, r3
 8000fe8:	6a7b      	ldr	r3, [r7, #36]	; 0x24
 8000fea:	431a      	orrs	r2, r3
 8000fec:	6abb      	ldr	r3, [r7, #40]	; 0x28
 8000fee:	4313      	orrs	r3, r2
 8000ff0:	f8d7 20bc 	ldr.w	r2, [r7, #188]	; 0xbc
 8000ff4:	4313      	orrs	r3, r2
 8000ff6:	f8c7 30bc 	str.w	r3, [r7, #188]	; 0xbc
 8000ffa:	687b      	ldr	r3, [r7, #4]
 8000ffc:	681a      	ldr	r2, [r3, #0]
 8000ffe:	f241 0318 	movw	r3, #4120	; 0x1018
 8001002:	4413      	add	r3, r2
 8001004:	f8d7 20bc 	ldr.w	r2, [r7, #188]	; 0xbc
 8001008:	601a      	str	r2, [r3, #0]
 800100a:	687b      	ldr	r3, [r7, #4]
 800100c:	681a      	ldr	r2, [r3, #0]
 800100e:	f241 0318 	movw	r3, #4120	; 0x1018
 8001012:	4413      	add	r3, r2
 8001014:	681b      	ldr	r3, [r3, #0]
 8001016:	f8c7 30bc 	str.w	r3, [r7, #188]	; 0xbc
 800101a:	2001      	movs	r0, #1
 800101c:	f7ff faea 	bl	80005f4 <HAL_Delay>
 8001020:	687b      	ldr	r3, [r7, #4]
 8001022:	681a      	ldr	r2, [r3, #0]
 8001024:	f241 0318 	movw	r3, #4120	; 0x1018
 8001028:	4413      	add	r3, r2
 800102a:	f8d7 20bc 	ldr.w	r2, [r7, #188]	; 0xbc
 800102e:	601a      	str	r2, [r3, #0]
 8001030:	6afa      	ldr	r2, [r7, #44]	; 0x2c
 8001032:	6b3b      	ldr	r3, [r7, #48]	; 0x30
 8001034:	431a      	orrs	r2, r3
 8001036:	6b7b      	ldr	r3, [r7, #52]	; 0x34
 8001038:	431a      	orrs	r2, r3
 800103a:	6bbb      	ldr	r3, [r7, #56]	; 0x38
 800103c:	431a      	orrs	r2, r3
 800103e:	6bfb      	ldr	r3, [r7, #60]	; 0x3c
 8001040:	431a      	orrs	r2, r3
 8001042:	6c3b      	ldr	r3, [r7, #64]	; 0x40
 8001044:	009b      	lsls	r3, r3, #2
 8001046:	431a      	orrs	r2, r3
 8001048:	6c7b      	ldr	r3, [r7, #68]	; 0x44
 800104a:	431a      	orrs	r2, r3
 800104c:	687b      	ldr	r3, [r7, #4]
 800104e:	681b      	ldr	r3, [r3, #0]
 8001050:	f442 0200 	orr.w	r2, r2, #8388608	; 0x800000
 8001054:	f503 5380 	add.w	r3, r3, #4096	; 0x1000
 8001058:	601a      	str	r2, [r3, #0]
 800105a:	687b      	ldr	r3, [r7, #4]
 800105c:	681b      	ldr	r3, [r3, #0]
 800105e:	f503 5380 	add.w	r3, r3, #4096	; 0x1000
 8001062:	681b      	ldr	r3, [r3, #0]
 8001064:	f8c7 30bc 	str.w	r3, [r7, #188]	; 0xbc
 8001068:	2001      	movs	r0, #1
 800106a:	f7ff fac3 	bl	80005f4 <HAL_Delay>
 800106e:	687b      	ldr	r3, [r7, #4]
 8001070:	681b      	ldr	r3, [r3, #0]
 8001072:	f503 5380 	add.w	r3, r3, #4096	; 0x1000
 8001076:	f8d7 20bc 	ldr.w	r2, [r7, #188]	; 0xbc
 800107a:	601a      	str	r2, [r3, #0]
 800107c:	687b      	ldr	r3, [r7, #4]
 800107e:	699b      	ldr	r3, [r3, #24]
 8001080:	2b01      	cmp	r3, #1
 8001082:	d10d      	bne.n	80010a0 <ETH_MACDMAConfig+0x370>
 8001084:	687b      	ldr	r3, [r7, #4]
 8001086:	681a      	ldr	r2, [r3, #0]
 8001088:	f241 031c 	movw	r3, #4124	; 0x101c
 800108c:	4413      	add	r3, r2
 800108e:	681b      	ldr	r3, [r3, #0]
 8001090:	687a      	ldr	r2, [r7, #4]
 8001092:	6811      	ldr	r1, [r2, #0]
 8001094:	4a0a      	ldr	r2, [pc, #40]	; (80010c0 <ETH_MACDMAConfig+0x390>)
 8001096:	431a      	orrs	r2, r3
 8001098:	f241 031c 	movw	r3, #4124	; 0x101c
 800109c:	440b      	add	r3, r1
 800109e:	601a      	str	r2, [r3, #0]
 80010a0:	687b      	ldr	r3, [r7, #4]
 80010a2:	695b      	ldr	r3, [r3, #20]
 80010a4:	461a      	mov	r2, r3
 80010a6:	2100      	movs	r1, #0
 80010a8:	6878      	ldr	r0, [r7, #4]
 80010aa:	f000 f80b 	bl	80010c4 <ETH_MACAddressConfig>
 80010ae:	bf00      	nop
 80010b0:	37c0      	adds	r7, #192	; 0xc0
 80010b2:	46bd      	mov	sp, r7
 80010b4:	bd80      	pop	{r7, pc}
 80010b6:	bf00      	nop
 80010b8:	ff20810f 	.word	0xff20810f
 80010bc:	f8de3f23 	.word	0xf8de3f23
 80010c0:	00010040 	.word	0x00010040

080010c4 <ETH_MACAddressConfig>:
 80010c4:	b480      	push	{r7}
 80010c6:	b087      	sub	sp, #28
 80010c8:	af00      	add	r7, sp, #0
 80010ca:	60f8      	str	r0, [r7, #12]
 80010cc:	60b9      	str	r1, [r7, #8]
 80010ce:	607a      	str	r2, [r7, #4]
 80010d0:	687b      	ldr	r3, [r7, #4]
 80010d2:	3305      	adds	r3, #5
 80010d4:	781b      	ldrb	r3, [r3, #0]
 80010d6:	021b      	lsls	r3, r3, #8
 80010d8:	687a      	ldr	r2, [r7, #4]
 80010da:	3204      	adds	r2, #4
 80010dc:	7812      	ldrb	r2, [r2, #0]
 80010de:	4313      	orrs	r3, r2
 80010e0:	617b      	str	r3, [r7, #20]
 80010e2:	68ba      	ldr	r2, [r7, #8]
 80010e4:	4b11      	ldr	r3, [pc, #68]	; (800112c <ETH_MACAddressConfig+0x68>)
 80010e6:	4413      	add	r3, r2
 80010e8:	461a      	mov	r2, r3
 80010ea:	697b      	ldr	r3, [r7, #20]
 80010ec:	6013      	str	r3, [r2, #0]
 80010ee:	687b      	ldr	r3, [r7, #4]
 80010f0:	3303      	adds	r3, #3
 80010f2:	781b      	ldrb	r3, [r3, #0]
 80010f4:	061a      	lsls	r2, r3, #24
 80010f6:	687b      	ldr	r3, [r7, #4]
 80010f8:	3302      	adds	r3, #2
 80010fa:	781b      	ldrb	r3, [r3, #0]
 80010fc:	041b      	lsls	r3, r3, #16
 80010fe:	431a      	orrs	r2, r3
 8001100:	687b      	ldr	r3, [r7, #4]
 8001102:	3301      	adds	r3, #1
 8001104:	781b      	ldrb	r3, [r3, #0]
 8001106:	021b      	lsls	r3, r3, #8
 8001108:	4313      	orrs	r3, r2
 800110a:	687a      	ldr	r2, [r7, #4]
 800110c:	7812      	ldrb	r2, [r2, #0]
 800110e:	4313      	orrs	r3, r2
 8001110:	617b      	str	r3, [r7, #20]
 8001112:	68ba      	ldr	r2, [r7, #8]
 8001114:	4b06      	ldr	r3, [pc, #24]	; (8001130 <ETH_MACAddressConfig+0x6c>)
 8001116:	4413      	add	r3, r2
 8001118:	461a      	mov	r2, r3
 800111a:	697b      	ldr	r3, [r7, #20]
 800111c:	6013      	str	r3, [r2, #0]
 800111e:	bf00      	nop
 8001120:	371c      	adds	r7, #28
 8001122:	46bd      	mov	sp, r7
 8001124:	f85d 7b04 	ldr.w	r7, [sp], #4
 8001128:	4770      	bx	lr
 800112a:	bf00      	nop
 800112c:	40028040 	.word	0x40028040
 8001130:	40028044 	.word	0x40028044

08001134 <HAL_GPIO_Init>:
 8001134:	b480      	push	{r7}
 8001136:	b089      	sub	sp, #36	; 0x24
 8001138:	af00      	add	r7, sp, #0
 800113a:	6078      	str	r0, [r7, #4]
 800113c:	6039      	str	r1, [r7, #0]
 800113e:	2300      	movs	r3, #0
 8001140:	61fb      	str	r3, [r7, #28]
 8001142:	2300      	movs	r3, #0
 8001144:	617b      	str	r3, [r7, #20]
 8001146:	2300      	movs	r3, #0
 8001148:	613b      	str	r3, [r7, #16]
 800114a:	2300      	movs	r3, #0
 800114c:	61bb      	str	r3, [r7, #24]
 800114e:	2300      	movs	r3, #0
 8001150:	61fb      	str	r3, [r7, #28]
 8001152:	e175      	b.n	8001440 <HAL_GPIO_Init+0x30c>
 8001154:	2201      	movs	r2, #1
 8001156:	69fb      	ldr	r3, [r7, #28]
 8001158:	fa02 f303 	lsl.w	r3, r2, r3
 800115c:	617b      	str	r3, [r7, #20]
 800115e:	683b      	ldr	r3, [r7, #0]
 8001160:	681b      	ldr	r3, [r3, #0]
 8001162:	697a      	ldr	r2, [r7, #20]
 8001164:	4013      	ands	r3, r2
 8001166:	613b      	str	r3, [r7, #16]
 8001168:	693a      	ldr	r2, [r7, #16]
 800116a:	697b      	ldr	r3, [r7, #20]
 800116c:	429a      	cmp	r2, r3
 800116e:	f040 8164 	bne.w	800143a <HAL_GPIO_Init+0x306>
 8001172:	683b      	ldr	r3, [r7, #0]
 8001174:	685b      	ldr	r3, [r3, #4]
 8001176:	2b01      	cmp	r3, #1
 8001178:	d00b      	beq.n	8001192 <HAL_GPIO_Init+0x5e>
 800117a:	683b      	ldr	r3, [r7, #0]
 800117c:	685b      	ldr	r3, [r3, #4]
 800117e:	2b02      	cmp	r3, #2
 8001180:	d007      	beq.n	8001192 <HAL_GPIO_Init+0x5e>
 8001182:	683b      	ldr	r3, [r7, #0]
 8001184:	685b      	ldr	r3, [r3, #4]
 8001186:	2b11      	cmp	r3, #17
 8001188:	d003      	beq.n	8001192 <HAL_GPIO_Init+0x5e>
 800118a:	683b      	ldr	r3, [r7, #0]
 800118c:	685b      	ldr	r3, [r3, #4]
 800118e:	2b12      	cmp	r3, #18
 8001190:	d130      	bne.n	80011f4 <HAL_GPIO_Init+0xc0>
 8001192:	687b      	ldr	r3, [r7, #4]
 8001194:	689b      	ldr	r3, [r3, #8]
 8001196:	61bb      	str	r3, [r7, #24]
 8001198:	69fb      	ldr	r3, [r7, #28]
 800119a:	005b      	lsls	r3, r3, #1
 800119c:	2203      	movs	r2, #3
 800119e:	fa02 f303 	lsl.w	r3, r2, r3
 80011a2:	43db      	mvns	r3, r3
 80011a4:	69ba      	ldr	r2, [r7, #24]
 80011a6:	4013      	ands	r3, r2
 80011a8:	61bb      	str	r3, [r7, #24]
 80011aa:	683b      	ldr	r3, [r7, #0]
 80011ac:	68da      	ldr	r2, [r3, #12]
 80011ae:	69fb      	ldr	r3, [r7, #28]
 80011b0:	005b      	lsls	r3, r3, #1
 80011b2:	fa02 f303 	lsl.w	r3, r2, r3
 80011b6:	69ba      	ldr	r2, [r7, #24]
 80011b8:	4313      	orrs	r3, r2
 80011ba:	61bb      	str	r3, [r7, #24]
 80011bc:	687b      	ldr	r3, [r7, #4]
 80011be:	69ba      	ldr	r2, [r7, #24]
 80011c0:	609a      	str	r2, [r3, #8]
 80011c2:	687b      	ldr	r3, [r7, #4]
 80011c4:	685b      	ldr	r3, [r3, #4]
 80011c6:	61bb      	str	r3, [r7, #24]
 80011c8:	2201      	movs	r2, #1
 80011ca:	69fb      	ldr	r3, [r7, #28]
 80011cc:	fa02 f303 	lsl.w	r3, r2, r3
 80011d0:	43db      	mvns	r3, r3
 80011d2:	69ba      	ldr	r2, [r7, #24]
 80011d4:	4013      	ands	r3, r2
 80011d6:	61bb      	str	r3, [r7, #24]
 80011d8:	683b      	ldr	r3, [r7, #0]
 80011da:	685b      	ldr	r3, [r3, #4]
 80011dc:	091b      	lsrs	r3, r3, #4
 80011de:	f003 0201 	and.w	r2, r3, #1
 80011e2:	69fb      	ldr	r3, [r7, #28]
 80011e4:	fa02 f303 	lsl.w	r3, r2, r3
 80011e8:	69ba      	ldr	r2, [r7, #24]
 80011ea:	4313      	orrs	r3, r2
 80011ec:	61bb      	str	r3, [r7, #24]
 80011ee:	687b      	ldr	r3, [r7, #4]
 80011f0:	69ba      	ldr	r2, [r7, #24]
 80011f2:	605a      	str	r2, [r3, #4]
 80011f4:	687b      	ldr	r3, [r7, #4]
 80011f6:	68db      	ldr	r3, [r3, #12]
 80011f8:	61bb      	str	r3, [r7, #24]
 80011fa:	69fb      	ldr	r3, [r7, #28]
 80011fc:	005b      	lsls	r3, r3, #1
 80011fe:	2203      	movs	r2, #3
 8001200:	fa02 f303 	lsl.w	r3, r2, r3
 8001204:	43db      	mvns	r3, r3
 8001206:	69ba      	ldr	r2, [r7, #24]
 8001208:	4013      	ands	r3, r2
 800120a:	61bb      	str	r3, [r7, #24]
 800120c:	683b      	ldr	r3, [r7, #0]
 800120e:	689a      	ldr	r2, [r3, #8]
 8001210:	69fb      	ldr	r3, [r7, #28]
 8001212:	005b      	lsls	r3, r3, #1
 8001214:	fa02 f303 	lsl.w	r3, r2, r3
 8001218:	69ba      	ldr	r2, [r7, #24]
 800121a:	4313      	orrs	r3, r2
 800121c:	61bb      	str	r3, [r7, #24]
 800121e:	687b      	ldr	r3, [r7, #4]
 8001220:	69ba      	ldr	r2, [r7, #24]
 8001222:	60da      	str	r2, [r3, #12]
 8001224:	683b      	ldr	r3, [r7, #0]
 8001226:	685b      	ldr	r3, [r3, #4]
 8001228:	2b02      	cmp	r3, #2
 800122a:	d003      	beq.n	8001234 <HAL_GPIO_Init+0x100>
 800122c:	683b      	ldr	r3, [r7, #0]
 800122e:	685b      	ldr	r3, [r3, #4]
 8001230:	2b12      	cmp	r3, #18
 8001232:	d123      	bne.n	800127c <HAL_GPIO_Init+0x148>
 8001234:	69fb      	ldr	r3, [r7, #28]
 8001236:	08da      	lsrs	r2, r3, #3
 8001238:	687b      	ldr	r3, [r7, #4]
 800123a:	3208      	adds	r2, #8
 800123c:	f853 3022 	ldr.w	r3, [r3, r2, lsl #2]
 8001240:	61bb      	str	r3, [r7, #24]
 8001242:	69fb      	ldr	r3, [r7, #28]
 8001244:	f003 0307 	and.w	r3, r3, #7
 8001248:	009b      	lsls	r3, r3, #2
 800124a:	220f      	movs	r2, #15
 800124c:	fa02 f303 	lsl.w	r3, r2, r3
 8001250:	43db      	mvns	r3, r3
 8001252:	69ba      	ldr	r2, [r7, #24]
 8001254:	4013      	ands	r3, r2
 8001256:	61bb      	str	r3, [r7, #24]
 8001258:	683b      	ldr	r3, [r7, #0]
 800125a:	691a      	ldr	r2, [r3, #16]
 800125c:	69fb      	ldr	r3, [r7, #28]
 800125e:	f003 0307 	and.w	r3, r3, #7
 8001262:	009b      	lsls	r3, r3, #2
 8001264:	fa02 f303 	lsl.w	r3, r2, r3
 8001268:	69ba      	ldr	r2, [r7, #24]
 800126a:	4313      	orrs	r3, r2
 800126c:	61bb      	str	r3, [r7, #24]
 800126e:	69fb      	ldr	r3, [r7, #28]
 8001270:	08da      	lsrs	r2, r3, #3
 8001272:	687b      	ldr	r3, [r7, #4]
 8001274:	3208      	adds	r2, #8
 8001276:	69b9      	ldr	r1, [r7, #24]
 8001278:	f843 1022 	str.w	r1, [r3, r2, lsl #2]
 800127c:	687b      	ldr	r3, [r7, #4]
 800127e:	681b      	ldr	r3, [r3, #0]
 8001280:	61bb      	str	r3, [r7, #24]
 8001282:	69fb      	ldr	r3, [r7, #28]
 8001284:	005b      	lsls	r3, r3, #1
 8001286:	2203      	movs	r2, #3
 8001288:	fa02 f303 	lsl.w	r3, r2, r3
 800128c:	43db      	mvns	r3, r3
 800128e:	69ba      	ldr	r2, [r7, #24]
 8001290:	4013      	ands	r3, r2
 8001292:	61bb      	str	r3, [r7, #24]
 8001294:	683b      	ldr	r3, [r7, #0]
 8001296:	685b      	ldr	r3, [r3, #4]
 8001298:	f003 0203 	and.w	r2, r3, #3
 800129c:	69fb      	ldr	r3, [r7, #28]
 800129e:	005b      	lsls	r3, r3, #1
 80012a0:	fa02 f303 	lsl.w	r3, r2, r3
 80012a4:	69ba      	ldr	r2, [r7, #24]
 80012a6:	4313      	orrs	r3, r2
 80012a8:	61bb      	str	r3, [r7, #24]
 80012aa:	687b      	ldr	r3, [r7, #4]
 80012ac:	69ba      	ldr	r2, [r7, #24]
 80012ae:	601a      	str	r2, [r3, #0]
 80012b0:	683b      	ldr	r3, [r7, #0]
 80012b2:	685b      	ldr	r3, [r3, #4]
 80012b4:	f003 5380 	and.w	r3, r3, #268435456	; 0x10000000
 80012b8:	2b00      	cmp	r3, #0
 80012ba:	f000 80be 	beq.w	800143a <HAL_GPIO_Init+0x306>
 80012be:	4b65      	ldr	r3, [pc, #404]	; (8001454 <HAL_GPIO_Init+0x320>)
 80012c0:	6c5b      	ldr	r3, [r3, #68]	; 0x44
 80012c2:	4a64      	ldr	r2, [pc, #400]	; (8001454 <HAL_GPIO_Init+0x320>)
 80012c4:	f443 4380 	orr.w	r3, r3, #16384	; 0x4000
 80012c8:	6453      	str	r3, [r2, #68]	; 0x44
 80012ca:	4b62      	ldr	r3, [pc, #392]	; (8001454 <HAL_GPIO_Init+0x320>)
 80012cc:	6c5b      	ldr	r3, [r3, #68]	; 0x44
 80012ce:	f403 4380 	and.w	r3, r3, #16384	; 0x4000
 80012d2:	60fb      	str	r3, [r7, #12]
 80012d4:	68fb      	ldr	r3, [r7, #12]
 80012d6:	4a60      	ldr	r2, [pc, #384]	; (8001458 <HAL_GPIO_Init+0x324>)
 80012d8:	69fb      	ldr	r3, [r7, #28]
 80012da:	089b      	lsrs	r3, r3, #2
 80012dc:	3302      	adds	r3, #2
 80012de:	f852 3023 	ldr.w	r3, [r2, r3, lsl #2]
 80012e2:	61bb      	str	r3, [r7, #24]
 80012e4:	69fb      	ldr	r3, [r7, #28]
 80012e6:	f003 0303 	and.w	r3, r3, #3
 80012ea:	009b      	lsls	r3, r3, #2
 80012ec:	220f      	movs	r2, #15
 80012ee:	fa02 f303 	lsl.w	r3, r2, r3
 80012f2:	43db      	mvns	r3, r3
 80012f4:	69ba      	ldr	r2, [r7, #24]
 80012f6:	4013      	ands	r3, r2
 80012f8:	61bb      	str	r3, [r7, #24]
 80012fa:	687b      	ldr	r3, [r7, #4]
 80012fc:	4a57      	ldr	r2, [pc, #348]	; (800145c <HAL_GPIO_Init+0x328>)
 80012fe:	4293      	cmp	r3, r2
 8001300:	d037      	beq.n	8001372 <HAL_GPIO_Init+0x23e>
 8001302:	687b      	ldr	r3, [r7, #4]
 8001304:	4a56      	ldr	r2, [pc, #344]	; (8001460 <HAL_GPIO_Init+0x32c>)
 8001306:	4293      	cmp	r3, r2
 8001308:	d031      	beq.n	800136e <HAL_GPIO_Init+0x23a>
 800130a:	687b      	ldr	r3, [r7, #4]
 800130c:	4a55      	ldr	r2, [pc, #340]	; (8001464 <HAL_GPIO_Init+0x330>)
 800130e:	4293      	cmp	r3, r2
 8001310:	d02b      	beq.n	800136a <HAL_GPIO_Init+0x236>
 8001312:	687b      	ldr	r3, [r7, #4]
 8001314:	4a54      	ldr	r2, [pc, #336]	; (8001468 <HAL_GPIO_Init+0x334>)
 8001316:	4293      	cmp	r3, r2
 8001318:	d025      	beq.n	8001366 <HAL_GPIO_Init+0x232>
 800131a:	687b      	ldr	r3, [r7, #4]
 800131c:	4a53      	ldr	r2, [pc, #332]	; (800146c <HAL_GPIO_Init+0x338>)
 800131e:	4293      	cmp	r3, r2
 8001320:	d01f      	beq.n	8001362 <HAL_GPIO_Init+0x22e>
 8001322:	687b      	ldr	r3, [r7, #4]
 8001324:	4a52      	ldr	r2, [pc, #328]	; (8001470 <HAL_GPIO_Init+0x33c>)
 8001326:	4293      	cmp	r3, r2
 8001328:	d019      	beq.n	800135e <HAL_GPIO_Init+0x22a>
 800132a:	687b      	ldr	r3, [r7, #4]
 800132c:	4a51      	ldr	r2, [pc, #324]	; (8001474 <HAL_GPIO_Init+0x340>)
 800132e:	4293      	cmp	r3, r2
 8001330:	d013      	beq.n	800135a <HAL_GPIO_Init+0x226>
 8001332:	687b      	ldr	r3, [r7, #4]
 8001334:	4a50      	ldr	r2, [pc, #320]	; (8001478 <HAL_GPIO_Init+0x344>)
 8001336:	4293      	cmp	r3, r2
 8001338:	d00d      	beq.n	8001356 <HAL_GPIO_Init+0x222>
 800133a:	687b      	ldr	r3, [r7, #4]
 800133c:	4a4f      	ldr	r2, [pc, #316]	; (800147c <HAL_GPIO_Init+0x348>)
 800133e:	4293      	cmp	r3, r2
 8001340:	d007      	beq.n	8001352 <HAL_GPIO_Init+0x21e>
 8001342:	687b      	ldr	r3, [r7, #4]
 8001344:	4a4e      	ldr	r2, [pc, #312]	; (8001480 <HAL_GPIO_Init+0x34c>)
 8001346:	4293      	cmp	r3, r2
 8001348:	d101      	bne.n	800134e <HAL_GPIO_Init+0x21a>
 800134a:	2309      	movs	r3, #9
 800134c:	e012      	b.n	8001374 <HAL_GPIO_Init+0x240>
 800134e:	230a      	movs	r3, #10
 8001350:	e010      	b.n	8001374 <HAL_GPIO_Init+0x240>
 8001352:	2308      	movs	r3, #8
 8001354:	e00e      	b.n	8001374 <HAL_GPIO_Init+0x240>
 8001356:	2307      	movs	r3, #7
 8001358:	e00c      	b.n	8001374 <HAL_GPIO_Init+0x240>
 800135a:	2306      	movs	r3, #6
 800135c:	e00a      	b.n	8001374 <HAL_GPIO_Init+0x240>
 800135e:	2305      	movs	r3, #5
 8001360:	e008      	b.n	8001374 <HAL_GPIO_Init+0x240>
 8001362:	2304      	movs	r3, #4
 8001364:	e006      	b.n	8001374 <HAL_GPIO_Init+0x240>
 8001366:	2303      	movs	r3, #3
 8001368:	e004      	b.n	8001374 <HAL_GPIO_Init+0x240>
 800136a:	2302      	movs	r3, #2
 800136c:	e002      	b.n	8001374 <HAL_GPIO_Init+0x240>
 800136e:	2301      	movs	r3, #1
 8001370:	e000      	b.n	8001374 <HAL_GPIO_Init+0x240>
 8001372:	2300      	movs	r3, #0
 8001374:	69fa      	ldr	r2, [r7, #28]
 8001376:	f002 0203 	and.w	r2, r2, #3
 800137a:	0092      	lsls	r2, r2, #2
 800137c:	4093      	lsls	r3, r2
 800137e:	69ba      	ldr	r2, [r7, #24]
 8001380:	4313      	orrs	r3, r2
 8001382:	61bb      	str	r3, [r7, #24]
 8001384:	4934      	ldr	r1, [pc, #208]	; (8001458 <HAL_GPIO_Init+0x324>)
 8001386:	69fb      	ldr	r3, [r7, #28]
 8001388:	089b      	lsrs	r3, r3, #2
 800138a:	3302      	adds	r3, #2
 800138c:	69ba      	ldr	r2, [r7, #24]
 800138e:	f841 2023 	str.w	r2, [r1, r3, lsl #2]
 8001392:	4b3c      	ldr	r3, [pc, #240]	; (8001484 <HAL_GPIO_Init+0x350>)
 8001394:	681b      	ldr	r3, [r3, #0]
 8001396:	61bb      	str	r3, [r7, #24]
 8001398:	693b      	ldr	r3, [r7, #16]
 800139a:	43db      	mvns	r3, r3
 800139c:	69ba      	ldr	r2, [r7, #24]
 800139e:	4013      	ands	r3, r2
 80013a0:	61bb      	str	r3, [r7, #24]
 80013a2:	683b      	ldr	r3, [r7, #0]
 80013a4:	685b      	ldr	r3, [r3, #4]
 80013a6:	f403 3380 	and.w	r3, r3, #65536	; 0x10000
 80013aa:	2b00      	cmp	r3, #0
 80013ac:	d003      	beq.n	80013b6 <HAL_GPIO_Init+0x282>
 80013ae:	69ba      	ldr	r2, [r7, #24]
 80013b0:	693b      	ldr	r3, [r7, #16]
 80013b2:	4313      	orrs	r3, r2
 80013b4:	61bb      	str	r3, [r7, #24]
 80013b6:	4a33      	ldr	r2, [pc, #204]	; (8001484 <HAL_GPIO_Init+0x350>)
 80013b8:	69bb      	ldr	r3, [r7, #24]
 80013ba:	6013      	str	r3, [r2, #0]
 80013bc:	4b31      	ldr	r3, [pc, #196]	; (8001484 <HAL_GPIO_Init+0x350>)
 80013be:	685b      	ldr	r3, [r3, #4]
 80013c0:	61bb      	str	r3, [r7, #24]
 80013c2:	693b      	ldr	r3, [r7, #16]
 80013c4:	43db      	mvns	r3, r3
 80013c6:	69ba      	ldr	r2, [r7, #24]
 80013c8:	4013      	ands	r3, r2
 80013ca:	61bb      	str	r3, [r7, #24]
 80013cc:	683b      	ldr	r3, [r7, #0]
 80013ce:	685b      	ldr	r3, [r3, #4]
 80013d0:	f403 3300 	and.w	r3, r3, #131072	; 0x20000
 80013d4:	2b00      	cmp	r3, #0
 80013d6:	d003      	beq.n	80013e0 <HAL_GPIO_Init+0x2ac>
 80013d8:	69ba      	ldr	r2, [r7, #24]
 80013da:	693b      	ldr	r3, [r7, #16]
 80013dc:	4313      	orrs	r3, r2
 80013de:	61bb      	str	r3, [r7, #24]
 80013e0:	4a28      	ldr	r2, [pc, #160]	; (8001484 <HAL_GPIO_Init+0x350>)
 80013e2:	69bb      	ldr	r3, [r7, #24]
 80013e4:	6053      	str	r3, [r2, #4]
 80013e6:	4b27      	ldr	r3, [pc, #156]	; (8001484 <HAL_GPIO_Init+0x350>)
 80013e8:	689b      	ldr	r3, [r3, #8]
 80013ea:	61bb      	str	r3, [r7, #24]
 80013ec:	693b      	ldr	r3, [r7, #16]
 80013ee:	43db      	mvns	r3, r3
 80013f0:	69ba      	ldr	r2, [r7, #24]
 80013f2:	4013      	ands	r3, r2
 80013f4:	61bb      	str	r3, [r7, #24]
 80013f6:	683b      	ldr	r3, [r7, #0]
 80013f8:	685b      	ldr	r3, [r3, #4]
 80013fa:	f403 1380 	and.w	r3, r3, #1048576	; 0x100000
 80013fe:	2b00      	cmp	r3, #0
 8001400:	d003      	beq.n	800140a <HAL_GPIO_Init+0x2d6>
 8001402:	69ba      	ldr	r2, [r7, #24]
 8001404:	693b      	ldr	r3, [r7, #16]
 8001406:	4313      	orrs	r3, r2
 8001408:	61bb      	str	r3, [r7, #24]
 800140a:	4a1e      	ldr	r2, [pc, #120]	; (8001484 <HAL_GPIO_Init+0x350>)
 800140c:	69bb      	ldr	r3, [r7, #24]
 800140e:	6093      	str	r3, [r2, #8]
 8001410:	4b1c      	ldr	r3, [pc, #112]	; (8001484 <HAL_GPIO_Init+0x350>)
 8001412:	68db      	ldr	r3, [r3, #12]
 8001414:	61bb      	str	r3, [r7, #24]
 8001416:	693b      	ldr	r3, [r7, #16]
 8001418:	43db      	mvns	r3, r3
 800141a:	69ba      	ldr	r2, [r7, #24]
 800141c:	4013      	ands	r3, r2
 800141e:	61bb      	str	r3, [r7, #24]
 8001420:	683b      	ldr	r3, [r7, #0]
 8001422:	685b      	ldr	r3, [r3, #4]
 8001424:	f403 1300 	and.w	r3, r3, #2097152	; 0x200000
 8001428:	2b00      	cmp	r3, #0
 800142a:	d003      	beq.n	8001434 <HAL_GPIO_Init+0x300>
 800142c:	69ba      	ldr	r2, [r7, #24]
 800142e:	693b      	ldr	r3, [r7, #16]
 8001430:	4313      	orrs	r3, r2
 8001432:	61bb      	str	r3, [r7, #24]
 8001434:	4a13      	ldr	r2, [pc, #76]	; (8001484 <HAL_GPIO_Init+0x350>)
 8001436:	69bb      	ldr	r3, [r7, #24]
 8001438:	60d3      	str	r3, [r2, #12]
 800143a:	69fb      	ldr	r3, [r7, #28]
 800143c:	3301      	adds	r3, #1
 800143e:	61fb      	str	r3, [r7, #28]
 8001440:	69fb      	ldr	r3, [r7, #28]
 8001442:	2b0f      	cmp	r3, #15
 8001444:	f67f ae86 	bls.w	8001154 <HAL_GPIO_Init+0x20>
 8001448:	bf00      	nop
 800144a:	3724      	adds	r7, #36	; 0x24
 800144c:	46bd      	mov	sp, r7
 800144e:	f85d 7b04 	ldr.w	r7, [sp], #4
 8001452:	4770      	bx	lr
 8001454:	40023800 	.word	0x40023800
 8001458:	40013800 	.word	0x40013800
 800145c:	40020000 	.word	0x40020000
 8001460:	40020400 	.word	0x40020400
 8001464:	40020800 	.word	0x40020800
 8001468:	40020c00 	.word	0x40020c00
 800146c:	40021000 	.word	0x40021000
 8001470:	40021400 	.word	0x40021400
 8001474:	40021800 	.word	0x40021800
 8001478:	40021c00 	.word	0x40021c00
 800147c:	40022000 	.word	0x40022000
 8001480:	40022400 	.word	0x40022400
 8001484:	40013c00 	.word	0x40013c00

08001488 <HAL_GPIO_ReadPin>:
 8001488:	b480      	push	{r7}
 800148a:	b085      	sub	sp, #20
 800148c:	af00      	add	r7, sp, #0
 800148e:	6078      	str	r0, [r7, #4]
 8001490:	460b      	mov	r3, r1
 8001492:	807b      	strh	r3, [r7, #2]
 8001494:	687b      	ldr	r3, [r7, #4]
 8001496:	691a      	ldr	r2, [r3, #16]
 8001498:	887b      	ldrh	r3, [r7, #2]
 800149a:	4013      	ands	r3, r2
 800149c:	2b00      	cmp	r3, #0
 800149e:	d002      	beq.n	80014a6 <HAL_GPIO_ReadPin+0x1e>
 80014a0:	2301      	movs	r3, #1
 80014a2:	73fb      	strb	r3, [r7, #15]
 80014a4:	e001      	b.n	80014aa <HAL_GPIO_ReadPin+0x22>
 80014a6:	2300      	movs	r3, #0
 80014a8:	73fb      	strb	r3, [r7, #15]
 80014aa:	7bfb      	ldrb	r3, [r7, #15]
 80014ac:	4618      	mov	r0, r3
 80014ae:	3714      	adds	r7, #20
 80014b0:	46bd      	mov	sp, r7
 80014b2:	f85d 7b04 	ldr.w	r7, [sp], #4
 80014b6:	4770      	bx	lr

080014b8 <HAL_GPIO_WritePin>:
 80014b8:	b480      	push	{r7}
 80014ba:	b083      	sub	sp, #12
 80014bc:	af00      	add	r7, sp, #0
 80014be:	6078      	str	r0, [r7, #4]
 80014c0:	460b      	mov	r3, r1
 80014c2:	807b      	strh	r3, [r7, #2]
 80014c4:	4613      	mov	r3, r2
 80014c6:	707b      	strb	r3, [r7, #1]
 80014c8:	787b      	ldrb	r3, [r7, #1]
 80014ca:	2b00      	cmp	r3, #0
 80014cc:	d003      	beq.n	80014d6 <HAL_GPIO_WritePin+0x1e>
 80014ce:	887a      	ldrh	r2, [r7, #2]
 80014d0:	687b      	ldr	r3, [r7, #4]
 80014d2:	619a      	str	r2, [r3, #24]
 80014d4:	e003      	b.n	80014de <HAL_GPIO_WritePin+0x26>
 80014d6:	887b      	ldrh	r3, [r7, #2]
 80014d8:	041a      	lsls	r2, r3, #16
 80014da:	687b      	ldr	r3, [r7, #4]
 80014dc:	619a      	str	r2, [r3, #24]
 80014de:	bf00      	nop
 80014e0:	370c      	adds	r7, #12
 80014e2:	46bd      	mov	sp, r7
 80014e4:	f85d 7b04 	ldr.w	r7, [sp], #4
 80014e8:	4770      	bx	lr

080014ea <HAL_PCD_Init>:
 80014ea:	b5f0      	push	{r4, r5, r6, r7, lr}
 80014ec:	b08f      	sub	sp, #60	; 0x3c
 80014ee:	af0a      	add	r7, sp, #40	; 0x28
 80014f0:	6078      	str	r0, [r7, #4]
 80014f2:	687b      	ldr	r3, [r7, #4]
 80014f4:	2b00      	cmp	r3, #0
 80014f6:	d101      	bne.n	80014fc <HAL_PCD_Init+0x12>
 80014f8:	2301      	movs	r3, #1
 80014fa:	e116      	b.n	800172a <HAL_PCD_Init+0x240>
 80014fc:	687b      	ldr	r3, [r7, #4]
 80014fe:	681b      	ldr	r3, [r3, #0]
 8001500:	60bb      	str	r3, [r7, #8]
 8001502:	687b      	ldr	r3, [r7, #4]
 8001504:	f893 33bd 	ldrb.w	r3, [r3, #957]	; 0x3bd
 8001508:	b2db      	uxtb	r3, r3
 800150a:	2b00      	cmp	r3, #0
 800150c:	d106      	bne.n	800151c <HAL_PCD_Init+0x32>
 800150e:	687b      	ldr	r3, [r7, #4]
 8001510:	2200      	movs	r2, #0
 8001512:	f883 23bc 	strb.w	r2, [r3, #956]	; 0x3bc
 8001516:	6878      	ldr	r0, [r7, #4]
 8001518:	f006 f8b6 	bl	8007688 <HAL_PCD_MspInit>
 800151c:	687b      	ldr	r3, [r7, #4]
 800151e:	2203      	movs	r2, #3
 8001520:	f883 23bd 	strb.w	r2, [r3, #957]	; 0x3bd
 8001524:	68bb      	ldr	r3, [r7, #8]
 8001526:	6bdb      	ldr	r3, [r3, #60]	; 0x3c
 8001528:	f403 7380 	and.w	r3, r3, #256	; 0x100
 800152c:	2b00      	cmp	r3, #0
 800152e:	d102      	bne.n	8001536 <HAL_PCD_Init+0x4c>
 8001530:	687b      	ldr	r3, [r7, #4]
 8001532:	2200      	movs	r2, #0
 8001534:	611a      	str	r2, [r3, #16]
 8001536:	687b      	ldr	r3, [r7, #4]
 8001538:	681b      	ldr	r3, [r3, #0]
 800153a:	4618      	mov	r0, r3
 800153c:	f002 fffd 	bl	800453a <USB_DisableGlobalInt>
 8001540:	687b      	ldr	r3, [r7, #4]
 8001542:	681b      	ldr	r3, [r3, #0]
 8001544:	603b      	str	r3, [r7, #0]
 8001546:	687e      	ldr	r6, [r7, #4]
 8001548:	466d      	mov	r5, sp
 800154a:	f106 0410 	add.w	r4, r6, #16
 800154e:	cc0f      	ldmia	r4!, {r0, r1, r2, r3}
 8001550:	c50f      	stmia	r5!, {r0, r1, r2, r3}
 8001552:	cc0f      	ldmia	r4!, {r0, r1, r2, r3}
 8001554:	c50f      	stmia	r5!, {r0, r1, r2, r3}
 8001556:	e894 0003 	ldmia.w	r4, {r0, r1}
 800155a:	e885 0003 	stmia.w	r5, {r0, r1}
 800155e:	1d33      	adds	r3, r6, #4
 8001560:	cb0e      	ldmia	r3, {r1, r2, r3}
 8001562:	6838      	ldr	r0, [r7, #0]
 8001564:	f002 fede 	bl	8004324 <USB_CoreInit>
 8001568:	4603      	mov	r3, r0
 800156a:	2b00      	cmp	r3, #0
 800156c:	d005      	beq.n	800157a <HAL_PCD_Init+0x90>
 800156e:	687b      	ldr	r3, [r7, #4]
 8001570:	2202      	movs	r2, #2
 8001572:	f883 23bd 	strb.w	r2, [r3, #957]	; 0x3bd
 8001576:	2301      	movs	r3, #1
 8001578:	e0d7      	b.n	800172a <HAL_PCD_Init+0x240>
 800157a:	687b      	ldr	r3, [r7, #4]
 800157c:	681b      	ldr	r3, [r3, #0]
 800157e:	2100      	movs	r1, #0
 8001580:	4618      	mov	r0, r3
 8001582:	f002 ffeb 	bl	800455c <USB_SetCurrentMode>
 8001586:	2300      	movs	r3, #0
 8001588:	73fb      	strb	r3, [r7, #15]
 800158a:	e04a      	b.n	8001622 <HAL_PCD_Init+0x138>
 800158c:	7bfa      	ldrb	r2, [r7, #15]
 800158e:	6879      	ldr	r1, [r7, #4]
 8001590:	4613      	mov	r3, r2
 8001592:	00db      	lsls	r3, r3, #3
 8001594:	1a9b      	subs	r3, r3, r2
 8001596:	009b      	lsls	r3, r3, #2
 8001598:	440b      	add	r3, r1
 800159a:	333d      	adds	r3, #61	; 0x3d
 800159c:	2201      	movs	r2, #1
 800159e:	701a      	strb	r2, [r3, #0]
 80015a0:	7bfa      	ldrb	r2, [r7, #15]
 80015a2:	6879      	ldr	r1, [r7, #4]
 80015a4:	4613      	mov	r3, r2
 80015a6:	00db      	lsls	r3, r3, #3
 80015a8:	1a9b      	subs	r3, r3, r2
 80015aa:	009b      	lsls	r3, r3, #2
 80015ac:	440b      	add	r3, r1
 80015ae:	333c      	adds	r3, #60	; 0x3c
 80015b0:	7bfa      	ldrb	r2, [r7, #15]
 80015b2:	701a      	strb	r2, [r3, #0]
 80015b4:	7bfa      	ldrb	r2, [r7, #15]
 80015b6:	7bfb      	ldrb	r3, [r7, #15]
 80015b8:	b298      	uxth	r0, r3
 80015ba:	6879      	ldr	r1, [r7, #4]
 80015bc:	4613      	mov	r3, r2
 80015be:	00db      	lsls	r3, r3, #3
 80015c0:	1a9b      	subs	r3, r3, r2
 80015c2:	009b      	lsls	r3, r3, #2
 80015c4:	440b      	add	r3, r1
 80015c6:	3342      	adds	r3, #66	; 0x42
 80015c8:	4602      	mov	r2, r0
 80015ca:	801a      	strh	r2, [r3, #0]
 80015cc:	7bfa      	ldrb	r2, [r7, #15]
 80015ce:	6879      	ldr	r1, [r7, #4]
 80015d0:	4613      	mov	r3, r2
 80015d2:	00db      	lsls	r3, r3, #3
 80015d4:	1a9b      	subs	r3, r3, r2
 80015d6:	009b      	lsls	r3, r3, #2
 80015d8:	440b      	add	r3, r1
 80015da:	333f      	adds	r3, #63	; 0x3f
 80015dc:	2200      	movs	r2, #0
 80015de:	701a      	strb	r2, [r3, #0]
 80015e0:	7bfa      	ldrb	r2, [r7, #15]
 80015e2:	6879      	ldr	r1, [r7, #4]
 80015e4:	4613      	mov	r3, r2
 80015e6:	00db      	lsls	r3, r3, #3
 80015e8:	1a9b      	subs	r3, r3, r2
 80015ea:	009b      	lsls	r3, r3, #2
 80015ec:	440b      	add	r3, r1
 80015ee:	3344      	adds	r3, #68	; 0x44
 80015f0:	2200      	movs	r2, #0
 80015f2:	601a      	str	r2, [r3, #0]
 80015f4:	7bfa      	ldrb	r2, [r7, #15]
 80015f6:	6879      	ldr	r1, [r7, #4]
 80015f8:	4613      	mov	r3, r2
 80015fa:	00db      	lsls	r3, r3, #3
 80015fc:	1a9b      	subs	r3, r3, r2
 80015fe:	009b      	lsls	r3, r3, #2
 8001600:	440b      	add	r3, r1
 8001602:	3348      	adds	r3, #72	; 0x48
 8001604:	2200      	movs	r2, #0
 8001606:	601a      	str	r2, [r3, #0]
 8001608:	7bfa      	ldrb	r2, [r7, #15]
 800160a:	6879      	ldr	r1, [r7, #4]
 800160c:	4613      	mov	r3, r2
 800160e:	00db      	lsls	r3, r3, #3
 8001610:	1a9b      	subs	r3, r3, r2
 8001612:	009b      	lsls	r3, r3, #2
 8001614:	440b      	add	r3, r1
 8001616:	3350      	adds	r3, #80	; 0x50
 8001618:	2200      	movs	r2, #0
 800161a:	601a      	str	r2, [r3, #0]
 800161c:	7bfb      	ldrb	r3, [r7, #15]
 800161e:	3301      	adds	r3, #1
 8001620:	73fb      	strb	r3, [r7, #15]
 8001622:	7bfa      	ldrb	r2, [r7, #15]
 8001624:	687b      	ldr	r3, [r7, #4]
 8001626:	685b      	ldr	r3, [r3, #4]
 8001628:	429a      	cmp	r2, r3
 800162a:	d3af      	bcc.n	800158c <HAL_PCD_Init+0xa2>
 800162c:	2300      	movs	r3, #0
 800162e:	73fb      	strb	r3, [r7, #15]
 8001630:	e044      	b.n	80016bc <HAL_PCD_Init+0x1d2>
 8001632:	7bfa      	ldrb	r2, [r7, #15]
 8001634:	6879      	ldr	r1, [r7, #4]
 8001636:	4613      	mov	r3, r2
 8001638:	00db      	lsls	r3, r3, #3
 800163a:	1a9b      	subs	r3, r3, r2
 800163c:	009b      	lsls	r3, r3, #2
 800163e:	440b      	add	r3, r1
 8001640:	f203 13fd 	addw	r3, r3, #509	; 0x1fd
 8001644:	2200      	movs	r2, #0
 8001646:	701a      	strb	r2, [r3, #0]
 8001648:	7bfa      	ldrb	r2, [r7, #15]
 800164a:	6879      	ldr	r1, [r7, #4]
 800164c:	4613      	mov	r3, r2
 800164e:	00db      	lsls	r3, r3, #3
 8001650:	1a9b      	subs	r3, r3, r2
 8001652:	009b      	lsls	r3, r3, #2
 8001654:	440b      	add	r3, r1
 8001656:	f503 73fe 	add.w	r3, r3, #508	; 0x1fc
 800165a:	7bfa      	ldrb	r2, [r7, #15]
 800165c:	701a      	strb	r2, [r3, #0]
 800165e:	7bfa      	ldrb	r2, [r7, #15]
 8001660:	6879      	ldr	r1, [r7, #4]
 8001662:	4613      	mov	r3, r2
 8001664:	00db      	lsls	r3, r3, #3
 8001666:	1a9b      	subs	r3, r3, r2
 8001668:	009b      	lsls	r3, r3, #2
 800166a:	440b      	add	r3, r1
 800166c:	f203 13ff 	addw	r3, r3, #511	; 0x1ff
 8001670:	2200      	movs	r2, #0
 8001672:	701a      	strb	r2, [r3, #0]
 8001674:	7bfa      	ldrb	r2, [r7, #15]
 8001676:	6879      	ldr	r1, [r7, #4]
 8001678:	4613      	mov	r3, r2
 800167a:	00db      	lsls	r3, r3, #3
 800167c:	1a9b      	subs	r3, r3, r2
 800167e:	009b      	lsls	r3, r3, #2
 8001680:	440b      	add	r3, r1
 8001682:	f503 7301 	add.w	r3, r3, #516	; 0x204
 8001686:	2200      	movs	r2, #0
 8001688:	601a      	str	r2, [r3, #0]
 800168a:	7bfa      	ldrb	r2, [r7, #15]
 800168c:	6879      	ldr	r1, [r7, #4]
 800168e:	4613      	mov	r3, r2
 8001690:	00db      	lsls	r3, r3, #3
 8001692:	1a9b      	subs	r3, r3, r2
 8001694:	009b      	lsls	r3, r3, #2
 8001696:	440b      	add	r3, r1
 8001698:	f503 7302 	add.w	r3, r3, #520	; 0x208
 800169c:	2200      	movs	r2, #0
 800169e:	601a      	str	r2, [r3, #0]
 80016a0:	7bfa      	ldrb	r2, [r7, #15]
 80016a2:	6879      	ldr	r1, [r7, #4]
 80016a4:	4613      	mov	r3, r2
 80016a6:	00db      	lsls	r3, r3, #3
 80016a8:	1a9b      	subs	r3, r3, r2
 80016aa:	009b      	lsls	r3, r3, #2
 80016ac:	440b      	add	r3, r1
 80016ae:	f503 7304 	add.w	r3, r3, #528	; 0x210
 80016b2:	2200      	movs	r2, #0
 80016b4:	601a      	str	r2, [r3, #0]
 80016b6:	7bfb      	ldrb	r3, [r7, #15]
 80016b8:	3301      	adds	r3, #1
 80016ba:	73fb      	strb	r3, [r7, #15]
 80016bc:	7bfa      	ldrb	r2, [r7, #15]
 80016be:	687b      	ldr	r3, [r7, #4]
 80016c0:	685b      	ldr	r3, [r3, #4]
 80016c2:	429a      	cmp	r2, r3
 80016c4:	d3b5      	bcc.n	8001632 <HAL_PCD_Init+0x148>
 80016c6:	687b      	ldr	r3, [r7, #4]
 80016c8:	681b      	ldr	r3, [r3, #0]
 80016ca:	603b      	str	r3, [r7, #0]
 80016cc:	687e      	ldr	r6, [r7, #4]
 80016ce:	466d      	mov	r5, sp
 80016d0:	f106 0410 	add.w	r4, r6, #16
 80016d4:	cc0f      	ldmia	r4!, {r0, r1, r2, r3}
 80016d6:	c50f      	stmia	r5!, {r0, r1, r2, r3}
 80016d8:	cc0f      	ldmia	r4!, {r0, r1, r2, r3}
 80016da:	c50f      	stmia	r5!, {r0, r1, r2, r3}
 80016dc:	e894 0003 	ldmia.w	r4, {r0, r1}
 80016e0:	e885 0003 	stmia.w	r5, {r0, r1}
 80016e4:	1d33      	adds	r3, r6, #4
 80016e6:	cb0e      	ldmia	r3, {r1, r2, r3}
 80016e8:	6838      	ldr	r0, [r7, #0]
 80016ea:	f002 ff61 	bl	80045b0 <USB_DevInit>
 80016ee:	4603      	mov	r3, r0
 80016f0:	2b00      	cmp	r3, #0
 80016f2:	d005      	beq.n	8001700 <HAL_PCD_Init+0x216>
 80016f4:	687b      	ldr	r3, [r7, #4]
 80016f6:	2202      	movs	r2, #2
 80016f8:	f883 23bd 	strb.w	r2, [r3, #957]	; 0x3bd
 80016fc:	2301      	movs	r3, #1
 80016fe:	e014      	b.n	800172a <HAL_PCD_Init+0x240>
 8001700:	687b      	ldr	r3, [r7, #4]
 8001702:	2200      	movs	r2, #0
 8001704:	f883 2038 	strb.w	r2, [r3, #56]	; 0x38
 8001708:	687b      	ldr	r3, [r7, #4]
 800170a:	2201      	movs	r2, #1
 800170c:	f883 23bd 	strb.w	r2, [r3, #957]	; 0x3bd
 8001710:	687b      	ldr	r3, [r7, #4]
 8001712:	6a5b      	ldr	r3, [r3, #36]	; 0x24
 8001714:	2b01      	cmp	r3, #1
 8001716:	d102      	bne.n	800171e <HAL_PCD_Init+0x234>
 8001718:	6878      	ldr	r0, [r7, #4]
 800171a:	f001 f869 	bl	80027f0 <HAL_PCDEx_ActivateLPM>
 800171e:	687b      	ldr	r3, [r7, #4]
 8001720:	681b      	ldr	r3, [r3, #0]
 8001722:	4618      	mov	r0, r3
 8001724:	f003 ffb0 	bl	8005688 <USB_DevDisconnect>
 8001728:	2300      	movs	r3, #0
 800172a:	4618      	mov	r0, r3
 800172c:	3714      	adds	r7, #20
 800172e:	46bd      	mov	sp, r7
 8001730:	bdf0      	pop	{r4, r5, r6, r7, pc}

08001732 <HAL_PCD_Start>:
 8001732:	b580      	push	{r7, lr}
 8001734:	b082      	sub	sp, #8
 8001736:	af00      	add	r7, sp, #0
 8001738:	6078      	str	r0, [r7, #4]
 800173a:	687b      	ldr	r3, [r7, #4]
 800173c:	f893 33bc 	ldrb.w	r3, [r3, #956]	; 0x3bc
 8001740:	2b01      	cmp	r3, #1
 8001742:	d101      	bne.n	8001748 <HAL_PCD_Start+0x16>
 8001744:	2302      	movs	r3, #2
 8001746:	e012      	b.n	800176e <HAL_PCD_Start+0x3c>
 8001748:	687b      	ldr	r3, [r7, #4]
 800174a:	2201      	movs	r2, #1
 800174c:	f883 23bc 	strb.w	r2, [r3, #956]	; 0x3bc
 8001750:	687b      	ldr	r3, [r7, #4]
 8001752:	681b      	ldr	r3, [r3, #0]
 8001754:	4618      	mov	r0, r3
 8001756:	f003 ff7f 	bl	8005658 <USB_DevConnect>
 800175a:	687b      	ldr	r3, [r7, #4]
 800175c:	681b      	ldr	r3, [r3, #0]
 800175e:	4618      	mov	r0, r3
 8001760:	f002 feda 	bl	8004518 <USB_EnableGlobalInt>
 8001764:	687b      	ldr	r3, [r7, #4]
 8001766:	2200      	movs	r2, #0
 8001768:	f883 23bc 	strb.w	r2, [r3, #956]	; 0x3bc
 800176c:	2300      	movs	r3, #0
 800176e:	4618      	mov	r0, r3
 8001770:	3708      	adds	r7, #8
 8001772:	46bd      	mov	sp, r7
 8001774:	bd80      	pop	{r7, pc}

08001776 <HAL_PCD_IRQHandler>:
 8001776:	b590      	push	{r4, r7, lr}
 8001778:	b08d      	sub	sp, #52	; 0x34
 800177a:	af00      	add	r7, sp, #0
 800177c:	6078      	str	r0, [r7, #4]
 800177e:	687b      	ldr	r3, [r7, #4]
 8001780:	681b      	ldr	r3, [r3, #0]
 8001782:	623b      	str	r3, [r7, #32]
 8001784:	6a3b      	ldr	r3, [r7, #32]
 8001786:	61fb      	str	r3, [r7, #28]
 8001788:	687b      	ldr	r3, [r7, #4]
 800178a:	681b      	ldr	r3, [r3, #0]
 800178c:	4618      	mov	r0, r3
 800178e:	f004 f826 	bl	80057de <USB_GetMode>
 8001792:	4603      	mov	r3, r0
 8001794:	2b00      	cmp	r3, #0
 8001796:	f040 83ca 	bne.w	8001f2e <HAL_PCD_IRQHandler+0x7b8>
 800179a:	687b      	ldr	r3, [r7, #4]
 800179c:	681b      	ldr	r3, [r3, #0]
 800179e:	4618      	mov	r0, r3
 80017a0:	f003 ff8a 	bl	80056b8 <USB_ReadInterrupts>
 80017a4:	4603      	mov	r3, r0
 80017a6:	2b00      	cmp	r3, #0
 80017a8:	f000 83c0 	beq.w	8001f2c <HAL_PCD_IRQHandler+0x7b6>
 80017ac:	687b      	ldr	r3, [r7, #4]
 80017ae:	681b      	ldr	r3, [r3, #0]
 80017b0:	4618      	mov	r0, r3
 80017b2:	f003 ff81 	bl	80056b8 <USB_ReadInterrupts>
 80017b6:	4603      	mov	r3, r0
 80017b8:	f003 0302 	and.w	r3, r3, #2
 80017bc:	2b02      	cmp	r3, #2
 80017be:	d107      	bne.n	80017d0 <HAL_PCD_IRQHandler+0x5a>
 80017c0:	687b      	ldr	r3, [r7, #4]
 80017c2:	681b      	ldr	r3, [r3, #0]
 80017c4:	695a      	ldr	r2, [r3, #20]
 80017c6:	687b      	ldr	r3, [r7, #4]
 80017c8:	681b      	ldr	r3, [r3, #0]
 80017ca:	f002 0202 	and.w	r2, r2, #2
 80017ce:	615a      	str	r2, [r3, #20]
 80017d0:	687b      	ldr	r3, [r7, #4]
 80017d2:	681b      	ldr	r3, [r3, #0]
 80017d4:	4618      	mov	r0, r3
 80017d6:	f003 ff6f 	bl	80056b8 <USB_ReadInterrupts>
 80017da:	4603      	mov	r3, r0
 80017dc:	f003 0310 	and.w	r3, r3, #16
 80017e0:	2b10      	cmp	r3, #16
 80017e2:	d161      	bne.n	80018a8 <HAL_PCD_IRQHandler+0x132>
 80017e4:	687b      	ldr	r3, [r7, #4]
 80017e6:	681b      	ldr	r3, [r3, #0]
 80017e8:	699a      	ldr	r2, [r3, #24]
 80017ea:	687b      	ldr	r3, [r7, #4]
 80017ec:	681b      	ldr	r3, [r3, #0]
 80017ee:	f022 0210 	bic.w	r2, r2, #16
 80017f2:	619a      	str	r2, [r3, #24]
 80017f4:	6a3b      	ldr	r3, [r7, #32]
 80017f6:	6a1b      	ldr	r3, [r3, #32]
 80017f8:	61bb      	str	r3, [r7, #24]
 80017fa:	69bb      	ldr	r3, [r7, #24]
 80017fc:	f003 020f 	and.w	r2, r3, #15
 8001800:	4613      	mov	r3, r2
 8001802:	00db      	lsls	r3, r3, #3
 8001804:	1a9b      	subs	r3, r3, r2
 8001806:	009b      	lsls	r3, r3, #2
 8001808:	f503 73fc 	add.w	r3, r3, #504	; 0x1f8
 800180c:	687a      	ldr	r2, [r7, #4]
 800180e:	4413      	add	r3, r2
 8001810:	3304      	adds	r3, #4
 8001812:	617b      	str	r3, [r7, #20]
 8001814:	69bb      	ldr	r3, [r7, #24]
 8001816:	0c5b      	lsrs	r3, r3, #17
 8001818:	f003 030f 	and.w	r3, r3, #15
 800181c:	2b02      	cmp	r3, #2
 800181e:	d124      	bne.n	800186a <HAL_PCD_IRQHandler+0xf4>
 8001820:	69ba      	ldr	r2, [r7, #24]
 8001822:	f647 73f0 	movw	r3, #32752	; 0x7ff0
 8001826:	4013      	ands	r3, r2
 8001828:	2b00      	cmp	r3, #0
 800182a:	d035      	beq.n	8001898 <HAL_PCD_IRQHandler+0x122>
 800182c:	697b      	ldr	r3, [r7, #20]
 800182e:	68d9      	ldr	r1, [r3, #12]
 8001830:	69bb      	ldr	r3, [r7, #24]
 8001832:	091b      	lsrs	r3, r3, #4
 8001834:	b29b      	uxth	r3, r3
 8001836:	f3c3 030a 	ubfx	r3, r3, #0, #11
 800183a:	b29b      	uxth	r3, r3
 800183c:	461a      	mov	r2, r3
 800183e:	6a38      	ldr	r0, [r7, #32]
 8001840:	f003 fde7 	bl	8005412 <USB_ReadPacket>
 8001844:	697b      	ldr	r3, [r7, #20]
 8001846:	68da      	ldr	r2, [r3, #12]
 8001848:	69bb      	ldr	r3, [r7, #24]
 800184a:	091b      	lsrs	r3, r3, #4
 800184c:	f3c3 030a 	ubfx	r3, r3, #0, #11
 8001850:	441a      	add	r2, r3
 8001852:	697b      	ldr	r3, [r7, #20]
 8001854:	60da      	str	r2, [r3, #12]
 8001856:	697b      	ldr	r3, [r7, #20]
 8001858:	699a      	ldr	r2, [r3, #24]
 800185a:	69bb      	ldr	r3, [r7, #24]
 800185c:	091b      	lsrs	r3, r3, #4
 800185e:	f3c3 030a 	ubfx	r3, r3, #0, #11
 8001862:	441a      	add	r2, r3
 8001864:	697b      	ldr	r3, [r7, #20]
 8001866:	619a      	str	r2, [r3, #24]
 8001868:	e016      	b.n	8001898 <HAL_PCD_IRQHandler+0x122>
 800186a:	69bb      	ldr	r3, [r7, #24]
 800186c:	0c5b      	lsrs	r3, r3, #17
 800186e:	f003 030f 	and.w	r3, r3, #15
 8001872:	2b06      	cmp	r3, #6
 8001874:	d110      	bne.n	8001898 <HAL_PCD_IRQHandler+0x122>
 8001876:	687b      	ldr	r3, [r7, #4]
 8001878:	f503 7371 	add.w	r3, r3, #964	; 0x3c4
 800187c:	2208      	movs	r2, #8
 800187e:	4619      	mov	r1, r3
 8001880:	6a38      	ldr	r0, [r7, #32]
 8001882:	f003 fdc6 	bl	8005412 <USB_ReadPacket>
 8001886:	697b      	ldr	r3, [r7, #20]
 8001888:	699a      	ldr	r2, [r3, #24]
 800188a:	69bb      	ldr	r3, [r7, #24]
 800188c:	091b      	lsrs	r3, r3, #4
 800188e:	f3c3 030a 	ubfx	r3, r3, #0, #11
 8001892:	441a      	add	r2, r3
 8001894:	697b      	ldr	r3, [r7, #20]
 8001896:	619a      	str	r2, [r3, #24]
 8001898:	687b      	ldr	r3, [r7, #4]
 800189a:	681b      	ldr	r3, [r3, #0]
 800189c:	699a      	ldr	r2, [r3, #24]
 800189e:	687b      	ldr	r3, [r7, #4]
 80018a0:	681b      	ldr	r3, [r3, #0]
 80018a2:	f042 0210 	orr.w	r2, r2, #16
 80018a6:	619a      	str	r2, [r3, #24]
 80018a8:	687b      	ldr	r3, [r7, #4]
 80018aa:	681b      	ldr	r3, [r3, #0]
 80018ac:	4618      	mov	r0, r3
 80018ae:	f003 ff03 	bl	80056b8 <USB_ReadInterrupts>
 80018b2:	4603      	mov	r3, r0
 80018b4:	f403 2300 	and.w	r3, r3, #524288	; 0x80000
 80018b8:	f5b3 2f00 	cmp.w	r3, #524288	; 0x80000
 80018bc:	d16e      	bne.n	800199c <HAL_PCD_IRQHandler+0x226>
 80018be:	2300      	movs	r3, #0
 80018c0:	627b      	str	r3, [r7, #36]	; 0x24
 80018c2:	687b      	ldr	r3, [r7, #4]
 80018c4:	681b      	ldr	r3, [r3, #0]
 80018c6:	4618      	mov	r0, r3
 80018c8:	f003 ff09 	bl	80056de <USB_ReadDevAllOutEpInterrupt>
 80018cc:	62b8      	str	r0, [r7, #40]	; 0x28
 80018ce:	e062      	b.n	8001996 <HAL_PCD_IRQHandler+0x220>
 80018d0:	6abb      	ldr	r3, [r7, #40]	; 0x28
 80018d2:	f003 0301 	and.w	r3, r3, #1
 80018d6:	2b00      	cmp	r3, #0
 80018d8:	d057      	beq.n	800198a <HAL_PCD_IRQHandler+0x214>
 80018da:	687b      	ldr	r3, [r7, #4]
 80018dc:	681b      	ldr	r3, [r3, #0]
 80018de:	6a7a      	ldr	r2, [r7, #36]	; 0x24
 80018e0:	b2d2      	uxtb	r2, r2
 80018e2:	4611      	mov	r1, r2
 80018e4:	4618      	mov	r0, r3
 80018e6:	f003 ff2e 	bl	8005746 <USB_ReadDevOutEPInterrupt>
 80018ea:	6138      	str	r0, [r7, #16]
 80018ec:	693b      	ldr	r3, [r7, #16]
 80018ee:	f003 0301 	and.w	r3, r3, #1
 80018f2:	2b00      	cmp	r3, #0
 80018f4:	d00c      	beq.n	8001910 <HAL_PCD_IRQHandler+0x19a>
 80018f6:	6a7b      	ldr	r3, [r7, #36]	; 0x24
 80018f8:	015a      	lsls	r2, r3, #5
 80018fa:	69fb      	ldr	r3, [r7, #28]
 80018fc:	4413      	add	r3, r2
 80018fe:	f503 6330 	add.w	r3, r3, #2816	; 0xb00
 8001902:	461a      	mov	r2, r3
 8001904:	2301      	movs	r3, #1
 8001906:	6093      	str	r3, [r2, #8]
 8001908:	6a79      	ldr	r1, [r7, #36]	; 0x24
 800190a:	6878      	ldr	r0, [r7, #4]
 800190c:	f000 fdc6 	bl	800249c <PCD_EP_OutXfrComplete_int>
 8001910:	693b      	ldr	r3, [r7, #16]
 8001912:	f003 0308 	and.w	r3, r3, #8
 8001916:	2b00      	cmp	r3, #0
 8001918:	d00c      	beq.n	8001934 <HAL_PCD_IRQHandler+0x1be>
 800191a:	6a7b      	ldr	r3, [r7, #36]	; 0x24
 800191c:	015a      	lsls	r2, r3, #5
 800191e:	69fb      	ldr	r3, [r7, #28]
 8001920:	4413      	add	r3, r2
 8001922:	f503 6330 	add.w	r3, r3, #2816	; 0xb00
 8001926:	461a      	mov	r2, r3
 8001928:	2308      	movs	r3, #8
 800192a:	6093      	str	r3, [r2, #8]
 800192c:	6a79      	ldr	r1, [r7, #36]	; 0x24
 800192e:	6878      	ldr	r0, [r7, #4]
 8001930:	f000 fec0 	bl	80026b4 <PCD_EP_OutSetupPacket_int>
 8001934:	693b      	ldr	r3, [r7, #16]
 8001936:	f003 0310 	and.w	r3, r3, #16
 800193a:	2b00      	cmp	r3, #0
 800193c:	d008      	beq.n	8001950 <HAL_PCD_IRQHandler+0x1da>
 800193e:	6a7b      	ldr	r3, [r7, #36]	; 0x24
 8001940:	015a      	lsls	r2, r3, #5
 8001942:	69fb      	ldr	r3, [r7, #28]
 8001944:	4413      	add	r3, r2
 8001946:	f503 6330 	add.w	r3, r3, #2816	; 0xb00
 800194a:	461a      	mov	r2, r3
 800194c:	2310      	movs	r3, #16
 800194e:	6093      	str	r3, [r2, #8]
 8001950:	693b      	ldr	r3, [r7, #16]
 8001952:	f003 0320 	and.w	r3, r3, #32
 8001956:	2b00      	cmp	r3, #0
 8001958:	d008      	beq.n	800196c <HAL_PCD_IRQHandler+0x1f6>
 800195a:	6a7b      	ldr	r3, [r7, #36]	; 0x24
 800195c:	015a      	lsls	r2, r3, #5
 800195e:	69fb      	ldr	r3, [r7, #28]
 8001960:	4413      	add	r3, r2
 8001962:	f503 6330 	add.w	r3, r3, #2816	; 0xb00
 8001966:	461a      	mov	r2, r3
 8001968:	2320      	movs	r3, #32
 800196a:	6093      	str	r3, [r2, #8]
 800196c:	693b      	ldr	r3, [r7, #16]
 800196e:	f403 5300 	and.w	r3, r3, #8192	; 0x2000
 8001972:	2b00      	cmp	r3, #0
 8001974:	d009      	beq.n	800198a <HAL_PCD_IRQHandler+0x214>
 8001976:	6a7b      	ldr	r3, [r7, #36]	; 0x24
 8001978:	015a      	lsls	r2, r3, #5
 800197a:	69fb      	ldr	r3, [r7, #28]
 800197c:	4413      	add	r3, r2
 800197e:	f503 6330 	add.w	r3, r3, #2816	; 0xb00
 8001982:	461a      	mov	r2, r3
 8001984:	f44f 5300 	mov.w	r3, #8192	; 0x2000
 8001988:	6093      	str	r3, [r2, #8]
 800198a:	6a7b      	ldr	r3, [r7, #36]	; 0x24
 800198c:	3301      	adds	r3, #1
 800198e:	627b      	str	r3, [r7, #36]	; 0x24
 8001990:	6abb      	ldr	r3, [r7, #40]	; 0x28
 8001992:	085b      	lsrs	r3, r3, #1
 8001994:	62bb      	str	r3, [r7, #40]	; 0x28
 8001996:	6abb      	ldr	r3, [r7, #40]	; 0x28
 8001998:	2b00      	cmp	r3, #0
 800199a:	d199      	bne.n	80018d0 <HAL_PCD_IRQHandler+0x15a>
 800199c:	687b      	ldr	r3, [r7, #4]
 800199e:	681b      	ldr	r3, [r3, #0]
 80019a0:	4618      	mov	r0, r3
 80019a2:	f003 fe89 	bl	80056b8 <USB_ReadInterrupts>
 80019a6:	4603      	mov	r3, r0
 80019a8:	f403 2380 	and.w	r3, r3, #262144	; 0x40000
 80019ac:	f5b3 2f80 	cmp.w	r3, #262144	; 0x40000
 80019b0:	f040 80c0 	bne.w	8001b34 <HAL_PCD_IRQHandler+0x3be>
 80019b4:	687b      	ldr	r3, [r7, #4]
 80019b6:	681b      	ldr	r3, [r3, #0]
 80019b8:	4618      	mov	r0, r3
 80019ba:	f003 feaa 	bl	8005712 <USB_ReadDevAllInEpInterrupt>
 80019be:	62b8      	str	r0, [r7, #40]	; 0x28
 80019c0:	2300      	movs	r3, #0
 80019c2:	627b      	str	r3, [r7, #36]	; 0x24
 80019c4:	e0b2      	b.n	8001b2c <HAL_PCD_IRQHandler+0x3b6>
 80019c6:	6abb      	ldr	r3, [r7, #40]	; 0x28
 80019c8:	f003 0301 	and.w	r3, r3, #1
 80019cc:	2b00      	cmp	r3, #0
 80019ce:	f000 80a7 	beq.w	8001b20 <HAL_PCD_IRQHandler+0x3aa>
 80019d2:	687b      	ldr	r3, [r7, #4]
 80019d4:	681b      	ldr	r3, [r3, #0]
 80019d6:	6a7a      	ldr	r2, [r7, #36]	; 0x24
 80019d8:	b2d2      	uxtb	r2, r2
 80019da:	4611      	mov	r1, r2
 80019dc:	4618      	mov	r0, r3
 80019de:	f003 fed0 	bl	8005782 <USB_ReadDevInEPInterrupt>
 80019e2:	6138      	str	r0, [r7, #16]
 80019e4:	693b      	ldr	r3, [r7, #16]
 80019e6:	f003 0301 	and.w	r3, r3, #1
 80019ea:	2b00      	cmp	r3, #0
 80019ec:	d057      	beq.n	8001a9e <HAL_PCD_IRQHandler+0x328>
 80019ee:	6a7b      	ldr	r3, [r7, #36]	; 0x24
 80019f0:	f003 030f 	and.w	r3, r3, #15
 80019f4:	2201      	movs	r2, #1
 80019f6:	fa02 f303 	lsl.w	r3, r2, r3
 80019fa:	60fb      	str	r3, [r7, #12]
 80019fc:	69fb      	ldr	r3, [r7, #28]
 80019fe:	f503 6300 	add.w	r3, r3, #2048	; 0x800
 8001a02:	6b5a      	ldr	r2, [r3, #52]	; 0x34
 8001a04:	68fb      	ldr	r3, [r7, #12]
 8001a06:	43db      	mvns	r3, r3
 8001a08:	69f9      	ldr	r1, [r7, #28]
 8001a0a:	f501 6100 	add.w	r1, r1, #2048	; 0x800
 8001a0e:	4013      	ands	r3, r2
 8001a10:	634b      	str	r3, [r1, #52]	; 0x34
 8001a12:	6a7b      	ldr	r3, [r7, #36]	; 0x24
 8001a14:	015a      	lsls	r2, r3, #5
 8001a16:	69fb      	ldr	r3, [r7, #28]
 8001a18:	4413      	add	r3, r2
 8001a1a:	f503 6310 	add.w	r3, r3, #2304	; 0x900
 8001a1e:	461a      	mov	r2, r3
 8001a20:	2301      	movs	r3, #1
 8001a22:	6093      	str	r3, [r2, #8]
 8001a24:	687b      	ldr	r3, [r7, #4]
 8001a26:	691b      	ldr	r3, [r3, #16]
 8001a28:	2b01      	cmp	r3, #1
 8001a2a:	d132      	bne.n	8001a92 <HAL_PCD_IRQHandler+0x31c>
 8001a2c:	6879      	ldr	r1, [r7, #4]
 8001a2e:	6a7a      	ldr	r2, [r7, #36]	; 0x24
 8001a30:	4613      	mov	r3, r2
 8001a32:	00db      	lsls	r3, r3, #3
 8001a34:	1a9b      	subs	r3, r3, r2
 8001a36:	009b      	lsls	r3, r3, #2
 8001a38:	440b      	add	r3, r1
 8001a3a:	3348      	adds	r3, #72	; 0x48
 8001a3c:	6819      	ldr	r1, [r3, #0]
 8001a3e:	6878      	ldr	r0, [r7, #4]
 8001a40:	6a7a      	ldr	r2, [r7, #36]	; 0x24
 8001a42:	4613      	mov	r3, r2
 8001a44:	00db      	lsls	r3, r3, #3
 8001a46:	1a9b      	subs	r3, r3, r2
 8001a48:	009b      	lsls	r3, r3, #2
 8001a4a:	4403      	add	r3, r0
 8001a4c:	3344      	adds	r3, #68	; 0x44
 8001a4e:	681b      	ldr	r3, [r3, #0]
 8001a50:	4419      	add	r1, r3
 8001a52:	6878      	ldr	r0, [r7, #4]
 8001a54:	6a7a      	ldr	r2, [r7, #36]	; 0x24
 8001a56:	4613      	mov	r3, r2
 8001a58:	00db      	lsls	r3, r3, #3
 8001a5a:	1a9b      	subs	r3, r3, r2
 8001a5c:	009b      	lsls	r3, r3, #2
 8001a5e:	4403      	add	r3, r0
 8001a60:	3348      	adds	r3, #72	; 0x48
 8001a62:	6019      	str	r1, [r3, #0]
 8001a64:	6a7b      	ldr	r3, [r7, #36]	; 0x24
 8001a66:	2b00      	cmp	r3, #0
 8001a68:	d113      	bne.n	8001a92 <HAL_PCD_IRQHandler+0x31c>
 8001a6a:	6879      	ldr	r1, [r7, #4]
 8001a6c:	6a7a      	ldr	r2, [r7, #36]	; 0x24
 8001a6e:	4613      	mov	r3, r2
 8001a70:	00db      	lsls	r3, r3, #3
 8001a72:	1a9b      	subs	r3, r3, r2
 8001a74:	009b      	lsls	r3, r3, #2
 8001a76:	440b      	add	r3, r1
 8001a78:	3350      	adds	r3, #80	; 0x50
 8001a7a:	681b      	ldr	r3, [r3, #0]
 8001a7c:	2b00      	cmp	r3, #0
 8001a7e:	d108      	bne.n	8001a92 <HAL_PCD_IRQHandler+0x31c>
 8001a80:	687b      	ldr	r3, [r7, #4]
 8001a82:	6818      	ldr	r0, [r3, #0]
 8001a84:	687b      	ldr	r3, [r7, #4]
 8001a86:	f503 7371 	add.w	r3, r3, #964	; 0x3c4
 8001a8a:	461a      	mov	r2, r3
 8001a8c:	2101      	movs	r1, #1
 8001a8e:	f003 fed9 	bl	8005844 <USB_EP0_OutStart>
 8001a92:	6a7b      	ldr	r3, [r7, #36]	; 0x24
 8001a94:	b2db      	uxtb	r3, r3
 8001a96:	4619      	mov	r1, r3
 8001a98:	6878      	ldr	r0, [r7, #4]
 8001a9a:	f005 fe86 	bl	80077aa <HAL_PCD_DataInStageCallback>
 8001a9e:	693b      	ldr	r3, [r7, #16]
 8001aa0:	f003 0308 	and.w	r3, r3, #8
 8001aa4:	2b00      	cmp	r3, #0
 8001aa6:	d008      	beq.n	8001aba <HAL_PCD_IRQHandler+0x344>
 8001aa8:	6a7b      	ldr	r3, [r7, #36]	; 0x24
 8001aaa:	015a      	lsls	r2, r3, #5
 8001aac:	69fb      	ldr	r3, [r7, #28]
 8001aae:	4413      	add	r3, r2
 8001ab0:	f503 6310 	add.w	r3, r3, #2304	; 0x900
 8001ab4:	461a      	mov	r2, r3
 8001ab6:	2308      	movs	r3, #8
 8001ab8:	6093      	str	r3, [r2, #8]
 8001aba:	693b      	ldr	r3, [r7, #16]
 8001abc:	f003 0310 	and.w	r3, r3, #16
 8001ac0:	2b00      	cmp	r3, #0
 8001ac2:	d008      	beq.n	8001ad6 <HAL_PCD_IRQHandler+0x360>
 8001ac4:	6a7b      	ldr	r3, [r7, #36]	; 0x24
 8001ac6:	015a      	lsls	r2, r3, #5
 8001ac8:	69fb      	ldr	r3, [r7, #28]
 8001aca:	4413      	add	r3, r2
 8001acc:	f503 6310 	add.w	r3, r3, #2304	; 0x900
 8001ad0:	461a      	mov	r2, r3
 8001ad2:	2310      	movs	r3, #16
 8001ad4:	6093      	str	r3, [r2, #8]
 8001ad6:	693b      	ldr	r3, [r7, #16]
 8001ad8:	f003 0340 	and.w	r3, r3, #64	; 0x40
 8001adc:	2b00      	cmp	r3, #0
 8001ade:	d008      	beq.n	8001af2 <HAL_PCD_IRQHandler+0x37c>
 8001ae0:	6a7b      	ldr	r3, [r7, #36]	; 0x24
 8001ae2:	015a      	lsls	r2, r3, #5
 8001ae4:	69fb      	ldr	r3, [r7, #28]
 8001ae6:	4413      	add	r3, r2
 8001ae8:	f503 6310 	add.w	r3, r3, #2304	; 0x900
 8001aec:	461a      	mov	r2, r3
 8001aee:	2340      	movs	r3, #64	; 0x40
 8001af0:	6093      	str	r3, [r2, #8]
 8001af2:	693b      	ldr	r3, [r7, #16]
 8001af4:	f003 0302 	and.w	r3, r3, #2
 8001af8:	2b00      	cmp	r3, #0
 8001afa:	d008      	beq.n	8001b0e <HAL_PCD_IRQHandler+0x398>
 8001afc:	6a7b      	ldr	r3, [r7, #36]	; 0x24
 8001afe:	015a      	lsls	r2, r3, #5
 8001b00:	69fb      	ldr	r3, [r7, #28]
 8001b02:	4413      	add	r3, r2
 8001b04:	f503 6310 	add.w	r3, r3, #2304	; 0x900
 8001b08:	461a      	mov	r2, r3
 8001b0a:	2302      	movs	r3, #2
 8001b0c:	6093      	str	r3, [r2, #8]
 8001b0e:	693b      	ldr	r3, [r7, #16]
 8001b10:	f003 0380 	and.w	r3, r3, #128	; 0x80
 8001b14:	2b00      	cmp	r3, #0
 8001b16:	d003      	beq.n	8001b20 <HAL_PCD_IRQHandler+0x3aa>
 8001b18:	6a79      	ldr	r1, [r7, #36]	; 0x24
 8001b1a:	6878      	ldr	r0, [r7, #4]
 8001b1c:	f000 fc30 	bl	8002380 <PCD_WriteEmptyTxFifo>
 8001b20:	6a7b      	ldr	r3, [r7, #36]	; 0x24
 8001b22:	3301      	adds	r3, #1
 8001b24:	627b      	str	r3, [r7, #36]	; 0x24
 8001b26:	6abb      	ldr	r3, [r7, #40]	; 0x28
 8001b28:	085b      	lsrs	r3, r3, #1
 8001b2a:	62bb      	str	r3, [r7, #40]	; 0x28
 8001b2c:	6abb      	ldr	r3, [r7, #40]	; 0x28
 8001b2e:	2b00      	cmp	r3, #0
 8001b30:	f47f af49 	bne.w	80019c6 <HAL_PCD_IRQHandler+0x250>
 8001b34:	687b      	ldr	r3, [r7, #4]
 8001b36:	681b      	ldr	r3, [r3, #0]
 8001b38:	4618      	mov	r0, r3
 8001b3a:	f003 fdbd 	bl	80056b8 <USB_ReadInterrupts>
 8001b3e:	4603      	mov	r3, r0
 8001b40:	f003 4300 	and.w	r3, r3, #2147483648	; 0x80000000
 8001b44:	f1b3 4f00 	cmp.w	r3, #2147483648	; 0x80000000
 8001b48:	d122      	bne.n	8001b90 <HAL_PCD_IRQHandler+0x41a>
 8001b4a:	69fb      	ldr	r3, [r7, #28]
 8001b4c:	f503 6300 	add.w	r3, r3, #2048	; 0x800
 8001b50:	685b      	ldr	r3, [r3, #4]
 8001b52:	69fa      	ldr	r2, [r7, #28]
 8001b54:	f502 6200 	add.w	r2, r2, #2048	; 0x800
 8001b58:	f023 0301 	bic.w	r3, r3, #1
 8001b5c:	6053      	str	r3, [r2, #4]
 8001b5e:	687b      	ldr	r3, [r7, #4]
 8001b60:	f893 33f4 	ldrb.w	r3, [r3, #1012]	; 0x3f4
 8001b64:	2b01      	cmp	r3, #1
 8001b66:	d108      	bne.n	8001b7a <HAL_PCD_IRQHandler+0x404>
 8001b68:	687b      	ldr	r3, [r7, #4]
 8001b6a:	2200      	movs	r2, #0
 8001b6c:	f883 23f4 	strb.w	r2, [r3, #1012]	; 0x3f4
 8001b70:	2100      	movs	r1, #0
 8001b72:	6878      	ldr	r0, [r7, #4]
 8001b74:	f006 f856 	bl	8007c24 <HAL_PCDEx_LPM_Callback>
 8001b78:	e002      	b.n	8001b80 <HAL_PCD_IRQHandler+0x40a>
 8001b7a:	6878      	ldr	r0, [r7, #4]
 8001b7c:	f005 fe8c 	bl	8007898 <HAL_PCD_ResumeCallback>
 8001b80:	687b      	ldr	r3, [r7, #4]
 8001b82:	681b      	ldr	r3, [r3, #0]
 8001b84:	695a      	ldr	r2, [r3, #20]
 8001b86:	687b      	ldr	r3, [r7, #4]
 8001b88:	681b      	ldr	r3, [r3, #0]
 8001b8a:	f002 4200 	and.w	r2, r2, #2147483648	; 0x80000000
 8001b8e:	615a      	str	r2, [r3, #20]
 8001b90:	687b      	ldr	r3, [r7, #4]
 8001b92:	681b      	ldr	r3, [r3, #0]
 8001b94:	4618      	mov	r0, r3
 8001b96:	f003 fd8f 	bl	80056b8 <USB_ReadInterrupts>
 8001b9a:	4603      	mov	r3, r0
 8001b9c:	f403 6300 	and.w	r3, r3, #2048	; 0x800
 8001ba0:	f5b3 6f00 	cmp.w	r3, #2048	; 0x800
 8001ba4:	d112      	bne.n	8001bcc <HAL_PCD_IRQHandler+0x456>
 8001ba6:	69fb      	ldr	r3, [r7, #28]
 8001ba8:	f503 6300 	add.w	r3, r3, #2048	; 0x800
 8001bac:	689b      	ldr	r3, [r3, #8]
 8001bae:	f003 0301 	and.w	r3, r3, #1
 8001bb2:	2b01      	cmp	r3, #1
 8001bb4:	d102      	bne.n	8001bbc <HAL_PCD_IRQHandler+0x446>
 8001bb6:	6878      	ldr	r0, [r7, #4]
 8001bb8:	f005 fe48 	bl	800784c <HAL_PCD_SuspendCallback>
 8001bbc:	687b      	ldr	r3, [r7, #4]
 8001bbe:	681b      	ldr	r3, [r3, #0]
 8001bc0:	695a      	ldr	r2, [r3, #20]
 8001bc2:	687b      	ldr	r3, [r7, #4]
 8001bc4:	681b      	ldr	r3, [r3, #0]
 8001bc6:	f402 6200 	and.w	r2, r2, #2048	; 0x800
 8001bca:	615a      	str	r2, [r3, #20]
 8001bcc:	687b      	ldr	r3, [r7, #4]
 8001bce:	681b      	ldr	r3, [r3, #0]
 8001bd0:	4618      	mov	r0, r3
 8001bd2:	f003 fd71 	bl	80056b8 <USB_ReadInterrupts>
 8001bd6:	4603      	mov	r3, r0
 8001bd8:	f003 6300 	and.w	r3, r3, #134217728	; 0x8000000
 8001bdc:	f1b3 6f00 	cmp.w	r3, #134217728	; 0x8000000
 8001be0:	d121      	bne.n	8001c26 <HAL_PCD_IRQHandler+0x4b0>
 8001be2:	687b      	ldr	r3, [r7, #4]
 8001be4:	681b      	ldr	r3, [r3, #0]
 8001be6:	695a      	ldr	r2, [r3, #20]
 8001be8:	687b      	ldr	r3, [r7, #4]
 8001bea:	681b      	ldr	r3, [r3, #0]
 8001bec:	f002 6200 	and.w	r2, r2, #134217728	; 0x8000000
 8001bf0:	615a      	str	r2, [r3, #20]
 8001bf2:	687b      	ldr	r3, [r7, #4]
 8001bf4:	f893 33f4 	ldrb.w	r3, [r3, #1012]	; 0x3f4
 8001bf8:	2b00      	cmp	r3, #0
 8001bfa:	d111      	bne.n	8001c20 <HAL_PCD_IRQHandler+0x4aa>
 8001bfc:	687b      	ldr	r3, [r7, #4]
 8001bfe:	2201      	movs	r2, #1
 8001c00:	f883 23f4 	strb.w	r2, [r3, #1012]	; 0x3f4
 8001c04:	687b      	ldr	r3, [r7, #4]
 8001c06:	681b      	ldr	r3, [r3, #0]
 8001c08:	6d5b      	ldr	r3, [r3, #84]	; 0x54
 8001c0a:	089b      	lsrs	r3, r3, #2
 8001c0c:	f003 020f 	and.w	r2, r3, #15
 8001c10:	687b      	ldr	r3, [r7, #4]
 8001c12:	f8c3 23f8 	str.w	r2, [r3, #1016]	; 0x3f8
 8001c16:	2101      	movs	r1, #1
 8001c18:	6878      	ldr	r0, [r7, #4]
 8001c1a:	f006 f803 	bl	8007c24 <HAL_PCDEx_LPM_Callback>
 8001c1e:	e002      	b.n	8001c26 <HAL_PCD_IRQHandler+0x4b0>
 8001c20:	6878      	ldr	r0, [r7, #4]
 8001c22:	f005 fe13 	bl	800784c <HAL_PCD_SuspendCallback>
 8001c26:	687b      	ldr	r3, [r7, #4]
 8001c28:	681b      	ldr	r3, [r3, #0]
 8001c2a:	4618      	mov	r0, r3
 8001c2c:	f003 fd44 	bl	80056b8 <USB_ReadInterrupts>
 8001c30:	4603      	mov	r3, r0
 8001c32:	f403 5380 	and.w	r3, r3, #4096	; 0x1000
 8001c36:	f5b3 5f80 	cmp.w	r3, #4096	; 0x1000
 8001c3a:	f040 80c7 	bne.w	8001dcc <HAL_PCD_IRQHandler+0x656>
 8001c3e:	69fb      	ldr	r3, [r7, #28]
 8001c40:	f503 6300 	add.w	r3, r3, #2048	; 0x800
 8001c44:	685b      	ldr	r3, [r3, #4]
 8001c46:	69fa      	ldr	r2, [r7, #28]
 8001c48:	f502 6200 	add.w	r2, r2, #2048	; 0x800
 8001c4c:	f023 0301 	bic.w	r3, r3, #1
 8001c50:	6053      	str	r3, [r2, #4]
 8001c52:	687b      	ldr	r3, [r7, #4]
 8001c54:	681b      	ldr	r3, [r3, #0]
 8001c56:	2110      	movs	r1, #16
 8001c58:	4618      	mov	r0, r3
 8001c5a:	f002 fe17 	bl	800488c <USB_FlushTxFifo>
 8001c5e:	2300      	movs	r3, #0
 8001c60:	62fb      	str	r3, [r7, #44]	; 0x2c
 8001c62:	e056      	b.n	8001d12 <HAL_PCD_IRQHandler+0x59c>
 8001c64:	6afb      	ldr	r3, [r7, #44]	; 0x2c
 8001c66:	015a      	lsls	r2, r3, #5
 8001c68:	69fb      	ldr	r3, [r7, #28]
 8001c6a:	4413      	add	r3, r2
 8001c6c:	f503 6310 	add.w	r3, r3, #2304	; 0x900
 8001c70:	461a      	mov	r2, r3
 8001c72:	f64f 337f 	movw	r3, #64383	; 0xfb7f
 8001c76:	6093      	str	r3, [r2, #8]
 8001c78:	6afb      	ldr	r3, [r7, #44]	; 0x2c
 8001c7a:	015a      	lsls	r2, r3, #5
 8001c7c:	69fb      	ldr	r3, [r7, #28]
 8001c7e:	4413      	add	r3, r2
 8001c80:	f503 6310 	add.w	r3, r3, #2304	; 0x900
 8001c84:	681b      	ldr	r3, [r3, #0]
 8001c86:	6afa      	ldr	r2, [r7, #44]	; 0x2c
 8001c88:	0151      	lsls	r1, r2, #5
 8001c8a:	69fa      	ldr	r2, [r7, #28]
 8001c8c:	440a      	add	r2, r1
 8001c8e:	f502 6210 	add.w	r2, r2, #2304	; 0x900
 8001c92:	f423 1300 	bic.w	r3, r3, #2097152	; 0x200000
 8001c96:	6013      	str	r3, [r2, #0]
 8001c98:	6afb      	ldr	r3, [r7, #44]	; 0x2c
 8001c9a:	015a      	lsls	r2, r3, #5
 8001c9c:	69fb      	ldr	r3, [r7, #28]
 8001c9e:	4413      	add	r3, r2
 8001ca0:	f503 6310 	add.w	r3, r3, #2304	; 0x900
 8001ca4:	681b      	ldr	r3, [r3, #0]
 8001ca6:	6afa      	ldr	r2, [r7, #44]	; 0x2c
 8001ca8:	0151      	lsls	r1, r2, #5
 8001caa:	69fa      	ldr	r2, [r7, #28]
 8001cac:	440a      	add	r2, r1
 8001cae:	f502 6210 	add.w	r2, r2, #2304	; 0x900
 8001cb2:	f043 6300 	orr.w	r3, r3, #134217728	; 0x8000000
 8001cb6:	6013      	str	r3, [r2, #0]
 8001cb8:	6afb      	ldr	r3, [r7, #44]	; 0x2c
 8001cba:	015a      	lsls	r2, r3, #5
 8001cbc:	69fb      	ldr	r3, [r7, #28]
 8001cbe:	4413      	add	r3, r2
 8001cc0:	f503 6330 	add.w	r3, r3, #2816	; 0xb00
 8001cc4:	461a      	mov	r2, r3
 8001cc6:	f64f 337f 	movw	r3, #64383	; 0xfb7f
 8001cca:	6093      	str	r3, [r2, #8]
 8001ccc:	6afb      	ldr	r3, [r7, #44]	; 0x2c
 8001cce:	015a      	lsls	r2, r3, #5
 8001cd0:	69fb      	ldr	r3, [r7, #28]
 8001cd2:	4413      	add	r3, r2
 8001cd4:	f503 6330 	add.w	r3, r3, #2816	; 0xb00
 8001cd8:	681b      	ldr	r3, [r3, #0]
 8001cda:	6afa      	ldr	r2, [r7, #44]	; 0x2c
 8001cdc:	0151      	lsls	r1, r2, #5
 8001cde:	69fa      	ldr	r2, [r7, #28]
 8001ce0:	440a      	add	r2, r1
 8001ce2:	f502 6230 	add.w	r2, r2, #2816	; 0xb00
 8001ce6:	f423 1300 	bic.w	r3, r3, #2097152	; 0x200000
 8001cea:	6013      	str	r3, [r2, #0]
 8001cec:	6afb      	ldr	r3, [r7, #44]	; 0x2c
 8001cee:	015a      	lsls	r2, r3, #5
 8001cf0:	69fb      	ldr	r3, [r7, #28]
 8001cf2:	4413      	add	r3, r2
 8001cf4:	f503 6330 	add.w	r3, r3, #2816	; 0xb00
 8001cf8:	681b      	ldr	r3, [r3, #0]
 8001cfa:	6afa      	ldr	r2, [r7, #44]	; 0x2c
 8001cfc:	0151      	lsls	r1, r2, #5
 8001cfe:	69fa      	ldr	r2, [r7, #28]
 8001d00:	440a      	add	r2, r1
 8001d02:	f502 6230 	add.w	r2, r2, #2816	; 0xb00
 8001d06:	f043 6300 	orr.w	r3, r3, #134217728	; 0x8000000
 8001d0a:	6013      	str	r3, [r2, #0]
 8001d0c:	6afb      	ldr	r3, [r7, #44]	; 0x2c
 8001d0e:	3301      	adds	r3, #1
 8001d10:	62fb      	str	r3, [r7, #44]	; 0x2c
 8001d12:	687b      	ldr	r3, [r7, #4]
 8001d14:	685b      	ldr	r3, [r3, #4]
 8001d16:	6afa      	ldr	r2, [r7, #44]	; 0x2c
 8001d18:	429a      	cmp	r2, r3
 8001d1a:	d3a3      	bcc.n	8001c64 <HAL_PCD_IRQHandler+0x4ee>
 8001d1c:	69fb      	ldr	r3, [r7, #28]
 8001d1e:	f503 6300 	add.w	r3, r3, #2048	; 0x800
 8001d22:	69db      	ldr	r3, [r3, #28]
 8001d24:	69fa      	ldr	r2, [r7, #28]
 8001d26:	f502 6200 	add.w	r2, r2, #2048	; 0x800
 8001d2a:	f043 1301 	orr.w	r3, r3, #65537	; 0x10001
 8001d2e:	61d3      	str	r3, [r2, #28]
 8001d30:	687b      	ldr	r3, [r7, #4]
 8001d32:	6b1b      	ldr	r3, [r3, #48]	; 0x30
 8001d34:	2b00      	cmp	r3, #0
 8001d36:	d016      	beq.n	8001d66 <HAL_PCD_IRQHandler+0x5f0>
 8001d38:	69fb      	ldr	r3, [r7, #28]
 8001d3a:	f503 6300 	add.w	r3, r3, #2048	; 0x800
 8001d3e:	f8d3 3084 	ldr.w	r3, [r3, #132]	; 0x84
 8001d42:	69fa      	ldr	r2, [r7, #28]
 8001d44:	f502 6200 	add.w	r2, r2, #2048	; 0x800
 8001d48:	f043 030b 	orr.w	r3, r3, #11
 8001d4c:	f8c2 3084 	str.w	r3, [r2, #132]	; 0x84
 8001d50:	69fb      	ldr	r3, [r7, #28]
 8001d52:	f503 6300 	add.w	r3, r3, #2048	; 0x800
 8001d56:	6c5b      	ldr	r3, [r3, #68]	; 0x44
 8001d58:	69fa      	ldr	r2, [r7, #28]
 8001d5a:	f502 6200 	add.w	r2, r2, #2048	; 0x800
 8001d5e:	f043 030b 	orr.w	r3, r3, #11
 8001d62:	6453      	str	r3, [r2, #68]	; 0x44
 8001d64:	e015      	b.n	8001d92 <HAL_PCD_IRQHandler+0x61c>
 8001d66:	69fb      	ldr	r3, [r7, #28]
 8001d68:	f503 6300 	add.w	r3, r3, #2048	; 0x800
 8001d6c:	695a      	ldr	r2, [r3, #20]
 8001d6e:	69fb      	ldr	r3, [r7, #28]
 8001d70:	f503 6300 	add.w	r3, r3, #2048	; 0x800
 8001d74:	4619      	mov	r1, r3
 8001d76:	f242 032b 	movw	r3, #8235	; 0x202b
 8001d7a:	4313      	orrs	r3, r2
 8001d7c:	614b      	str	r3, [r1, #20]
 8001d7e:	69fb      	ldr	r3, [r7, #28]
 8001d80:	f503 6300 	add.w	r3, r3, #2048	; 0x800
 8001d84:	691b      	ldr	r3, [r3, #16]
 8001d86:	69fa      	ldr	r2, [r7, #28]
 8001d88:	f502 6200 	add.w	r2, r2, #2048	; 0x800
 8001d8c:	f043 030b 	orr.w	r3, r3, #11
 8001d90:	6113      	str	r3, [r2, #16]
 8001d92:	69fb      	ldr	r3, [r7, #28]
 8001d94:	f503 6300 	add.w	r3, r3, #2048	; 0x800
 8001d98:	681b      	ldr	r3, [r3, #0]
 8001d9a:	69fa      	ldr	r2, [r7, #28]
 8001d9c:	f502 6200 	add.w	r2, r2, #2048	; 0x800
 8001da0:	f423 63fe 	bic.w	r3, r3, #2032	; 0x7f0
 8001da4:	6013      	str	r3, [r2, #0]
 8001da6:	687b      	ldr	r3, [r7, #4]
 8001da8:	6818      	ldr	r0, [r3, #0]
 8001daa:	687b      	ldr	r3, [r7, #4]
 8001dac:	691b      	ldr	r3, [r3, #16]
 8001dae:	b2d9      	uxtb	r1, r3
 8001db0:	687b      	ldr	r3, [r7, #4]
 8001db2:	f503 7371 	add.w	r3, r3, #964	; 0x3c4
 8001db6:	461a      	mov	r2, r3
 8001db8:	f003 fd44 	bl	8005844 <USB_EP0_OutStart>
 8001dbc:	687b      	ldr	r3, [r7, #4]
 8001dbe:	681b      	ldr	r3, [r3, #0]
 8001dc0:	695a      	ldr	r2, [r3, #20]
 8001dc2:	687b      	ldr	r3, [r7, #4]
 8001dc4:	681b      	ldr	r3, [r3, #0]
 8001dc6:	f402 5280 	and.w	r2, r2, #4096	; 0x1000
 8001dca:	615a      	str	r2, [r3, #20]
 8001dcc:	687b      	ldr	r3, [r7, #4]
 8001dce:	681b      	ldr	r3, [r3, #0]
 8001dd0:	4618      	mov	r0, r3
 8001dd2:	f003 fc71 	bl	80056b8 <USB_ReadInterrupts>
 8001dd6:	4603      	mov	r3, r0
 8001dd8:	f403 5300 	and.w	r3, r3, #8192	; 0x2000
 8001ddc:	f5b3 5f00 	cmp.w	r3, #8192	; 0x2000
 8001de0:	d124      	bne.n	8001e2c <HAL_PCD_IRQHandler+0x6b6>
 8001de2:	687b      	ldr	r3, [r7, #4]
 8001de4:	681b      	ldr	r3, [r3, #0]
 8001de6:	4618      	mov	r0, r3
 8001de8:	f003 fd08 	bl	80057fc <USB_ActivateSetup>
 8001dec:	687b      	ldr	r3, [r7, #4]
 8001dee:	681b      	ldr	r3, [r3, #0]
 8001df0:	4618      	mov	r0, r3
 8001df2:	f002 fdac 	bl	800494e <USB_GetDevSpeed>
 8001df6:	4603      	mov	r3, r0
 8001df8:	461a      	mov	r2, r3
 8001dfa:	687b      	ldr	r3, [r7, #4]
 8001dfc:	60da      	str	r2, [r3, #12]
 8001dfe:	687b      	ldr	r3, [r7, #4]
 8001e00:	681c      	ldr	r4, [r3, #0]
 8001e02:	f001 f9db 	bl	80031bc <HAL_RCC_GetHCLKFreq>
 8001e06:	4601      	mov	r1, r0
 8001e08:	687b      	ldr	r3, [r7, #4]
 8001e0a:	68db      	ldr	r3, [r3, #12]
 8001e0c:	b2db      	uxtb	r3, r3
 8001e0e:	461a      	mov	r2, r3
 8001e10:	4620      	mov	r0, r4
 8001e12:	f002 fadf 	bl	80043d4 <USB_SetTurnaroundTime>
 8001e16:	6878      	ldr	r0, [r7, #4]
 8001e18:	f005 fcef 	bl	80077fa <HAL_PCD_ResetCallback>
 8001e1c:	687b      	ldr	r3, [r7, #4]
 8001e1e:	681b      	ldr	r3, [r3, #0]
 8001e20:	695a      	ldr	r2, [r3, #20]
 8001e22:	687b      	ldr	r3, [r7, #4]
 8001e24:	681b      	ldr	r3, [r3, #0]
 8001e26:	f402 5200 	and.w	r2, r2, #8192	; 0x2000
 8001e2a:	615a      	str	r2, [r3, #20]
 8001e2c:	687b      	ldr	r3, [r7, #4]
 8001e2e:	681b      	ldr	r3, [r3, #0]
 8001e30:	4618      	mov	r0, r3
 8001e32:	f003 fc41 	bl	80056b8 <USB_ReadInterrupts>
 8001e36:	4603      	mov	r3, r0
 8001e38:	f003 0308 	and.w	r3, r3, #8
 8001e3c:	2b08      	cmp	r3, #8
 8001e3e:	d10a      	bne.n	8001e56 <HAL_PCD_IRQHandler+0x6e0>
 8001e40:	6878      	ldr	r0, [r7, #4]
 8001e42:	f005 fccc 	bl	80077de <HAL_PCD_SOFCallback>
 8001e46:	687b      	ldr	r3, [r7, #4]
 8001e48:	681b      	ldr	r3, [r3, #0]
 8001e4a:	695a      	ldr	r2, [r3, #20]
 8001e4c:	687b      	ldr	r3, [r7, #4]
 8001e4e:	681b      	ldr	r3, [r3, #0]
 8001e50:	f002 0208 	and.w	r2, r2, #8
 8001e54:	615a      	str	r2, [r3, #20]
 8001e56:	687b      	ldr	r3, [r7, #4]
 8001e58:	681b      	ldr	r3, [r3, #0]
 8001e5a:	4618      	mov	r0, r3
 8001e5c:	f003 fc2c 	bl	80056b8 <USB_ReadInterrupts>
 8001e60:	4603      	mov	r3, r0
 8001e62:	f403 1380 	and.w	r3, r3, #1048576	; 0x100000
 8001e66:	f5b3 1f80 	cmp.w	r3, #1048576	; 0x100000
 8001e6a:	d10f      	bne.n	8001e8c <HAL_PCD_IRQHandler+0x716>
 8001e6c:	2300      	movs	r3, #0
 8001e6e:	627b      	str	r3, [r7, #36]	; 0x24
 8001e70:	6a7b      	ldr	r3, [r7, #36]	; 0x24
 8001e72:	b2db      	uxtb	r3, r3
 8001e74:	4619      	mov	r1, r3
 8001e76:	6878      	ldr	r0, [r7, #4]
 8001e78:	f005 fd2e 	bl	80078d8 <HAL_PCD_ISOINIncompleteCallback>
 8001e7c:	687b      	ldr	r3, [r7, #4]
 8001e7e:	681b      	ldr	r3, [r3, #0]
 8001e80:	695a      	ldr	r2, [r3, #20]
 8001e82:	687b      	ldr	r3, [r7, #4]
 8001e84:	681b      	ldr	r3, [r3, #0]
 8001e86:	f402 1280 	and.w	r2, r2, #1048576	; 0x100000
 8001e8a:	615a      	str	r2, [r3, #20]
 8001e8c:	687b      	ldr	r3, [r7, #4]
 8001e8e:	681b      	ldr	r3, [r3, #0]
 8001e90:	4618      	mov	r0, r3
 8001e92:	f003 fc11 	bl	80056b8 <USB_ReadInterrupts>
 8001e96:	4603      	mov	r3, r0
 8001e98:	f403 1300 	and.w	r3, r3, #2097152	; 0x200000
 8001e9c:	f5b3 1f00 	cmp.w	r3, #2097152	; 0x200000
 8001ea0:	d10f      	bne.n	8001ec2 <HAL_PCD_IRQHandler+0x74c>
 8001ea2:	2300      	movs	r3, #0
 8001ea4:	627b      	str	r3, [r7, #36]	; 0x24
 8001ea6:	6a7b      	ldr	r3, [r7, #36]	; 0x24
 8001ea8:	b2db      	uxtb	r3, r3
 8001eaa:	4619      	mov	r1, r3
 8001eac:	6878      	ldr	r0, [r7, #4]
 8001eae:	f005 fd01 	bl	80078b4 <HAL_PCD_ISOOUTIncompleteCallback>
 8001eb2:	687b      	ldr	r3, [r7, #4]
 8001eb4:	681b      	ldr	r3, [r3, #0]
 8001eb6:	695a      	ldr	r2, [r3, #20]
 8001eb8:	687b      	ldr	r3, [r7, #4]
 8001eba:	681b      	ldr	r3, [r3, #0]
 8001ebc:	f402 1200 	and.w	r2, r2, #2097152	; 0x200000
 8001ec0:	615a      	str	r2, [r3, #20]
 8001ec2:	687b      	ldr	r3, [r7, #4]
 8001ec4:	681b      	ldr	r3, [r3, #0]
 8001ec6:	4618      	mov	r0, r3
 8001ec8:	f003 fbf6 	bl	80056b8 <USB_ReadInterrupts>
 8001ecc:	4603      	mov	r3, r0
 8001ece:	f003 4380 	and.w	r3, r3, #1073741824	; 0x40000000
 8001ed2:	f1b3 4f80 	cmp.w	r3, #1073741824	; 0x40000000
 8001ed6:	d10a      	bne.n	8001eee <HAL_PCD_IRQHandler+0x778>
 8001ed8:	6878      	ldr	r0, [r7, #4]
 8001eda:	f005 fd0f 	bl	80078fc <HAL_PCD_ConnectCallback>
 8001ede:	687b      	ldr	r3, [r7, #4]
 8001ee0:	681b      	ldr	r3, [r3, #0]
 8001ee2:	695a      	ldr	r2, [r3, #20]
 8001ee4:	687b      	ldr	r3, [r7, #4]
 8001ee6:	681b      	ldr	r3, [r3, #0]
 8001ee8:	f002 4280 	and.w	r2, r2, #1073741824	; 0x40000000
 8001eec:	615a      	str	r2, [r3, #20]
 8001eee:	687b      	ldr	r3, [r7, #4]
 8001ef0:	681b      	ldr	r3, [r3, #0]
 8001ef2:	4618      	mov	r0, r3
 8001ef4:	f003 fbe0 	bl	80056b8 <USB_ReadInterrupts>
 8001ef8:	4603      	mov	r3, r0
 8001efa:	f003 0304 	and.w	r3, r3, #4
 8001efe:	2b04      	cmp	r3, #4
 8001f00:	d115      	bne.n	8001f2e <HAL_PCD_IRQHandler+0x7b8>
 8001f02:	687b      	ldr	r3, [r7, #4]
 8001f04:	681b      	ldr	r3, [r3, #0]
 8001f06:	685b      	ldr	r3, [r3, #4]
 8001f08:	61bb      	str	r3, [r7, #24]
 8001f0a:	69bb      	ldr	r3, [r7, #24]
 8001f0c:	f003 0304 	and.w	r3, r3, #4
 8001f10:	2b00      	cmp	r3, #0
 8001f12:	d002      	beq.n	8001f1a <HAL_PCD_IRQHandler+0x7a4>
 8001f14:	6878      	ldr	r0, [r7, #4]
 8001f16:	f005 fcff 	bl	8007918 <HAL_PCD_DisconnectCallback>
 8001f1a:	687b      	ldr	r3, [r7, #4]
 8001f1c:	681b      	ldr	r3, [r3, #0]
 8001f1e:	6859      	ldr	r1, [r3, #4]
 8001f20:	687b      	ldr	r3, [r7, #4]
 8001f22:	681b      	ldr	r3, [r3, #0]
 8001f24:	69ba      	ldr	r2, [r7, #24]
 8001f26:	430a      	orrs	r2, r1
 8001f28:	605a      	str	r2, [r3, #4]
 8001f2a:	e000      	b.n	8001f2e <HAL_PCD_IRQHandler+0x7b8>
 8001f2c:	bf00      	nop
 8001f2e:	3734      	adds	r7, #52	; 0x34
 8001f30:	46bd      	mov	sp, r7
 8001f32:	bd90      	pop	{r4, r7, pc}

08001f34 <HAL_PCD_SetAddress>:
 8001f34:	b580      	push	{r7, lr}
 8001f36:	b082      	sub	sp, #8
 8001f38:	af00      	add	r7, sp, #0
 8001f3a:	6078      	str	r0, [r7, #4]
 8001f3c:	460b      	mov	r3, r1
 8001f3e:	70fb      	strb	r3, [r7, #3]
 8001f40:	687b      	ldr	r3, [r7, #4]
 8001f42:	f893 33bc 	ldrb.w	r3, [r3, #956]	; 0x3bc
 8001f46:	2b01      	cmp	r3, #1
 8001f48:	d101      	bne.n	8001f4e <HAL_PCD_SetAddress+0x1a>
 8001f4a:	2302      	movs	r3, #2
 8001f4c:	e013      	b.n	8001f76 <HAL_PCD_SetAddress+0x42>
 8001f4e:	687b      	ldr	r3, [r7, #4]
 8001f50:	2201      	movs	r2, #1
 8001f52:	f883 23bc 	strb.w	r2, [r3, #956]	; 0x3bc
 8001f56:	687b      	ldr	r3, [r7, #4]
 8001f58:	78fa      	ldrb	r2, [r7, #3]
 8001f5a:	f883 2038 	strb.w	r2, [r3, #56]	; 0x38
 8001f5e:	687b      	ldr	r3, [r7, #4]
 8001f60:	681b      	ldr	r3, [r3, #0]
 8001f62:	78fa      	ldrb	r2, [r7, #3]
 8001f64:	4611      	mov	r1, r2
 8001f66:	4618      	mov	r0, r3
 8001f68:	f003 fb50 	bl	800560c <USB_SetDevAddress>
 8001f6c:	687b      	ldr	r3, [r7, #4]
 8001f6e:	2200      	movs	r2, #0
 8001f70:	f883 23bc 	strb.w	r2, [r3, #956]	; 0x3bc
 8001f74:	2300      	movs	r3, #0
 8001f76:	4618      	mov	r0, r3
 8001f78:	3708      	adds	r7, #8
 8001f7a:	46bd      	mov	sp, r7
 8001f7c:	bd80      	pop	{r7, pc}

08001f7e <HAL_PCD_EP_Open>:
 8001f7e:	b580      	push	{r7, lr}
 8001f80:	b084      	sub	sp, #16
 8001f82:	af00      	add	r7, sp, #0
 8001f84:	6078      	str	r0, [r7, #4]
 8001f86:	4608      	mov	r0, r1
 8001f88:	4611      	mov	r1, r2
 8001f8a:	461a      	mov	r2, r3
 8001f8c:	4603      	mov	r3, r0
 8001f8e:	70fb      	strb	r3, [r7, #3]
 8001f90:	460b      	mov	r3, r1
 8001f92:	803b      	strh	r3, [r7, #0]
 8001f94:	4613      	mov	r3, r2
 8001f96:	70bb      	strb	r3, [r7, #2]
 8001f98:	2300      	movs	r3, #0
 8001f9a:	72fb      	strb	r3, [r7, #11]
 8001f9c:	f997 3003 	ldrsb.w	r3, [r7, #3]
 8001fa0:	2b00      	cmp	r3, #0
 8001fa2:	da0f      	bge.n	8001fc4 <HAL_PCD_EP_Open+0x46>
 8001fa4:	78fb      	ldrb	r3, [r7, #3]
 8001fa6:	f003 020f 	and.w	r2, r3, #15
 8001faa:	4613      	mov	r3, r2
 8001fac:	00db      	lsls	r3, r3, #3
 8001fae:	1a9b      	subs	r3, r3, r2
 8001fb0:	009b      	lsls	r3, r3, #2
 8001fb2:	3338      	adds	r3, #56	; 0x38
 8001fb4:	687a      	ldr	r2, [r7, #4]
 8001fb6:	4413      	add	r3, r2
 8001fb8:	3304      	adds	r3, #4
 8001fba:	60fb      	str	r3, [r7, #12]
 8001fbc:	68fb      	ldr	r3, [r7, #12]
 8001fbe:	2201      	movs	r2, #1
 8001fc0:	705a      	strb	r2, [r3, #1]
 8001fc2:	e00f      	b.n	8001fe4 <HAL_PCD_EP_Open+0x66>
 8001fc4:	78fb      	ldrb	r3, [r7, #3]
 8001fc6:	f003 020f 	and.w	r2, r3, #15
 8001fca:	4613      	mov	r3, r2
 8001fcc:	00db      	lsls	r3, r3, #3
 8001fce:	1a9b      	subs	r3, r3, r2
 8001fd0:	009b      	lsls	r3, r3, #2
 8001fd2:	f503 73fc 	add.w	r3, r3, #504	; 0x1f8
 8001fd6:	687a      	ldr	r2, [r7, #4]
 8001fd8:	4413      	add	r3, r2
 8001fda:	3304      	adds	r3, #4
 8001fdc:	60fb      	str	r3, [r7, #12]
 8001fde:	68fb      	ldr	r3, [r7, #12]
 8001fe0:	2200      	movs	r2, #0
 8001fe2:	705a      	strb	r2, [r3, #1]
 8001fe4:	78fb      	ldrb	r3, [r7, #3]
 8001fe6:	f003 030f 	and.w	r3, r3, #15
 8001fea:	b2da      	uxtb	r2, r3
 8001fec:	68fb      	ldr	r3, [r7, #12]
 8001fee:	701a      	strb	r2, [r3, #0]
 8001ff0:	883a      	ldrh	r2, [r7, #0]
 8001ff2:	68fb      	ldr	r3, [r7, #12]
 8001ff4:	609a      	str	r2, [r3, #8]
 8001ff6:	68fb      	ldr	r3, [r7, #12]
 8001ff8:	78ba      	ldrb	r2, [r7, #2]
 8001ffa:	70da      	strb	r2, [r3, #3]
 8001ffc:	68fb      	ldr	r3, [r7, #12]
 8001ffe:	785b      	ldrb	r3, [r3, #1]
 8002000:	2b00      	cmp	r3, #0
 8002002:	d004      	beq.n	800200e <HAL_PCD_EP_Open+0x90>
 8002004:	68fb      	ldr	r3, [r7, #12]
 8002006:	781b      	ldrb	r3, [r3, #0]
 8002008:	b29a      	uxth	r2, r3
 800200a:	68fb      	ldr	r3, [r7, #12]
 800200c:	80da      	strh	r2, [r3, #6]
 800200e:	78bb      	ldrb	r3, [r7, #2]
 8002010:	2b02      	cmp	r3, #2
 8002012:	d102      	bne.n	800201a <HAL_PCD_EP_Open+0x9c>
 8002014:	68fb      	ldr	r3, [r7, #12]
 8002016:	2200      	movs	r2, #0
 8002018:	711a      	strb	r2, [r3, #4]
 800201a:	687b      	ldr	r3, [r7, #4]
 800201c:	f893 33bc 	ldrb.w	r3, [r3, #956]	; 0x3bc
 8002020:	2b01      	cmp	r3, #1
 8002022:	d101      	bne.n	8002028 <HAL_PCD_EP_Open+0xaa>
 8002024:	2302      	movs	r3, #2
 8002026:	e00e      	b.n	8002046 <HAL_PCD_EP_Open+0xc8>
 8002028:	687b      	ldr	r3, [r7, #4]
 800202a:	2201      	movs	r2, #1
 800202c:	f883 23bc 	strb.w	r2, [r3, #956]	; 0x3bc
 8002030:	687b      	ldr	r3, [r7, #4]
 8002032:	681b      	ldr	r3, [r3, #0]
 8002034:	68f9      	ldr	r1, [r7, #12]
 8002036:	4618      	mov	r0, r3
 8002038:	f002 fcae 	bl	8004998 <USB_ActivateEndpoint>
 800203c:	687b      	ldr	r3, [r7, #4]
 800203e:	2200      	movs	r2, #0
 8002040:	f883 23bc 	strb.w	r2, [r3, #956]	; 0x3bc
 8002044:	7afb      	ldrb	r3, [r7, #11]
 8002046:	4618      	mov	r0, r3
 8002048:	3710      	adds	r7, #16
 800204a:	46bd      	mov	sp, r7
 800204c:	bd80      	pop	{r7, pc}

0800204e <HAL_PCD_EP_Close>:
 800204e:	b580      	push	{r7, lr}
 8002050:	b084      	sub	sp, #16
 8002052:	af00      	add	r7, sp, #0
 8002054:	6078      	str	r0, [r7, #4]
 8002056:	460b      	mov	r3, r1
 8002058:	70fb      	strb	r3, [r7, #3]
 800205a:	f997 3003 	ldrsb.w	r3, [r7, #3]
 800205e:	2b00      	cmp	r3, #0
 8002060:	da0f      	bge.n	8002082 <HAL_PCD_EP_Close+0x34>
 8002062:	78fb      	ldrb	r3, [r7, #3]
 8002064:	f003 020f 	and.w	r2, r3, #15
 8002068:	4613      	mov	r3, r2
 800206a:	00db      	lsls	r3, r3, #3
 800206c:	1a9b      	subs	r3, r3, r2
 800206e:	009b      	lsls	r3, r3, #2
 8002070:	3338      	adds	r3, #56	; 0x38
 8002072:	687a      	ldr	r2, [r7, #4]
 8002074:	4413      	add	r3, r2
 8002076:	3304      	adds	r3, #4
 8002078:	60fb      	str	r3, [r7, #12]
 800207a:	68fb      	ldr	r3, [r7, #12]
 800207c:	2201      	movs	r2, #1
 800207e:	705a      	strb	r2, [r3, #1]
 8002080:	e00f      	b.n	80020a2 <HAL_PCD_EP_Close+0x54>
 8002082:	78fb      	ldrb	r3, [r7, #3]
 8002084:	f003 020f 	and.w	r2, r3, #15
 8002088:	4613      	mov	r3, r2
 800208a:	00db      	lsls	r3, r3, #3
 800208c:	1a9b      	subs	r3, r3, r2
 800208e:	009b      	lsls	r3, r3, #2
 8002090:	f503 73fc 	add.w	r3, r3, #504	; 0x1f8
 8002094:	687a      	ldr	r2, [r7, #4]
 8002096:	4413      	add	r3, r2
 8002098:	3304      	adds	r3, #4
 800209a:	60fb      	str	r3, [r7, #12]
 800209c:	68fb      	ldr	r3, [r7, #12]
 800209e:	2200      	movs	r2, #0
 80020a0:	705a      	strb	r2, [r3, #1]
 80020a2:	78fb      	ldrb	r3, [r7, #3]
 80020a4:	f003 030f 	and.w	r3, r3, #15
 80020a8:	b2da      	uxtb	r2, r3
 80020aa:	68fb      	ldr	r3, [r7, #12]
 80020ac:	701a      	strb	r2, [r3, #0]
 80020ae:	687b      	ldr	r3, [r7, #4]
 80020b0:	f893 33bc 	ldrb.w	r3, [r3, #956]	; 0x3bc
 80020b4:	2b01      	cmp	r3, #1
 80020b6:	d101      	bne.n	80020bc <HAL_PCD_EP_Close+0x6e>
 80020b8:	2302      	movs	r3, #2
 80020ba:	e00e      	b.n	80020da <HAL_PCD_EP_Close+0x8c>
 80020bc:	687b      	ldr	r3, [r7, #4]
 80020be:	2201      	movs	r2, #1
 80020c0:	f883 23bc 	strb.w	r2, [r3, #956]	; 0x3bc
 80020c4:	687b      	ldr	r3, [r7, #4]
 80020c6:	681b      	ldr	r3, [r3, #0]
 80020c8:	68f9      	ldr	r1, [r7, #12]
 80020ca:	4618      	mov	r0, r3
 80020cc:	f002 fcec 	bl	8004aa8 <USB_DeactivateEndpoint>
 80020d0:	687b      	ldr	r3, [r7, #4]
 80020d2:	2200      	movs	r2, #0
 80020d4:	f883 23bc 	strb.w	r2, [r3, #956]	; 0x3bc
 80020d8:	2300      	movs	r3, #0
 80020da:	4618      	mov	r0, r3
 80020dc:	3710      	adds	r7, #16
 80020de:	46bd      	mov	sp, r7
 80020e0:	bd80      	pop	{r7, pc}

080020e2 <HAL_PCD_EP_Receive>:
 80020e2:	b580      	push	{r7, lr}
 80020e4:	b086      	sub	sp, #24
 80020e6:	af00      	add	r7, sp, #0
 80020e8:	60f8      	str	r0, [r7, #12]
 80020ea:	607a      	str	r2, [r7, #4]
 80020ec:	603b      	str	r3, [r7, #0]
 80020ee:	460b      	mov	r3, r1
 80020f0:	72fb      	strb	r3, [r7, #11]
 80020f2:	7afb      	ldrb	r3, [r7, #11]
 80020f4:	f003 020f 	and.w	r2, r3, #15
 80020f8:	4613      	mov	r3, r2
 80020fa:	00db      	lsls	r3, r3, #3
 80020fc:	1a9b      	subs	r3, r3, r2
 80020fe:	009b      	lsls	r3, r3, #2
 8002100:	f503 73fc 	add.w	r3, r3, #504	; 0x1f8
 8002104:	68fa      	ldr	r2, [r7, #12]
 8002106:	4413      	add	r3, r2
 8002108:	3304      	adds	r3, #4
 800210a:	617b      	str	r3, [r7, #20]
 800210c:	697b      	ldr	r3, [r7, #20]
 800210e:	687a      	ldr	r2, [r7, #4]
 8002110:	60da      	str	r2, [r3, #12]
 8002112:	697b      	ldr	r3, [r7, #20]
 8002114:	683a      	ldr	r2, [r7, #0]
 8002116:	615a      	str	r2, [r3, #20]
 8002118:	697b      	ldr	r3, [r7, #20]
 800211a:	2200      	movs	r2, #0
 800211c:	619a      	str	r2, [r3, #24]
 800211e:	697b      	ldr	r3, [r7, #20]
 8002120:	2200      	movs	r2, #0
 8002122:	705a      	strb	r2, [r3, #1]
 8002124:	7afb      	ldrb	r3, [r7, #11]
 8002126:	f003 030f 	and.w	r3, r3, #15
 800212a:	b2da      	uxtb	r2, r3
 800212c:	697b      	ldr	r3, [r7, #20]
 800212e:	701a      	strb	r2, [r3, #0]
 8002130:	68fb      	ldr	r3, [r7, #12]
 8002132:	691b      	ldr	r3, [r3, #16]
 8002134:	2b01      	cmp	r3, #1
 8002136:	d102      	bne.n	800213e <HAL_PCD_EP_Receive+0x5c>
 8002138:	687a      	ldr	r2, [r7, #4]
 800213a:	697b      	ldr	r3, [r7, #20]
 800213c:	611a      	str	r2, [r3, #16]
 800213e:	7afb      	ldrb	r3, [r7, #11]
 8002140:	f003 030f 	and.w	r3, r3, #15
 8002144:	2b00      	cmp	r3, #0
 8002146:	d109      	bne.n	800215c <HAL_PCD_EP_Receive+0x7a>
 8002148:	68fb      	ldr	r3, [r7, #12]
 800214a:	6818      	ldr	r0, [r3, #0]
 800214c:	68fb      	ldr	r3, [r7, #12]
 800214e:	691b      	ldr	r3, [r3, #16]
 8002150:	b2db      	uxtb	r3, r3
 8002152:	461a      	mov	r2, r3
 8002154:	6979      	ldr	r1, [r7, #20]
 8002156:	f002 ffcf 	bl	80050f8 <USB_EP0StartXfer>
 800215a:	e008      	b.n	800216e <HAL_PCD_EP_Receive+0x8c>
 800215c:	68fb      	ldr	r3, [r7, #12]
 800215e:	6818      	ldr	r0, [r3, #0]
 8002160:	68fb      	ldr	r3, [r7, #12]
 8002162:	691b      	ldr	r3, [r3, #16]
 8002164:	b2db      	uxtb	r3, r3
 8002166:	461a      	mov	r2, r3
 8002168:	6979      	ldr	r1, [r7, #20]
 800216a:	f002 fd79 	bl	8004c60 <USB_EPStartXfer>
 800216e:	2300      	movs	r3, #0
 8002170:	4618      	mov	r0, r3
 8002172:	3718      	adds	r7, #24
 8002174:	46bd      	mov	sp, r7
 8002176:	bd80      	pop	{r7, pc}

08002178 <HAL_PCD_EP_Transmit>:
 8002178:	b580      	push	{r7, lr}
 800217a:	b086      	sub	sp, #24
 800217c:	af00      	add	r7, sp, #0
 800217e:	60f8      	str	r0, [r7, #12]
 8002180:	607a      	str	r2, [r7, #4]
 8002182:	603b      	str	r3, [r7, #0]
 8002184:	460b      	mov	r3, r1
 8002186:	72fb      	strb	r3, [r7, #11]
 8002188:	7afb      	ldrb	r3, [r7, #11]
 800218a:	f003 020f 	and.w	r2, r3, #15
 800218e:	4613      	mov	r3, r2
 8002190:	00db      	lsls	r3, r3, #3
 8002192:	1a9b      	subs	r3, r3, r2
 8002194:	009b      	lsls	r3, r3, #2
 8002196:	3338      	adds	r3, #56	; 0x38
 8002198:	68fa      	ldr	r2, [r7, #12]
 800219a:	4413      	add	r3, r2
 800219c:	3304      	adds	r3, #4
 800219e:	617b      	str	r3, [r7, #20]
 80021a0:	697b      	ldr	r3, [r7, #20]
 80021a2:	687a      	ldr	r2, [r7, #4]
 80021a4:	60da      	str	r2, [r3, #12]
 80021a6:	697b      	ldr	r3, [r7, #20]
 80021a8:	683a      	ldr	r2, [r7, #0]
 80021aa:	615a      	str	r2, [r3, #20]
 80021ac:	697b      	ldr	r3, [r7, #20]
 80021ae:	2200      	movs	r2, #0
 80021b0:	619a      	str	r2, [r3, #24]
 80021b2:	697b      	ldr	r3, [r7, #20]
 80021b4:	2201      	movs	r2, #1
 80021b6:	705a      	strb	r2, [r3, #1]
 80021b8:	7afb      	ldrb	r3, [r7, #11]
 80021ba:	f003 030f 	and.w	r3, r3, #15
 80021be:	b2da      	uxtb	r2, r3
 80021c0:	697b      	ldr	r3, [r7, #20]
 80021c2:	701a      	strb	r2, [r3, #0]
 80021c4:	68fb      	ldr	r3, [r7, #12]
 80021c6:	691b      	ldr	r3, [r3, #16]
 80021c8:	2b01      	cmp	r3, #1
 80021ca:	d102      	bne.n	80021d2 <HAL_PCD_EP_Transmit+0x5a>
 80021cc:	687a      	ldr	r2, [r7, #4]
 80021ce:	697b      	ldr	r3, [r7, #20]
 80021d0:	611a      	str	r2, [r3, #16]
 80021d2:	7afb      	ldrb	r3, [r7, #11]
 80021d4:	f003 030f 	and.w	r3, r3, #15
 80021d8:	2b00      	cmp	r3, #0
 80021da:	d109      	bne.n	80021f0 <HAL_PCD_EP_Transmit+0x78>
 80021dc:	68fb      	ldr	r3, [r7, #12]
 80021de:	6818      	ldr	r0, [r3, #0]
 80021e0:	68fb      	ldr	r3, [r7, #12]
 80021e2:	691b      	ldr	r3, [r3, #16]
 80021e4:	b2db      	uxtb	r3, r3
 80021e6:	461a      	mov	r2, r3
 80021e8:	6979      	ldr	r1, [r7, #20]
 80021ea:	f002 ff85 	bl	80050f8 <USB_EP0StartXfer>
 80021ee:	e008      	b.n	8002202 <HAL_PCD_EP_Transmit+0x8a>
 80021f0:	68fb      	ldr	r3, [r7, #12]
 80021f2:	6818      	ldr	r0, [r3, #0]
 80021f4:	68fb      	ldr	r3, [r7, #12]
 80021f6:	691b      	ldr	r3, [r3, #16]
 80021f8:	b2db      	uxtb	r3, r3
 80021fa:	461a      	mov	r2, r3
 80021fc:	6979      	ldr	r1, [r7, #20]
 80021fe:	f002 fd2f 	bl	8004c60 <USB_EPStartXfer>
 8002202:	2300      	movs	r3, #0
 8002204:	4618      	mov	r0, r3
 8002206:	3718      	adds	r7, #24
 8002208:	46bd      	mov	sp, r7
 800220a:	bd80      	pop	{r7, pc}

0800220c <HAL_PCD_EP_SetStall>:
 800220c:	b580      	push	{r7, lr}
 800220e:	b084      	sub	sp, #16
 8002210:	af00      	add	r7, sp, #0
 8002212:	6078      	str	r0, [r7, #4]
 8002214:	460b      	mov	r3, r1
 8002216:	70fb      	strb	r3, [r7, #3]
 8002218:	78fb      	ldrb	r3, [r7, #3]
 800221a:	f003 020f 	and.w	r2, r3, #15
 800221e:	687b      	ldr	r3, [r7, #4]
 8002220:	685b      	ldr	r3, [r3, #4]
 8002222:	429a      	cmp	r2, r3
 8002224:	d901      	bls.n	800222a <HAL_PCD_EP_SetStall+0x1e>
 8002226:	2301      	movs	r3, #1
 8002228:	e050      	b.n	80022cc <HAL_PCD_EP_SetStall+0xc0>
 800222a:	f997 3003 	ldrsb.w	r3, [r7, #3]
 800222e:	2b00      	cmp	r3, #0
 8002230:	da0f      	bge.n	8002252 <HAL_PCD_EP_SetStall+0x46>
 8002232:	78fb      	ldrb	r3, [r7, #3]
 8002234:	f003 020f 	and.w	r2, r3, #15
 8002238:	4613      	mov	r3, r2
 800223a:	00db      	lsls	r3, r3, #3
 800223c:	1a9b      	subs	r3, r3, r2
 800223e:	009b      	lsls	r3, r3, #2
 8002240:	3338      	adds	r3, #56	; 0x38
 8002242:	687a      	ldr	r2, [r7, #4]
 8002244:	4413      	add	r3, r2
 8002246:	3304      	adds	r3, #4
 8002248:	60fb      	str	r3, [r7, #12]
 800224a:	68fb      	ldr	r3, [r7, #12]
 800224c:	2201      	movs	r2, #1
 800224e:	705a      	strb	r2, [r3, #1]
 8002250:	e00d      	b.n	800226e <HAL_PCD_EP_SetStall+0x62>
 8002252:	78fa      	ldrb	r2, [r7, #3]
 8002254:	4613      	mov	r3, r2
 8002256:	00db      	lsls	r3, r3, #3
 8002258:	1a9b      	subs	r3, r3, r2
 800225a:	009b      	lsls	r3, r3, #2
 800225c:	f503 73fc 	add.w	r3, r3, #504	; 0x1f8
 8002260:	687a      	ldr	r2, [r7, #4]
 8002262:	4413      	add	r3, r2
 8002264:	3304      	adds	r3, #4
 8002266:	60fb      	str	r3, [r7, #12]
 8002268:	68fb      	ldr	r3, [r7, #12]
 800226a:	2200      	movs	r2, #0
 800226c:	705a      	strb	r2, [r3, #1]
 800226e:	68fb      	ldr	r3, [r7, #12]
 8002270:	2201      	movs	r2, #1
 8002272:	709a      	strb	r2, [r3, #2]
 8002274:	78fb      	ldrb	r3, [r7, #3]
 8002276:	f003 030f 	and.w	r3, r3, #15
 800227a:	b2da      	uxtb	r2, r3
 800227c:	68fb      	ldr	r3, [r7, #12]
 800227e:	701a      	strb	r2, [r3, #0]
 8002280:	687b      	ldr	r3, [r7, #4]
 8002282:	f893 33bc 	ldrb.w	r3, [r3, #956]	; 0x3bc
 8002286:	2b01      	cmp	r3, #1
 8002288:	d101      	bne.n	800228e <HAL_PCD_EP_SetStall+0x82>
 800228a:	2302      	movs	r3, #2
 800228c:	e01e      	b.n	80022cc <HAL_PCD_EP_SetStall+0xc0>
 800228e:	687b      	ldr	r3, [r7, #4]
 8002290:	2201      	movs	r2, #1
 8002292:	f883 23bc 	strb.w	r2, [r3, #956]	; 0x3bc
 8002296:	687b      	ldr	r3, [r7, #4]
 8002298:	681b      	ldr	r3, [r3, #0]
 800229a:	68f9      	ldr	r1, [r7, #12]
 800229c:	4618      	mov	r0, r3
 800229e:	f003 f8e1 	bl	8005464 <USB_EPSetStall>
 80022a2:	78fb      	ldrb	r3, [r7, #3]
 80022a4:	f003 030f 	and.w	r3, r3, #15
 80022a8:	2b00      	cmp	r3, #0
 80022aa:	d10a      	bne.n	80022c2 <HAL_PCD_EP_SetStall+0xb6>
 80022ac:	687b      	ldr	r3, [r7, #4]
 80022ae:	6818      	ldr	r0, [r3, #0]
 80022b0:	687b      	ldr	r3, [r7, #4]
 80022b2:	691b      	ldr	r3, [r3, #16]
 80022b4:	b2d9      	uxtb	r1, r3
 80022b6:	687b      	ldr	r3, [r7, #4]
 80022b8:	f503 7371 	add.w	r3, r3, #964	; 0x3c4
 80022bc:	461a      	mov	r2, r3
 80022be:	f003 fac1 	bl	8005844 <USB_EP0_OutStart>
 80022c2:	687b      	ldr	r3, [r7, #4]
 80022c4:	2200      	movs	r2, #0
 80022c6:	f883 23bc 	strb.w	r2, [r3, #956]	; 0x3bc
 80022ca:	2300      	movs	r3, #0
 80022cc:	4618      	mov	r0, r3
 80022ce:	3710      	adds	r7, #16
 80022d0:	46bd      	mov	sp, r7
 80022d2:	bd80      	pop	{r7, pc}

080022d4 <HAL_PCD_EP_ClrStall>:
 80022d4:	b580      	push	{r7, lr}
 80022d6:	b084      	sub	sp, #16
 80022d8:	af00      	add	r7, sp, #0
 80022da:	6078      	str	r0, [r7, #4]
 80022dc:	460b      	mov	r3, r1
 80022de:	70fb      	strb	r3, [r7, #3]
 80022e0:	78fb      	ldrb	r3, [r7, #3]
 80022e2:	f003 020f 	and.w	r2, r3, #15
 80022e6:	687b      	ldr	r3, [r7, #4]
 80022e8:	685b      	ldr	r3, [r3, #4]
 80022ea:	429a      	cmp	r2, r3
 80022ec:	d901      	bls.n	80022f2 <HAL_PCD_EP_ClrStall+0x1e>
 80022ee:	2301      	movs	r3, #1
 80022f0:	e042      	b.n	8002378 <HAL_PCD_EP_ClrStall+0xa4>
 80022f2:	f997 3003 	ldrsb.w	r3, [r7, #3]
 80022f6:	2b00      	cmp	r3, #0
 80022f8:	da0f      	bge.n	800231a <HAL_PCD_EP_ClrStall+0x46>
 80022fa:	78fb      	ldrb	r3, [r7, #3]
 80022fc:	f003 020f 	and.w	r2, r3, #15
 8002300:	4613      	mov	r3, r2
 8002302:	00db      	lsls	r3, r3, #3
 8002304:	1a9b      	subs	r3, r3, r2
 8002306:	009b      	lsls	r3, r3, #2
 8002308:	3338      	adds	r3, #56	; 0x38
 800230a:	687a      	ldr	r2, [r7, #4]
 800230c:	4413      	add	r3, r2
 800230e:	3304      	adds	r3, #4
 8002310:	60fb      	str	r3, [r7, #12]
 8002312:	68fb      	ldr	r3, [r7, #12]
 8002314:	2201      	movs	r2, #1
 8002316:	705a      	strb	r2, [r3, #1]
 8002318:	e00f      	b.n	800233a <HAL_PCD_EP_ClrStall+0x66>
 800231a:	78fb      	ldrb	r3, [r7, #3]
 800231c:	f003 020f 	and.w	r2, r3, #15
 8002320:	4613      	mov	r3, r2
 8002322:	00db      	lsls	r3, r3, #3
 8002324:	1a9b      	subs	r3, r3, r2
 8002326:	009b      	lsls	r3, r3, #2
 8002328:	f503 73fc 	add.w	r3, r3, #504	; 0x1f8
 800232c:	687a      	ldr	r2, [r7, #4]
 800232e:	4413      	add	r3, r2
 8002330:	3304      	adds	r3, #4
 8002332:	60fb      	str	r3, [r7, #12]
 8002334:	68fb      	ldr	r3, [r7, #12]
 8002336:	2200      	movs	r2, #0
 8002338:	705a      	strb	r2, [r3, #1]
 800233a:	68fb      	ldr	r3, [r7, #12]
 800233c:	2200      	movs	r2, #0
 800233e:	709a      	strb	r2, [r3, #2]
 8002340:	78fb      	ldrb	r3, [r7, #3]
 8002342:	f003 030f 	and.w	r3, r3, #15
 8002346:	b2da      	uxtb	r2, r3
 8002348:	68fb      	ldr	r3, [r7, #12]
 800234a:	701a      	strb	r2, [r3, #0]
 800234c:	687b      	ldr	r3, [r7, #4]
 800234e:	f893 33bc 	ldrb.w	r3, [r3, #956]	; 0x3bc
 8002352:	2b01      	cmp	r3, #1
 8002354:	d101      	bne.n	800235a <HAL_PCD_EP_ClrStall+0x86>
 8002356:	2302      	movs	r3, #2
 8002358:	e00e      	b.n	8002378 <HAL_PCD_EP_ClrStall+0xa4>
 800235a:	687b      	ldr	r3, [r7, #4]
 800235c:	2201      	movs	r2, #1
 800235e:	f883 23bc 	strb.w	r2, [r3, #956]	; 0x3bc
 8002362:	687b      	ldr	r3, [r7, #4]
 8002364:	681b      	ldr	r3, [r3, #0]
 8002366:	68f9      	ldr	r1, [r7, #12]
 8002368:	4618      	mov	r0, r3
 800236a:	f003 f8e9 	bl	8005540 <USB_EPClearStall>
 800236e:	687b      	ldr	r3, [r7, #4]
 8002370:	2200      	movs	r2, #0
 8002372:	f883 23bc 	strb.w	r2, [r3, #956]	; 0x3bc
 8002376:	2300      	movs	r3, #0
 8002378:	4618      	mov	r0, r3
 800237a:	3710      	adds	r7, #16
 800237c:	46bd      	mov	sp, r7
 800237e:	bd80      	pop	{r7, pc}

08002380 <PCD_WriteEmptyTxFifo>:
 8002380:	b580      	push	{r7, lr}
 8002382:	b08a      	sub	sp, #40	; 0x28
 8002384:	af02      	add	r7, sp, #8
 8002386:	6078      	str	r0, [r7, #4]
 8002388:	6039      	str	r1, [r7, #0]
 800238a:	687b      	ldr	r3, [r7, #4]
 800238c:	681b      	ldr	r3, [r3, #0]
 800238e:	617b      	str	r3, [r7, #20]
 8002390:	697b      	ldr	r3, [r7, #20]
 8002392:	613b      	str	r3, [r7, #16]
 8002394:	683a      	ldr	r2, [r7, #0]
 8002396:	4613      	mov	r3, r2
 8002398:	00db      	lsls	r3, r3, #3
 800239a:	1a9b      	subs	r3, r3, r2
 800239c:	009b      	lsls	r3, r3, #2
 800239e:	3338      	adds	r3, #56	; 0x38
 80023a0:	687a      	ldr	r2, [r7, #4]
 80023a2:	4413      	add	r3, r2
 80023a4:	3304      	adds	r3, #4
 80023a6:	60fb      	str	r3, [r7, #12]
 80023a8:	68fb      	ldr	r3, [r7, #12]
 80023aa:	699a      	ldr	r2, [r3, #24]
 80023ac:	68fb      	ldr	r3, [r7, #12]
 80023ae:	695b      	ldr	r3, [r3, #20]
 80023b0:	429a      	cmp	r2, r3
 80023b2:	d901      	bls.n	80023b8 <PCD_WriteEmptyTxFifo+0x38>
 80023b4:	2301      	movs	r3, #1
 80023b6:	e06c      	b.n	8002492 <PCD_WriteEmptyTxFifo+0x112>
 80023b8:	68fb      	ldr	r3, [r7, #12]
 80023ba:	695a      	ldr	r2, [r3, #20]
 80023bc:	68fb      	ldr	r3, [r7, #12]
 80023be:	699b      	ldr	r3, [r3, #24]
 80023c0:	1ad3      	subs	r3, r2, r3
 80023c2:	61fb      	str	r3, [r7, #28]
 80023c4:	68fb      	ldr	r3, [r7, #12]
 80023c6:	689b      	ldr	r3, [r3, #8]
 80023c8:	69fa      	ldr	r2, [r7, #28]
 80023ca:	429a      	cmp	r2, r3
 80023cc:	d902      	bls.n	80023d4 <PCD_WriteEmptyTxFifo+0x54>
 80023ce:	68fb      	ldr	r3, [r7, #12]
 80023d0:	689b      	ldr	r3, [r3, #8]
 80023d2:	61fb      	str	r3, [r7, #28]
 80023d4:	69fb      	ldr	r3, [r7, #28]
 80023d6:	3303      	adds	r3, #3
 80023d8:	089b      	lsrs	r3, r3, #2
 80023da:	61bb      	str	r3, [r7, #24]
 80023dc:	e02b      	b.n	8002436 <PCD_WriteEmptyTxFifo+0xb6>
 80023de:	68fb      	ldr	r3, [r7, #12]
 80023e0:	695a      	ldr	r2, [r3, #20]
 80023e2:	68fb      	ldr	r3, [r7, #12]
 80023e4:	699b      	ldr	r3, [r3, #24]
 80023e6:	1ad3      	subs	r3, r2, r3
 80023e8:	61fb      	str	r3, [r7, #28]
 80023ea:	68fb      	ldr	r3, [r7, #12]
 80023ec:	689b      	ldr	r3, [r3, #8]
 80023ee:	69fa      	ldr	r2, [r7, #28]
 80023f0:	429a      	cmp	r2, r3
 80023f2:	d902      	bls.n	80023fa <PCD_WriteEmptyTxFifo+0x7a>
 80023f4:	68fb      	ldr	r3, [r7, #12]
 80023f6:	689b      	ldr	r3, [r3, #8]
 80023f8:	61fb      	str	r3, [r7, #28]
 80023fa:	69fb      	ldr	r3, [r7, #28]
 80023fc:	3303      	adds	r3, #3
 80023fe:	089b      	lsrs	r3, r3, #2
 8002400:	61bb      	str	r3, [r7, #24]
 8002402:	68fb      	ldr	r3, [r7, #12]
 8002404:	68d9      	ldr	r1, [r3, #12]
 8002406:	683b      	ldr	r3, [r7, #0]
 8002408:	b2da      	uxtb	r2, r3
 800240a:	69fb      	ldr	r3, [r7, #28]
 800240c:	b298      	uxth	r0, r3
 800240e:	687b      	ldr	r3, [r7, #4]
 8002410:	691b      	ldr	r3, [r3, #16]
 8002412:	b2db      	uxtb	r3, r3
 8002414:	9300      	str	r3, [sp, #0]
 8002416:	4603      	mov	r3, r0
 8002418:	6978      	ldr	r0, [r7, #20]
 800241a:	f002 ffc5 	bl	80053a8 <USB_WritePacket>
 800241e:	68fb      	ldr	r3, [r7, #12]
 8002420:	68da      	ldr	r2, [r3, #12]
 8002422:	69fb      	ldr	r3, [r7, #28]
 8002424:	441a      	add	r2, r3
 8002426:	68fb      	ldr	r3, [r7, #12]
 8002428:	60da      	str	r2, [r3, #12]
 800242a:	68fb      	ldr	r3, [r7, #12]
 800242c:	699a      	ldr	r2, [r3, #24]
 800242e:	69fb      	ldr	r3, [r7, #28]
 8002430:	441a      	add	r2, r3
 8002432:	68fb      	ldr	r3, [r7, #12]
 8002434:	619a      	str	r2, [r3, #24]
 8002436:	683b      	ldr	r3, [r7, #0]
 8002438:	015a      	lsls	r2, r3, #5
 800243a:	693b      	ldr	r3, [r7, #16]
 800243c:	4413      	add	r3, r2
 800243e:	f503 6310 	add.w	r3, r3, #2304	; 0x900
 8002442:	699b      	ldr	r3, [r3, #24]
 8002444:	b29b      	uxth	r3, r3
 8002446:	69ba      	ldr	r2, [r7, #24]
 8002448:	429a      	cmp	r2, r3
 800244a:	d809      	bhi.n	8002460 <PCD_WriteEmptyTxFifo+0xe0>
 800244c:	68fb      	ldr	r3, [r7, #12]
 800244e:	699a      	ldr	r2, [r3, #24]
 8002450:	68fb      	ldr	r3, [r7, #12]
 8002452:	695b      	ldr	r3, [r3, #20]
 8002454:	429a      	cmp	r2, r3
 8002456:	d203      	bcs.n	8002460 <PCD_WriteEmptyTxFifo+0xe0>
 8002458:	68fb      	ldr	r3, [r7, #12]
 800245a:	695b      	ldr	r3, [r3, #20]
 800245c:	2b00      	cmp	r3, #0
 800245e:	d1be      	bne.n	80023de <PCD_WriteEmptyTxFifo+0x5e>
 8002460:	68fb      	ldr	r3, [r7, #12]
 8002462:	695a      	ldr	r2, [r3, #20]
 8002464:	68fb      	ldr	r3, [r7, #12]
 8002466:	699b      	ldr	r3, [r3, #24]
 8002468:	429a      	cmp	r2, r3
 800246a:	d811      	bhi.n	8002490 <PCD_WriteEmptyTxFifo+0x110>
 800246c:	683b      	ldr	r3, [r7, #0]
 800246e:	f003 030f 	and.w	r3, r3, #15
 8002472:	2201      	movs	r2, #1
 8002474:	fa02 f303 	lsl.w	r3, r2, r3
 8002478:	60bb      	str	r3, [r7, #8]
 800247a:	693b      	ldr	r3, [r7, #16]
 800247c:	f503 6300 	add.w	r3, r3, #2048	; 0x800
 8002480:	6b5a      	ldr	r2, [r3, #52]	; 0x34
 8002482:	68bb      	ldr	r3, [r7, #8]
 8002484:	43db      	mvns	r3, r3
 8002486:	6939      	ldr	r1, [r7, #16]
 8002488:	f501 6100 	add.w	r1, r1, #2048	; 0x800
 800248c:	4013      	ands	r3, r2
 800248e:	634b      	str	r3, [r1, #52]	; 0x34
 8002490:	2300      	movs	r3, #0
 8002492:	4618      	mov	r0, r3
 8002494:	3720      	adds	r7, #32
 8002496:	46bd      	mov	sp, r7
 8002498:	bd80      	pop	{r7, pc}
	...

0800249c <PCD_EP_OutXfrComplete_int>:
 800249c:	b580      	push	{r7, lr}
 800249e:	b086      	sub	sp, #24
 80024a0:	af00      	add	r7, sp, #0
 80024a2:	6078      	str	r0, [r7, #4]
 80024a4:	6039      	str	r1, [r7, #0]
 80024a6:	687b      	ldr	r3, [r7, #4]
 80024a8:	681b      	ldr	r3, [r3, #0]
 80024aa:	617b      	str	r3, [r7, #20]
 80024ac:	697b      	ldr	r3, [r7, #20]
 80024ae:	613b      	str	r3, [r7, #16]
 80024b0:	697b      	ldr	r3, [r7, #20]
 80024b2:	333c      	adds	r3, #60	; 0x3c
 80024b4:	3304      	adds	r3, #4
 80024b6:	681b      	ldr	r3, [r3, #0]
 80024b8:	60fb      	str	r3, [r7, #12]
 80024ba:	683b      	ldr	r3, [r7, #0]
 80024bc:	015a      	lsls	r2, r3, #5
 80024be:	693b      	ldr	r3, [r7, #16]
 80024c0:	4413      	add	r3, r2
 80024c2:	f503 6330 	add.w	r3, r3, #2816	; 0xb00
 80024c6:	689b      	ldr	r3, [r3, #8]
 80024c8:	60bb      	str	r3, [r7, #8]
 80024ca:	687b      	ldr	r3, [r7, #4]
 80024cc:	691b      	ldr	r3, [r3, #16]
 80024ce:	2b01      	cmp	r3, #1
 80024d0:	f040 80a0 	bne.w	8002614 <PCD_EP_OutXfrComplete_int+0x178>
 80024d4:	68bb      	ldr	r3, [r7, #8]
 80024d6:	f003 0308 	and.w	r3, r3, #8
 80024da:	2b00      	cmp	r3, #0
 80024dc:	d015      	beq.n	800250a <PCD_EP_OutXfrComplete_int+0x6e>
 80024de:	68fb      	ldr	r3, [r7, #12]
 80024e0:	4a72      	ldr	r2, [pc, #456]	; (80026ac <PCD_EP_OutXfrComplete_int+0x210>)
 80024e2:	4293      	cmp	r3, r2
 80024e4:	f240 80dd 	bls.w	80026a2 <PCD_EP_OutXfrComplete_int+0x206>
 80024e8:	68bb      	ldr	r3, [r7, #8]
 80024ea:	f403 4300 	and.w	r3, r3, #32768	; 0x8000
 80024ee:	2b00      	cmp	r3, #0
 80024f0:	f000 80d7 	beq.w	80026a2 <PCD_EP_OutXfrComplete_int+0x206>
 80024f4:	683b      	ldr	r3, [r7, #0]
 80024f6:	015a      	lsls	r2, r3, #5
 80024f8:	693b      	ldr	r3, [r7, #16]
 80024fa:	4413      	add	r3, r2
 80024fc:	f503 6330 	add.w	r3, r3, #2816	; 0xb00
 8002500:	461a      	mov	r2, r3
 8002502:	f44f 4300 	mov.w	r3, #32768	; 0x8000
 8002506:	6093      	str	r3, [r2, #8]
 8002508:	e0cb      	b.n	80026a2 <PCD_EP_OutXfrComplete_int+0x206>
 800250a:	68bb      	ldr	r3, [r7, #8]
 800250c:	f003 0320 	and.w	r3, r3, #32
 8002510:	2b00      	cmp	r3, #0
 8002512:	d009      	beq.n	8002528 <PCD_EP_OutXfrComplete_int+0x8c>
 8002514:	683b      	ldr	r3, [r7, #0]
 8002516:	015a      	lsls	r2, r3, #5
 8002518:	693b      	ldr	r3, [r7, #16]
 800251a:	4413      	add	r3, r2
 800251c:	f503 6330 	add.w	r3, r3, #2816	; 0xb00
 8002520:	461a      	mov	r2, r3
 8002522:	2320      	movs	r3, #32
 8002524:	6093      	str	r3, [r2, #8]
 8002526:	e0bc      	b.n	80026a2 <PCD_EP_OutXfrComplete_int+0x206>
 8002528:	68bb      	ldr	r3, [r7, #8]
 800252a:	f003 0328 	and.w	r3, r3, #40	; 0x28
 800252e:	2b00      	cmp	r3, #0
 8002530:	f040 80b7 	bne.w	80026a2 <PCD_EP_OutXfrComplete_int+0x206>
 8002534:	68fb      	ldr	r3, [r7, #12]
 8002536:	4a5d      	ldr	r2, [pc, #372]	; (80026ac <PCD_EP_OutXfrComplete_int+0x210>)
 8002538:	4293      	cmp	r3, r2
 800253a:	d90f      	bls.n	800255c <PCD_EP_OutXfrComplete_int+0xc0>
 800253c:	68bb      	ldr	r3, [r7, #8]
 800253e:	f403 4300 	and.w	r3, r3, #32768	; 0x8000
 8002542:	2b00      	cmp	r3, #0
 8002544:	d00a      	beq.n	800255c <PCD_EP_OutXfrComplete_int+0xc0>
 8002546:	683b      	ldr	r3, [r7, #0]
 8002548:	015a      	lsls	r2, r3, #5
 800254a:	693b      	ldr	r3, [r7, #16]
 800254c:	4413      	add	r3, r2
 800254e:	f503 6330 	add.w	r3, r3, #2816	; 0xb00
 8002552:	461a      	mov	r2, r3
 8002554:	f44f 4300 	mov.w	r3, #32768	; 0x8000
 8002558:	6093      	str	r3, [r2, #8]
 800255a:	e0a2      	b.n	80026a2 <PCD_EP_OutXfrComplete_int+0x206>
 800255c:	6879      	ldr	r1, [r7, #4]
 800255e:	683a      	ldr	r2, [r7, #0]
 8002560:	4613      	mov	r3, r2
 8002562:	00db      	lsls	r3, r3, #3
 8002564:	1a9b      	subs	r3, r3, r2
 8002566:	009b      	lsls	r3, r3, #2
 8002568:	440b      	add	r3, r1
 800256a:	f503 7301 	add.w	r3, r3, #516	; 0x204
 800256e:	681a      	ldr	r2, [r3, #0]
 8002570:	683b      	ldr	r3, [r7, #0]
 8002572:	0159      	lsls	r1, r3, #5
 8002574:	693b      	ldr	r3, [r7, #16]
 8002576:	440b      	add	r3, r1
 8002578:	f503 6330 	add.w	r3, r3, #2816	; 0xb00
 800257c:	691b      	ldr	r3, [r3, #16]
 800257e:	f3c3 0312 	ubfx	r3, r3, #0, #19
 8002582:	1ad1      	subs	r1, r2, r3
 8002584:	6878      	ldr	r0, [r7, #4]
 8002586:	683a      	ldr	r2, [r7, #0]
 8002588:	4613      	mov	r3, r2
 800258a:	00db      	lsls	r3, r3, #3
 800258c:	1a9b      	subs	r3, r3, r2
 800258e:	009b      	lsls	r3, r3, #2
 8002590:	4403      	add	r3, r0
 8002592:	f503 7305 	add.w	r3, r3, #532	; 0x214
 8002596:	6019      	str	r1, [r3, #0]
 8002598:	6879      	ldr	r1, [r7, #4]
 800259a:	683a      	ldr	r2, [r7, #0]
 800259c:	4613      	mov	r3, r2
 800259e:	00db      	lsls	r3, r3, #3
 80025a0:	1a9b      	subs	r3, r3, r2
 80025a2:	009b      	lsls	r3, r3, #2
 80025a4:	440b      	add	r3, r1
 80025a6:	f503 7302 	add.w	r3, r3, #520	; 0x208
 80025aa:	6819      	ldr	r1, [r3, #0]
 80025ac:	6878      	ldr	r0, [r7, #4]
 80025ae:	683a      	ldr	r2, [r7, #0]
 80025b0:	4613      	mov	r3, r2
 80025b2:	00db      	lsls	r3, r3, #3
 80025b4:	1a9b      	subs	r3, r3, r2
 80025b6:	009b      	lsls	r3, r3, #2
 80025b8:	4403      	add	r3, r0
 80025ba:	f503 7301 	add.w	r3, r3, #516	; 0x204
 80025be:	681b      	ldr	r3, [r3, #0]
 80025c0:	4419      	add	r1, r3
 80025c2:	6878      	ldr	r0, [r7, #4]
 80025c4:	683a      	ldr	r2, [r7, #0]
 80025c6:	4613      	mov	r3, r2
 80025c8:	00db      	lsls	r3, r3, #3
 80025ca:	1a9b      	subs	r3, r3, r2
 80025cc:	009b      	lsls	r3, r3, #2
 80025ce:	4403      	add	r3, r0
 80025d0:	f503 7302 	add.w	r3, r3, #520	; 0x208
 80025d4:	6019      	str	r1, [r3, #0]
 80025d6:	683b      	ldr	r3, [r7, #0]
 80025d8:	2b00      	cmp	r3, #0
 80025da:	d114      	bne.n	8002606 <PCD_EP_OutXfrComplete_int+0x16a>
 80025dc:	6879      	ldr	r1, [r7, #4]
 80025de:	683a      	ldr	r2, [r7, #0]
 80025e0:	4613      	mov	r3, r2
 80025e2:	00db      	lsls	r3, r3, #3
 80025e4:	1a9b      	subs	r3, r3, r2
 80025e6:	009b      	lsls	r3, r3, #2
 80025e8:	440b      	add	r3, r1
 80025ea:	f503 7304 	add.w	r3, r3, #528	; 0x210
 80025ee:	681b      	ldr	r3, [r3, #0]
 80025f0:	2b00      	cmp	r3, #0
 80025f2:	d108      	bne.n	8002606 <PCD_EP_OutXfrComplete_int+0x16a>
 80025f4:	687b      	ldr	r3, [r7, #4]
 80025f6:	6818      	ldr	r0, [r3, #0]
 80025f8:	687b      	ldr	r3, [r7, #4]
 80025fa:	f503 7371 	add.w	r3, r3, #964	; 0x3c4
 80025fe:	461a      	mov	r2, r3
 8002600:	2101      	movs	r1, #1
 8002602:	f003 f91f 	bl	8005844 <USB_EP0_OutStart>
 8002606:	683b      	ldr	r3, [r7, #0]
 8002608:	b2db      	uxtb	r3, r3
 800260a:	4619      	mov	r1, r3
 800260c:	6878      	ldr	r0, [r7, #4]
 800260e:	f005 f8b1 	bl	8007774 <HAL_PCD_DataOutStageCallback>
 8002612:	e046      	b.n	80026a2 <PCD_EP_OutXfrComplete_int+0x206>
 8002614:	68fb      	ldr	r3, [r7, #12]
 8002616:	4a26      	ldr	r2, [pc, #152]	; (80026b0 <PCD_EP_OutXfrComplete_int+0x214>)
 8002618:	4293      	cmp	r3, r2
 800261a:	d124      	bne.n	8002666 <PCD_EP_OutXfrComplete_int+0x1ca>
 800261c:	68bb      	ldr	r3, [r7, #8]
 800261e:	f403 4300 	and.w	r3, r3, #32768	; 0x8000
 8002622:	2b00      	cmp	r3, #0
 8002624:	d00a      	beq.n	800263c <PCD_EP_OutXfrComplete_int+0x1a0>
 8002626:	683b      	ldr	r3, [r7, #0]
 8002628:	015a      	lsls	r2, r3, #5
 800262a:	693b      	ldr	r3, [r7, #16]
 800262c:	4413      	add	r3, r2
 800262e:	f503 6330 	add.w	r3, r3, #2816	; 0xb00
 8002632:	461a      	mov	r2, r3
 8002634:	f44f 4300 	mov.w	r3, #32768	; 0x8000
 8002638:	6093      	str	r3, [r2, #8]
 800263a:	e032      	b.n	80026a2 <PCD_EP_OutXfrComplete_int+0x206>
 800263c:	68bb      	ldr	r3, [r7, #8]
 800263e:	f003 0320 	and.w	r3, r3, #32
 8002642:	2b00      	cmp	r3, #0
 8002644:	d008      	beq.n	8002658 <PCD_EP_OutXfrComplete_int+0x1bc>
 8002646:	683b      	ldr	r3, [r7, #0]
 8002648:	015a      	lsls	r2, r3, #5
 800264a:	693b      	ldr	r3, [r7, #16]
 800264c:	4413      	add	r3, r2
 800264e:	f503 6330 	add.w	r3, r3, #2816	; 0xb00
 8002652:	461a      	mov	r2, r3
 8002654:	2320      	movs	r3, #32
 8002656:	6093      	str	r3, [r2, #8]
 8002658:	683b      	ldr	r3, [r7, #0]
 800265a:	b2db      	uxtb	r3, r3
 800265c:	4619      	mov	r1, r3
 800265e:	6878      	ldr	r0, [r7, #4]
 8002660:	f005 f888 	bl	8007774 <HAL_PCD_DataOutStageCallback>
 8002664:	e01d      	b.n	80026a2 <PCD_EP_OutXfrComplete_int+0x206>
 8002666:	683b      	ldr	r3, [r7, #0]
 8002668:	2b00      	cmp	r3, #0
 800266a:	d114      	bne.n	8002696 <PCD_EP_OutXfrComplete_int+0x1fa>
 800266c:	6879      	ldr	r1, [r7, #4]
 800266e:	683a      	ldr	r2, [r7, #0]
 8002670:	4613      	mov	r3, r2
 8002672:	00db      	lsls	r3, r3, #3
 8002674:	1a9b      	subs	r3, r3, r2
 8002676:	009b      	lsls	r3, r3, #2
 8002678:	440b      	add	r3, r1
 800267a:	f503 7304 	add.w	r3, r3, #528	; 0x210
 800267e:	681b      	ldr	r3, [r3, #0]
 8002680:	2b00      	cmp	r3, #0
 8002682:	d108      	bne.n	8002696 <PCD_EP_OutXfrComplete_int+0x1fa>
 8002684:	687b      	ldr	r3, [r7, #4]
 8002686:	6818      	ldr	r0, [r3, #0]
 8002688:	687b      	ldr	r3, [r7, #4]
 800268a:	f503 7371 	add.w	r3, r3, #964	; 0x3c4
 800268e:	461a      	mov	r2, r3
 8002690:	2100      	movs	r1, #0
 8002692:	f003 f8d7 	bl	8005844 <USB_EP0_OutStart>
 8002696:	683b      	ldr	r3, [r7, #0]
 8002698:	b2db      	uxtb	r3, r3
 800269a:	4619      	mov	r1, r3
 800269c:	6878      	ldr	r0, [r7, #4]
 800269e:	f005 f869 	bl	8007774 <HAL_PCD_DataOutStageCallback>
 80026a2:	2300      	movs	r3, #0
 80026a4:	4618      	mov	r0, r3
 80026a6:	3718      	adds	r7, #24
 80026a8:	46bd      	mov	sp, r7
 80026aa:	bd80      	pop	{r7, pc}
 80026ac:	4f54300a 	.word	0x4f54300a
 80026b0:	4f54310a 	.word	0x4f54310a

080026b4 <PCD_EP_OutSetupPacket_int>:
 80026b4:	b580      	push	{r7, lr}
 80026b6:	b086      	sub	sp, #24
 80026b8:	af00      	add	r7, sp, #0
 80026ba:	6078      	str	r0, [r7, #4]
 80026bc:	6039      	str	r1, [r7, #0]
 80026be:	687b      	ldr	r3, [r7, #4]
 80026c0:	681b      	ldr	r3, [r3, #0]
 80026c2:	617b      	str	r3, [r7, #20]
 80026c4:	697b      	ldr	r3, [r7, #20]
 80026c6:	613b      	str	r3, [r7, #16]
 80026c8:	697b      	ldr	r3, [r7, #20]
 80026ca:	333c      	adds	r3, #60	; 0x3c
 80026cc:	3304      	adds	r3, #4
 80026ce:	681b      	ldr	r3, [r3, #0]
 80026d0:	60fb      	str	r3, [r7, #12]
 80026d2:	683b      	ldr	r3, [r7, #0]
 80026d4:	015a      	lsls	r2, r3, #5
 80026d6:	693b      	ldr	r3, [r7, #16]
 80026d8:	4413      	add	r3, r2
 80026da:	f503 6330 	add.w	r3, r3, #2816	; 0xb00
 80026de:	689b      	ldr	r3, [r3, #8]
 80026e0:	60bb      	str	r3, [r7, #8]
 80026e2:	68fb      	ldr	r3, [r7, #12]
 80026e4:	4a15      	ldr	r2, [pc, #84]	; (800273c <PCD_EP_OutSetupPacket_int+0x88>)
 80026e6:	4293      	cmp	r3, r2
 80026e8:	d90e      	bls.n	8002708 <PCD_EP_OutSetupPacket_int+0x54>
 80026ea:	68bb      	ldr	r3, [r7, #8]
 80026ec:	f403 4300 	and.w	r3, r3, #32768	; 0x8000
 80026f0:	2b00      	cmp	r3, #0
 80026f2:	d009      	beq.n	8002708 <PCD_EP_OutSetupPacket_int+0x54>
 80026f4:	683b      	ldr	r3, [r7, #0]
 80026f6:	015a      	lsls	r2, r3, #5
 80026f8:	693b      	ldr	r3, [r7, #16]
 80026fa:	4413      	add	r3, r2
 80026fc:	f503 6330 	add.w	r3, r3, #2816	; 0xb00
 8002700:	461a      	mov	r2, r3
 8002702:	f44f 4300 	mov.w	r3, #32768	; 0x8000
 8002706:	6093      	str	r3, [r2, #8]
 8002708:	6878      	ldr	r0, [r7, #4]
 800270a:	f005 f821 	bl	8007750 <HAL_PCD_SetupStageCallback>
 800270e:	68fb      	ldr	r3, [r7, #12]
 8002710:	4a0a      	ldr	r2, [pc, #40]	; (800273c <PCD_EP_OutSetupPacket_int+0x88>)
 8002712:	4293      	cmp	r3, r2
 8002714:	d90c      	bls.n	8002730 <PCD_EP_OutSetupPacket_int+0x7c>
 8002716:	687b      	ldr	r3, [r7, #4]
 8002718:	691b      	ldr	r3, [r3, #16]
 800271a:	2b01      	cmp	r3, #1
 800271c:	d108      	bne.n	8002730 <PCD_EP_OutSetupPacket_int+0x7c>
 800271e:	687b      	ldr	r3, [r7, #4]
 8002720:	6818      	ldr	r0, [r3, #0]
 8002722:	687b      	ldr	r3, [r7, #4]
 8002724:	f503 7371 	add.w	r3, r3, #964	; 0x3c4
 8002728:	461a      	mov	r2, r3
 800272a:	2101      	movs	r1, #1
 800272c:	f003 f88a 	bl	8005844 <USB_EP0_OutStart>
 8002730:	2300      	movs	r3, #0
 8002732:	4618      	mov	r0, r3
 8002734:	3718      	adds	r7, #24
 8002736:	46bd      	mov	sp, r7
 8002738:	bd80      	pop	{r7, pc}
 800273a:	bf00      	nop
 800273c:	4f54300a 	.word	0x4f54300a

08002740 <HAL_PCDEx_SetTxFiFo>:
 8002740:	b480      	push	{r7}
 8002742:	b085      	sub	sp, #20
 8002744:	af00      	add	r7, sp, #0
 8002746:	6078      	str	r0, [r7, #4]
 8002748:	460b      	mov	r3, r1
 800274a:	70fb      	strb	r3, [r7, #3]
 800274c:	4613      	mov	r3, r2
 800274e:	803b      	strh	r3, [r7, #0]
 8002750:	687b      	ldr	r3, [r7, #4]
 8002752:	681b      	ldr	r3, [r3, #0]
 8002754:	6a5b      	ldr	r3, [r3, #36]	; 0x24
 8002756:	60bb      	str	r3, [r7, #8]
 8002758:	78fb      	ldrb	r3, [r7, #3]
 800275a:	2b00      	cmp	r3, #0
 800275c:	d107      	bne.n	800276e <HAL_PCDEx_SetTxFiFo+0x2e>
 800275e:	883b      	ldrh	r3, [r7, #0]
 8002760:	0419      	lsls	r1, r3, #16
 8002762:	687b      	ldr	r3, [r7, #4]
 8002764:	681b      	ldr	r3, [r3, #0]
 8002766:	68ba      	ldr	r2, [r7, #8]
 8002768:	430a      	orrs	r2, r1
 800276a:	629a      	str	r2, [r3, #40]	; 0x28
 800276c:	e028      	b.n	80027c0 <HAL_PCDEx_SetTxFiFo+0x80>
 800276e:	687b      	ldr	r3, [r7, #4]
 8002770:	681b      	ldr	r3, [r3, #0]
 8002772:	6a9b      	ldr	r3, [r3, #40]	; 0x28
 8002774:	0c1b      	lsrs	r3, r3, #16
 8002776:	68ba      	ldr	r2, [r7, #8]
 8002778:	4413      	add	r3, r2
 800277a:	60bb      	str	r3, [r7, #8]
 800277c:	2300      	movs	r3, #0
 800277e:	73fb      	strb	r3, [r7, #15]
 8002780:	e00d      	b.n	800279e <HAL_PCDEx_SetTxFiFo+0x5e>
 8002782:	687b      	ldr	r3, [r7, #4]
 8002784:	681a      	ldr	r2, [r3, #0]
 8002786:	7bfb      	ldrb	r3, [r7, #15]
 8002788:	3340      	adds	r3, #64	; 0x40
 800278a:	009b      	lsls	r3, r3, #2
 800278c:	4413      	add	r3, r2
 800278e:	685b      	ldr	r3, [r3, #4]
 8002790:	0c1b      	lsrs	r3, r3, #16
 8002792:	68ba      	ldr	r2, [r7, #8]
 8002794:	4413      	add	r3, r2
 8002796:	60bb      	str	r3, [r7, #8]
 8002798:	7bfb      	ldrb	r3, [r7, #15]
 800279a:	3301      	adds	r3, #1
 800279c:	73fb      	strb	r3, [r7, #15]
 800279e:	7bfa      	ldrb	r2, [r7, #15]
 80027a0:	78fb      	ldrb	r3, [r7, #3]
 80027a2:	3b01      	subs	r3, #1
 80027a4:	429a      	cmp	r2, r3
 80027a6:	d3ec      	bcc.n	8002782 <HAL_PCDEx_SetTxFiFo+0x42>
 80027a8:	883b      	ldrh	r3, [r7, #0]
 80027aa:	0418      	lsls	r0, r3, #16
 80027ac:	687b      	ldr	r3, [r7, #4]
 80027ae:	6819      	ldr	r1, [r3, #0]
 80027b0:	78fb      	ldrb	r3, [r7, #3]
 80027b2:	3b01      	subs	r3, #1
 80027b4:	68ba      	ldr	r2, [r7, #8]
 80027b6:	4302      	orrs	r2, r0
 80027b8:	3340      	adds	r3, #64	; 0x40
 80027ba:	009b      	lsls	r3, r3, #2
 80027bc:	440b      	add	r3, r1
 80027be:	605a      	str	r2, [r3, #4]
 80027c0:	2300      	movs	r3, #0
 80027c2:	4618      	mov	r0, r3
 80027c4:	3714      	adds	r7, #20
 80027c6:	46bd      	mov	sp, r7
 80027c8:	f85d 7b04 	ldr.w	r7, [sp], #4
 80027cc:	4770      	bx	lr

080027ce <HAL_PCDEx_SetRxFiFo>:
 80027ce:	b480      	push	{r7}
 80027d0:	b083      	sub	sp, #12
 80027d2:	af00      	add	r7, sp, #0
 80027d4:	6078      	str	r0, [r7, #4]
 80027d6:	460b      	mov	r3, r1
 80027d8:	807b      	strh	r3, [r7, #2]
 80027da:	687b      	ldr	r3, [r7, #4]
 80027dc:	681b      	ldr	r3, [r3, #0]
 80027de:	887a      	ldrh	r2, [r7, #2]
 80027e0:	625a      	str	r2, [r3, #36]	; 0x24
 80027e2:	2300      	movs	r3, #0
 80027e4:	4618      	mov	r0, r3
 80027e6:	370c      	adds	r7, #12
 80027e8:	46bd      	mov	sp, r7
 80027ea:	f85d 7b04 	ldr.w	r7, [sp], #4
 80027ee:	4770      	bx	lr

080027f0 <HAL_PCDEx_ActivateLPM>:
 80027f0:	b480      	push	{r7}
 80027f2:	b085      	sub	sp, #20
 80027f4:	af00      	add	r7, sp, #0
 80027f6:	6078      	str	r0, [r7, #4]
 80027f8:	687b      	ldr	r3, [r7, #4]
 80027fa:	681b      	ldr	r3, [r3, #0]
 80027fc:	60fb      	str	r3, [r7, #12]
 80027fe:	687b      	ldr	r3, [r7, #4]
 8002800:	2201      	movs	r2, #1
 8002802:	f8c3 23fc 	str.w	r2, [r3, #1020]	; 0x3fc
 8002806:	687b      	ldr	r3, [r7, #4]
 8002808:	2200      	movs	r2, #0
 800280a:	f883 23f4 	strb.w	r2, [r3, #1012]	; 0x3f4
 800280e:	68fb      	ldr	r3, [r7, #12]
 8002810:	699b      	ldr	r3, [r3, #24]
 8002812:	f043 6200 	orr.w	r2, r3, #134217728	; 0x8000000
 8002816:	68fb      	ldr	r3, [r7, #12]
 8002818:	619a      	str	r2, [r3, #24]
 800281a:	68fb      	ldr	r3, [r7, #12]
 800281c:	6d5a      	ldr	r2, [r3, #84]	; 0x54
 800281e:	4b05      	ldr	r3, [pc, #20]	; (8002834 <HAL_PCDEx_ActivateLPM+0x44>)
 8002820:	4313      	orrs	r3, r2
 8002822:	68fa      	ldr	r2, [r7, #12]
 8002824:	6553      	str	r3, [r2, #84]	; 0x54
 8002826:	2300      	movs	r3, #0
 8002828:	4618      	mov	r0, r3
 800282a:	3714      	adds	r7, #20
 800282c:	46bd      	mov	sp, r7
 800282e:	f85d 7b04 	ldr.w	r7, [sp], #4
 8002832:	4770      	bx	lr
 8002834:	10000003 	.word	0x10000003

08002838 <HAL_PWREx_EnableOverDrive>:
 8002838:	b580      	push	{r7, lr}
 800283a:	b082      	sub	sp, #8
 800283c:	af00      	add	r7, sp, #0
 800283e:	2300      	movs	r3, #0
 8002840:	607b      	str	r3, [r7, #4]
 8002842:	4b23      	ldr	r3, [pc, #140]	; (80028d0 <HAL_PWREx_EnableOverDrive+0x98>)
 8002844:	6c1b      	ldr	r3, [r3, #64]	; 0x40
 8002846:	4a22      	ldr	r2, [pc, #136]	; (80028d0 <HAL_PWREx_EnableOverDrive+0x98>)
 8002848:	f043 5380 	orr.w	r3, r3, #268435456	; 0x10000000
 800284c:	6413      	str	r3, [r2, #64]	; 0x40
 800284e:	4b20      	ldr	r3, [pc, #128]	; (80028d0 <HAL_PWREx_EnableOverDrive+0x98>)
 8002850:	6c1b      	ldr	r3, [r3, #64]	; 0x40
 8002852:	f003 5380 	and.w	r3, r3, #268435456	; 0x10000000
 8002856:	603b      	str	r3, [r7, #0]
 8002858:	683b      	ldr	r3, [r7, #0]
 800285a:	4b1e      	ldr	r3, [pc, #120]	; (80028d4 <HAL_PWREx_EnableOverDrive+0x9c>)
 800285c:	681b      	ldr	r3, [r3, #0]
 800285e:	4a1d      	ldr	r2, [pc, #116]	; (80028d4 <HAL_PWREx_EnableOverDrive+0x9c>)
 8002860:	f443 3380 	orr.w	r3, r3, #65536	; 0x10000
 8002864:	6013      	str	r3, [r2, #0]
 8002866:	f7fd feb9 	bl	80005dc <HAL_GetTick>
 800286a:	6078      	str	r0, [r7, #4]
 800286c:	e009      	b.n	8002882 <HAL_PWREx_EnableOverDrive+0x4a>
 800286e:	f7fd feb5 	bl	80005dc <HAL_GetTick>
 8002872:	4602      	mov	r2, r0
 8002874:	687b      	ldr	r3, [r7, #4]
 8002876:	1ad3      	subs	r3, r2, r3
 8002878:	f5b3 7f7a 	cmp.w	r3, #1000	; 0x3e8
 800287c:	d901      	bls.n	8002882 <HAL_PWREx_EnableOverDrive+0x4a>
 800287e:	2303      	movs	r3, #3
 8002880:	e022      	b.n	80028c8 <HAL_PWREx_EnableOverDrive+0x90>
 8002882:	4b14      	ldr	r3, [pc, #80]	; (80028d4 <HAL_PWREx_EnableOverDrive+0x9c>)
 8002884:	685b      	ldr	r3, [r3, #4]
 8002886:	f403 3380 	and.w	r3, r3, #65536	; 0x10000
 800288a:	f5b3 3f80 	cmp.w	r3, #65536	; 0x10000
 800288e:	d1ee      	bne.n	800286e <HAL_PWREx_EnableOverDrive+0x36>
 8002890:	4b10      	ldr	r3, [pc, #64]	; (80028d4 <HAL_PWREx_EnableOverDrive+0x9c>)
 8002892:	681b      	ldr	r3, [r3, #0]
 8002894:	4a0f      	ldr	r2, [pc, #60]	; (80028d4 <HAL_PWREx_EnableOverDrive+0x9c>)
 8002896:	f443 3300 	orr.w	r3, r3, #131072	; 0x20000
 800289a:	6013      	str	r3, [r2, #0]
 800289c:	f7fd fe9e 	bl	80005dc <HAL_GetTick>
 80028a0:	6078      	str	r0, [r7, #4]
 80028a2:	e009      	b.n	80028b8 <HAL_PWREx_EnableOverDrive+0x80>
 80028a4:	f7fd fe9a 	bl	80005dc <HAL_GetTick>
 80028a8:	4602      	mov	r2, r0
 80028aa:	687b      	ldr	r3, [r7, #4]
 80028ac:	1ad3      	subs	r3, r2, r3
 80028ae:	f5b3 7f7a 	cmp.w	r3, #1000	; 0x3e8
 80028b2:	d901      	bls.n	80028b8 <HAL_PWREx_EnableOverDrive+0x80>
 80028b4:	2303      	movs	r3, #3
 80028b6:	e007      	b.n	80028c8 <HAL_PWREx_EnableOverDrive+0x90>
 80028b8:	4b06      	ldr	r3, [pc, #24]	; (80028d4 <HAL_PWREx_EnableOverDrive+0x9c>)
 80028ba:	685b      	ldr	r3, [r3, #4]
 80028bc:	f403 3300 	and.w	r3, r3, #131072	; 0x20000
 80028c0:	f5b3 3f00 	cmp.w	r3, #131072	; 0x20000
 80028c4:	d1ee      	bne.n	80028a4 <HAL_PWREx_EnableOverDrive+0x6c>
 80028c6:	2300      	movs	r3, #0
 80028c8:	4618      	mov	r0, r3
 80028ca:	3708      	adds	r7, #8
 80028cc:	46bd      	mov	sp, r7
 80028ce:	bd80      	pop	{r7, pc}
 80028d0:	40023800 	.word	0x40023800
 80028d4:	40007000 	.word	0x40007000

080028d8 <HAL_RCC_OscConfig>:
 80028d8:	b580      	push	{r7, lr}
 80028da:	b086      	sub	sp, #24
 80028dc:	af00      	add	r7, sp, #0
 80028de:	6078      	str	r0, [r7, #4]
 80028e0:	2300      	movs	r3, #0
 80028e2:	75fb      	strb	r3, [r7, #23]
 80028e4:	687b      	ldr	r3, [r7, #4]
 80028e6:	2b00      	cmp	r3, #0
 80028e8:	d101      	bne.n	80028ee <HAL_RCC_OscConfig+0x16>
 80028ea:	2301      	movs	r3, #1
 80028ec:	e29b      	b.n	8002e26 <HAL_RCC_OscConfig+0x54e>
 80028ee:	687b      	ldr	r3, [r7, #4]
 80028f0:	681b      	ldr	r3, [r3, #0]
 80028f2:	f003 0301 	and.w	r3, r3, #1
 80028f6:	2b00      	cmp	r3, #0
 80028f8:	f000 8087 	beq.w	8002a0a <HAL_RCC_OscConfig+0x132>
 80028fc:	4b96      	ldr	r3, [pc, #600]	; (8002b58 <HAL_RCC_OscConfig+0x280>)
 80028fe:	689b      	ldr	r3, [r3, #8]
 8002900:	f003 030c 	and.w	r3, r3, #12
 8002904:	2b04      	cmp	r3, #4
 8002906:	d00c      	beq.n	8002922 <HAL_RCC_OscConfig+0x4a>
 8002908:	4b93      	ldr	r3, [pc, #588]	; (8002b58 <HAL_RCC_OscConfig+0x280>)
 800290a:	689b      	ldr	r3, [r3, #8]
 800290c:	f003 030c 	and.w	r3, r3, #12
 8002910:	2b08      	cmp	r3, #8
 8002912:	d112      	bne.n	800293a <HAL_RCC_OscConfig+0x62>
 8002914:	4b90      	ldr	r3, [pc, #576]	; (8002b58 <HAL_RCC_OscConfig+0x280>)
 8002916:	685b      	ldr	r3, [r3, #4]
 8002918:	f403 0380 	and.w	r3, r3, #4194304	; 0x400000
 800291c:	f5b3 0f80 	cmp.w	r3, #4194304	; 0x400000
 8002920:	d10b      	bne.n	800293a <HAL_RCC_OscConfig+0x62>
 8002922:	4b8d      	ldr	r3, [pc, #564]	; (8002b58 <HAL_RCC_OscConfig+0x280>)
 8002924:	681b      	ldr	r3, [r3, #0]
 8002926:	f403 3300 	and.w	r3, r3, #131072	; 0x20000
 800292a:	2b00      	cmp	r3, #0
 800292c:	d06c      	beq.n	8002a08 <HAL_RCC_OscConfig+0x130>
 800292e:	687b      	ldr	r3, [r7, #4]
 8002930:	685b      	ldr	r3, [r3, #4]
 8002932:	2b00      	cmp	r3, #0
 8002934:	d168      	bne.n	8002a08 <HAL_RCC_OscConfig+0x130>
 8002936:	2301      	movs	r3, #1
 8002938:	e275      	b.n	8002e26 <HAL_RCC_OscConfig+0x54e>
 800293a:	687b      	ldr	r3, [r7, #4]
 800293c:	685b      	ldr	r3, [r3, #4]
 800293e:	f5b3 3f80 	cmp.w	r3, #65536	; 0x10000
 8002942:	d106      	bne.n	8002952 <HAL_RCC_OscConfig+0x7a>
 8002944:	4b84      	ldr	r3, [pc, #528]	; (8002b58 <HAL_RCC_OscConfig+0x280>)
 8002946:	681b      	ldr	r3, [r3, #0]
 8002948:	4a83      	ldr	r2, [pc, #524]	; (8002b58 <HAL_RCC_OscConfig+0x280>)
 800294a:	f443 3380 	orr.w	r3, r3, #65536	; 0x10000
 800294e:	6013      	str	r3, [r2, #0]
 8002950:	e02e      	b.n	80029b0 <HAL_RCC_OscConfig+0xd8>
 8002952:	687b      	ldr	r3, [r7, #4]
 8002954:	685b      	ldr	r3, [r3, #4]
 8002956:	2b00      	cmp	r3, #0
 8002958:	d10c      	bne.n	8002974 <HAL_RCC_OscConfig+0x9c>
 800295a:	4b7f      	ldr	r3, [pc, #508]	; (8002b58 <HAL_RCC_OscConfig+0x280>)
 800295c:	681b      	ldr	r3, [r3, #0]
 800295e:	4a7e      	ldr	r2, [pc, #504]	; (8002b58 <HAL_RCC_OscConfig+0x280>)
 8002960:	f423 3380 	bic.w	r3, r3, #65536	; 0x10000
 8002964:	6013      	str	r3, [r2, #0]
 8002966:	4b7c      	ldr	r3, [pc, #496]	; (8002b58 <HAL_RCC_OscConfig+0x280>)
 8002968:	681b      	ldr	r3, [r3, #0]
 800296a:	4a7b      	ldr	r2, [pc, #492]	; (8002b58 <HAL_RCC_OscConfig+0x280>)
 800296c:	f423 2380 	bic.w	r3, r3, #262144	; 0x40000
 8002970:	6013      	str	r3, [r2, #0]
 8002972:	e01d      	b.n	80029b0 <HAL_RCC_OscConfig+0xd8>
 8002974:	687b      	ldr	r3, [r7, #4]
 8002976:	685b      	ldr	r3, [r3, #4]
 8002978:	f5b3 2fa0 	cmp.w	r3, #327680	; 0x50000
 800297c:	d10c      	bne.n	8002998 <HAL_RCC_OscConfig+0xc0>
 800297e:	4b76      	ldr	r3, [pc, #472]	; (8002b58 <HAL_RCC_OscConfig+0x280>)
 8002980:	681b      	ldr	r3, [r3, #0]
 8002982:	4a75      	ldr	r2, [pc, #468]	; (8002b58 <HAL_RCC_OscConfig+0x280>)
 8002984:	f443 2380 	orr.w	r3, r3, #262144	; 0x40000
 8002988:	6013      	str	r3, [r2, #0]
 800298a:	4b73      	ldr	r3, [pc, #460]	; (8002b58 <HAL_RCC_OscConfig+0x280>)
 800298c:	681b      	ldr	r3, [r3, #0]
 800298e:	4a72      	ldr	r2, [pc, #456]	; (8002b58 <HAL_RCC_OscConfig+0x280>)
 8002990:	f443 3380 	orr.w	r3, r3, #65536	; 0x10000
 8002994:	6013      	str	r3, [r2, #0]
 8002996:	e00b      	b.n	80029b0 <HAL_RCC_OscConfig+0xd8>
 8002998:	4b6f      	ldr	r3, [pc, #444]	; (8002b58 <HAL_RCC_OscConfig+0x280>)
 800299a:	681b      	ldr	r3, [r3, #0]
 800299c:	4a6e      	ldr	r2, [pc, #440]	; (8002b58 <HAL_RCC_OscConfig+0x280>)
 800299e:	f423 3380 	bic.w	r3, r3, #65536	; 0x10000
 80029a2:	6013      	str	r3, [r2, #0]
 80029a4:	4b6c      	ldr	r3, [pc, #432]	; (8002b58 <HAL_RCC_OscConfig+0x280>)
 80029a6:	681b      	ldr	r3, [r3, #0]
 80029a8:	4a6b      	ldr	r2, [pc, #428]	; (8002b58 <HAL_RCC_OscConfig+0x280>)
 80029aa:	f423 2380 	bic.w	r3, r3, #262144	; 0x40000
 80029ae:	6013      	str	r3, [r2, #0]
 80029b0:	687b      	ldr	r3, [r7, #4]
 80029b2:	685b      	ldr	r3, [r3, #4]
 80029b4:	2b00      	cmp	r3, #0
 80029b6:	d013      	beq.n	80029e0 <HAL_RCC_OscConfig+0x108>
 80029b8:	f7fd fe10 	bl	80005dc <HAL_GetTick>
 80029bc:	6138      	str	r0, [r7, #16]
 80029be:	e008      	b.n	80029d2 <HAL_RCC_OscConfig+0xfa>
 80029c0:	f7fd fe0c 	bl	80005dc <HAL_GetTick>
 80029c4:	4602      	mov	r2, r0
 80029c6:	693b      	ldr	r3, [r7, #16]
 80029c8:	1ad3      	subs	r3, r2, r3
 80029ca:	2b64      	cmp	r3, #100	; 0x64
 80029cc:	d901      	bls.n	80029d2 <HAL_RCC_OscConfig+0xfa>
 80029ce:	2303      	movs	r3, #3
 80029d0:	e229      	b.n	8002e26 <HAL_RCC_OscConfig+0x54e>
 80029d2:	4b61      	ldr	r3, [pc, #388]	; (8002b58 <HAL_RCC_OscConfig+0x280>)
 80029d4:	681b      	ldr	r3, [r3, #0]
 80029d6:	f403 3300 	and.w	r3, r3, #131072	; 0x20000
 80029da:	2b00      	cmp	r3, #0
 80029dc:	d0f0      	beq.n	80029c0 <HAL_RCC_OscConfig+0xe8>
 80029de:	e014      	b.n	8002a0a <HAL_RCC_OscConfig+0x132>
 80029e0:	f7fd fdfc 	bl	80005dc <HAL_GetTick>
 80029e4:	6138      	str	r0, [r7, #16]
 80029e6:	e008      	b.n	80029fa <HAL_RCC_OscConfig+0x122>
 80029e8:	f7fd fdf8 	bl	80005dc <HAL_GetTick>
 80029ec:	4602      	mov	r2, r0
 80029ee:	693b      	ldr	r3, [r7, #16]
 80029f0:	1ad3      	subs	r3, r2, r3
 80029f2:	2b64      	cmp	r3, #100	; 0x64
 80029f4:	d901      	bls.n	80029fa <HAL_RCC_OscConfig+0x122>
 80029f6:	2303      	movs	r3, #3
 80029f8:	e215      	b.n	8002e26 <HAL_RCC_OscConfig+0x54e>
 80029fa:	4b57      	ldr	r3, [pc, #348]	; (8002b58 <HAL_RCC_OscConfig+0x280>)
 80029fc:	681b      	ldr	r3, [r3, #0]
 80029fe:	f403 3300 	and.w	r3, r3, #131072	; 0x20000
 8002a02:	2b00      	cmp	r3, #0
 8002a04:	d1f0      	bne.n	80029e8 <HAL_RCC_OscConfig+0x110>
 8002a06:	e000      	b.n	8002a0a <HAL_RCC_OscConfig+0x132>
 8002a08:	bf00      	nop
 8002a0a:	687b      	ldr	r3, [r7, #4]
 8002a0c:	681b      	ldr	r3, [r3, #0]
 8002a0e:	f003 0302 	and.w	r3, r3, #2
 8002a12:	2b00      	cmp	r3, #0
 8002a14:	d069      	beq.n	8002aea <HAL_RCC_OscConfig+0x212>
 8002a16:	4b50      	ldr	r3, [pc, #320]	; (8002b58 <HAL_RCC_OscConfig+0x280>)
 8002a18:	689b      	ldr	r3, [r3, #8]
 8002a1a:	f003 030c 	and.w	r3, r3, #12
 8002a1e:	2b00      	cmp	r3, #0
 8002a20:	d00b      	beq.n	8002a3a <HAL_RCC_OscConfig+0x162>
 8002a22:	4b4d      	ldr	r3, [pc, #308]	; (8002b58 <HAL_RCC_OscConfig+0x280>)
 8002a24:	689b      	ldr	r3, [r3, #8]
 8002a26:	f003 030c 	and.w	r3, r3, #12
 8002a2a:	2b08      	cmp	r3, #8
 8002a2c:	d11c      	bne.n	8002a68 <HAL_RCC_OscConfig+0x190>
 8002a2e:	4b4a      	ldr	r3, [pc, #296]	; (8002b58 <HAL_RCC_OscConfig+0x280>)
 8002a30:	685b      	ldr	r3, [r3, #4]
 8002a32:	f403 0380 	and.w	r3, r3, #4194304	; 0x400000
 8002a36:	2b00      	cmp	r3, #0
 8002a38:	d116      	bne.n	8002a68 <HAL_RCC_OscConfig+0x190>
 8002a3a:	4b47      	ldr	r3, [pc, #284]	; (8002b58 <HAL_RCC_OscConfig+0x280>)
 8002a3c:	681b      	ldr	r3, [r3, #0]
 8002a3e:	f003 0302 	and.w	r3, r3, #2
 8002a42:	2b00      	cmp	r3, #0
 8002a44:	d005      	beq.n	8002a52 <HAL_RCC_OscConfig+0x17a>
 8002a46:	687b      	ldr	r3, [r7, #4]
 8002a48:	68db      	ldr	r3, [r3, #12]
 8002a4a:	2b01      	cmp	r3, #1
 8002a4c:	d001      	beq.n	8002a52 <HAL_RCC_OscConfig+0x17a>
 8002a4e:	2301      	movs	r3, #1
 8002a50:	e1e9      	b.n	8002e26 <HAL_RCC_OscConfig+0x54e>
 8002a52:	4b41      	ldr	r3, [pc, #260]	; (8002b58 <HAL_RCC_OscConfig+0x280>)
 8002a54:	681b      	ldr	r3, [r3, #0]
 8002a56:	f023 02f8 	bic.w	r2, r3, #248	; 0xf8
 8002a5a:	687b      	ldr	r3, [r7, #4]
 8002a5c:	691b      	ldr	r3, [r3, #16]
 8002a5e:	00db      	lsls	r3, r3, #3
 8002a60:	493d      	ldr	r1, [pc, #244]	; (8002b58 <HAL_RCC_OscConfig+0x280>)
 8002a62:	4313      	orrs	r3, r2
 8002a64:	600b      	str	r3, [r1, #0]
 8002a66:	e040      	b.n	8002aea <HAL_RCC_OscConfig+0x212>
 8002a68:	687b      	ldr	r3, [r7, #4]
 8002a6a:	68db      	ldr	r3, [r3, #12]
 8002a6c:	2b00      	cmp	r3, #0
 8002a6e:	d023      	beq.n	8002ab8 <HAL_RCC_OscConfig+0x1e0>
 8002a70:	4b39      	ldr	r3, [pc, #228]	; (8002b58 <HAL_RCC_OscConfig+0x280>)
 8002a72:	681b      	ldr	r3, [r3, #0]
 8002a74:	4a38      	ldr	r2, [pc, #224]	; (8002b58 <HAL_RCC_OscConfig+0x280>)
 8002a76:	f043 0301 	orr.w	r3, r3, #1
 8002a7a:	6013      	str	r3, [r2, #0]
 8002a7c:	f7fd fdae 	bl	80005dc <HAL_GetTick>
 8002a80:	6138      	str	r0, [r7, #16]
 8002a82:	e008      	b.n	8002a96 <HAL_RCC_OscConfig+0x1be>
 8002a84:	f7fd fdaa 	bl	80005dc <HAL_GetTick>
 8002a88:	4602      	mov	r2, r0
 8002a8a:	693b      	ldr	r3, [r7, #16]
 8002a8c:	1ad3      	subs	r3, r2, r3
 8002a8e:	2b02      	cmp	r3, #2
 8002a90:	d901      	bls.n	8002a96 <HAL_RCC_OscConfig+0x1be>
 8002a92:	2303      	movs	r3, #3
 8002a94:	e1c7      	b.n	8002e26 <HAL_RCC_OscConfig+0x54e>
 8002a96:	4b30      	ldr	r3, [pc, #192]	; (8002b58 <HAL_RCC_OscConfig+0x280>)
 8002a98:	681b      	ldr	r3, [r3, #0]
 8002a9a:	f003 0302 	and.w	r3, r3, #2
 8002a9e:	2b00      	cmp	r3, #0
 8002aa0:	d0f0      	beq.n	8002a84 <HAL_RCC_OscConfig+0x1ac>
 8002aa2:	4b2d      	ldr	r3, [pc, #180]	; (8002b58 <HAL_RCC_OscConfig+0x280>)
 8002aa4:	681b      	ldr	r3, [r3, #0]
 8002aa6:	f023 02f8 	bic.w	r2, r3, #248	; 0xf8
 8002aaa:	687b      	ldr	r3, [r7, #4]
 8002aac:	691b      	ldr	r3, [r3, #16]
 8002aae:	00db      	lsls	r3, r3, #3
 8002ab0:	4929      	ldr	r1, [pc, #164]	; (8002b58 <HAL_RCC_OscConfig+0x280>)
 8002ab2:	4313      	orrs	r3, r2
 8002ab4:	600b      	str	r3, [r1, #0]
 8002ab6:	e018      	b.n	8002aea <HAL_RCC_OscConfig+0x212>
 8002ab8:	4b27      	ldr	r3, [pc, #156]	; (8002b58 <HAL_RCC_OscConfig+0x280>)
 8002aba:	681b      	ldr	r3, [r3, #0]
 8002abc:	4a26      	ldr	r2, [pc, #152]	; (8002b58 <HAL_RCC_OscConfig+0x280>)
 8002abe:	f023 0301 	bic.w	r3, r3, #1
 8002ac2:	6013      	str	r3, [r2, #0]
 8002ac4:	f7fd fd8a 	bl	80005dc <HAL_GetTick>
 8002ac8:	6138      	str	r0, [r7, #16]
 8002aca:	e008      	b.n	8002ade <HAL_RCC_OscConfig+0x206>
 8002acc:	f7fd fd86 	bl	80005dc <HAL_GetTick>
 8002ad0:	4602      	mov	r2, r0
 8002ad2:	693b      	ldr	r3, [r7, #16]
 8002ad4:	1ad3      	subs	r3, r2, r3
 8002ad6:	2b02      	cmp	r3, #2
 8002ad8:	d901      	bls.n	8002ade <HAL_RCC_OscConfig+0x206>
 8002ada:	2303      	movs	r3, #3
 8002adc:	e1a3      	b.n	8002e26 <HAL_RCC_OscConfig+0x54e>
 8002ade:	4b1e      	ldr	r3, [pc, #120]	; (8002b58 <HAL_RCC_OscConfig+0x280>)
 8002ae0:	681b      	ldr	r3, [r3, #0]
 8002ae2:	f003 0302 	and.w	r3, r3, #2
 8002ae6:	2b00      	cmp	r3, #0
 8002ae8:	d1f0      	bne.n	8002acc <HAL_RCC_OscConfig+0x1f4>
 8002aea:	687b      	ldr	r3, [r7, #4]
 8002aec:	681b      	ldr	r3, [r3, #0]
 8002aee:	f003 0308 	and.w	r3, r3, #8
 8002af2:	2b00      	cmp	r3, #0
 8002af4:	d038      	beq.n	8002b68 <HAL_RCC_OscConfig+0x290>
 8002af6:	687b      	ldr	r3, [r7, #4]
 8002af8:	695b      	ldr	r3, [r3, #20]
 8002afa:	2b00      	cmp	r3, #0
 8002afc:	d019      	beq.n	8002b32 <HAL_RCC_OscConfig+0x25a>
 8002afe:	4b16      	ldr	r3, [pc, #88]	; (8002b58 <HAL_RCC_OscConfig+0x280>)
 8002b00:	6f5b      	ldr	r3, [r3, #116]	; 0x74
 8002b02:	4a15      	ldr	r2, [pc, #84]	; (8002b58 <HAL_RCC_OscConfig+0x280>)
 8002b04:	f043 0301 	orr.w	r3, r3, #1
 8002b08:	6753      	str	r3, [r2, #116]	; 0x74
 8002b0a:	f7fd fd67 	bl	80005dc <HAL_GetTick>
 8002b0e:	6138      	str	r0, [r7, #16]
 8002b10:	e008      	b.n	8002b24 <HAL_RCC_OscConfig+0x24c>
 8002b12:	f7fd fd63 	bl	80005dc <HAL_GetTick>
 8002b16:	4602      	mov	r2, r0
 8002b18:	693b      	ldr	r3, [r7, #16]
 8002b1a:	1ad3      	subs	r3, r2, r3
 8002b1c:	2b02      	cmp	r3, #2
 8002b1e:	d901      	bls.n	8002b24 <HAL_RCC_OscConfig+0x24c>
 8002b20:	2303      	movs	r3, #3
 8002b22:	e180      	b.n	8002e26 <HAL_RCC_OscConfig+0x54e>
 8002b24:	4b0c      	ldr	r3, [pc, #48]	; (8002b58 <HAL_RCC_OscConfig+0x280>)
 8002b26:	6f5b      	ldr	r3, [r3, #116]	; 0x74
 8002b28:	f003 0302 	and.w	r3, r3, #2
 8002b2c:	2b00      	cmp	r3, #0
 8002b2e:	d0f0      	beq.n	8002b12 <HAL_RCC_OscConfig+0x23a>
 8002b30:	e01a      	b.n	8002b68 <HAL_RCC_OscConfig+0x290>
 8002b32:	4b09      	ldr	r3, [pc, #36]	; (8002b58 <HAL_RCC_OscConfig+0x280>)
 8002b34:	6f5b      	ldr	r3, [r3, #116]	; 0x74
 8002b36:	4a08      	ldr	r2, [pc, #32]	; (8002b58 <HAL_RCC_OscConfig+0x280>)
 8002b38:	f023 0301 	bic.w	r3, r3, #1
 8002b3c:	6753      	str	r3, [r2, #116]	; 0x74
 8002b3e:	f7fd fd4d 	bl	80005dc <HAL_GetTick>
 8002b42:	6138      	str	r0, [r7, #16]
 8002b44:	e00a      	b.n	8002b5c <HAL_RCC_OscConfig+0x284>
 8002b46:	f7fd fd49 	bl	80005dc <HAL_GetTick>
 8002b4a:	4602      	mov	r2, r0
 8002b4c:	693b      	ldr	r3, [r7, #16]
 8002b4e:	1ad3      	subs	r3, r2, r3
 8002b50:	2b02      	cmp	r3, #2
 8002b52:	d903      	bls.n	8002b5c <HAL_RCC_OscConfig+0x284>
 8002b54:	2303      	movs	r3, #3
 8002b56:	e166      	b.n	8002e26 <HAL_RCC_OscConfig+0x54e>
 8002b58:	40023800 	.word	0x40023800
 8002b5c:	4b92      	ldr	r3, [pc, #584]	; (8002da8 <HAL_RCC_OscConfig+0x4d0>)
 8002b5e:	6f5b      	ldr	r3, [r3, #116]	; 0x74
 8002b60:	f003 0302 	and.w	r3, r3, #2
 8002b64:	2b00      	cmp	r3, #0
 8002b66:	d1ee      	bne.n	8002b46 <HAL_RCC_OscConfig+0x26e>
 8002b68:	687b      	ldr	r3, [r7, #4]
 8002b6a:	681b      	ldr	r3, [r3, #0]
 8002b6c:	f003 0304 	and.w	r3, r3, #4
 8002b70:	2b00      	cmp	r3, #0
 8002b72:	f000 80a4 	beq.w	8002cbe <HAL_RCC_OscConfig+0x3e6>
 8002b76:	4b8c      	ldr	r3, [pc, #560]	; (8002da8 <HAL_RCC_OscConfig+0x4d0>)
 8002b78:	6c1b      	ldr	r3, [r3, #64]	; 0x40
 8002b7a:	f003 5380 	and.w	r3, r3, #268435456	; 0x10000000
 8002b7e:	2b00      	cmp	r3, #0
 8002b80:	d10d      	bne.n	8002b9e <HAL_RCC_OscConfig+0x2c6>
 8002b82:	4b89      	ldr	r3, [pc, #548]	; (8002da8 <HAL_RCC_OscConfig+0x4d0>)
 8002b84:	6c1b      	ldr	r3, [r3, #64]	; 0x40
 8002b86:	4a88      	ldr	r2, [pc, #544]	; (8002da8 <HAL_RCC_OscConfig+0x4d0>)
 8002b88:	f043 5380 	orr.w	r3, r3, #268435456	; 0x10000000
 8002b8c:	6413      	str	r3, [r2, #64]	; 0x40
 8002b8e:	4b86      	ldr	r3, [pc, #536]	; (8002da8 <HAL_RCC_OscConfig+0x4d0>)
 8002b90:	6c1b      	ldr	r3, [r3, #64]	; 0x40
 8002b92:	f003 5380 	and.w	r3, r3, #268435456	; 0x10000000
 8002b96:	60bb      	str	r3, [r7, #8]
 8002b98:	68bb      	ldr	r3, [r7, #8]
 8002b9a:	2301      	movs	r3, #1
 8002b9c:	75fb      	strb	r3, [r7, #23]
 8002b9e:	4b83      	ldr	r3, [pc, #524]	; (8002dac <HAL_RCC_OscConfig+0x4d4>)
 8002ba0:	681b      	ldr	r3, [r3, #0]
 8002ba2:	f403 7380 	and.w	r3, r3, #256	; 0x100
 8002ba6:	2b00      	cmp	r3, #0
 8002ba8:	d118      	bne.n	8002bdc <HAL_RCC_OscConfig+0x304>
 8002baa:	4b80      	ldr	r3, [pc, #512]	; (8002dac <HAL_RCC_OscConfig+0x4d4>)
 8002bac:	681b      	ldr	r3, [r3, #0]
 8002bae:	4a7f      	ldr	r2, [pc, #508]	; (8002dac <HAL_RCC_OscConfig+0x4d4>)
 8002bb0:	f443 7380 	orr.w	r3, r3, #256	; 0x100
 8002bb4:	6013      	str	r3, [r2, #0]
 8002bb6:	f7fd fd11 	bl	80005dc <HAL_GetTick>
 8002bba:	6138      	str	r0, [r7, #16]
 8002bbc:	e008      	b.n	8002bd0 <HAL_RCC_OscConfig+0x2f8>
 8002bbe:	f7fd fd0d 	bl	80005dc <HAL_GetTick>
 8002bc2:	4602      	mov	r2, r0
 8002bc4:	693b      	ldr	r3, [r7, #16]
 8002bc6:	1ad3      	subs	r3, r2, r3
 8002bc8:	2b64      	cmp	r3, #100	; 0x64
 8002bca:	d901      	bls.n	8002bd0 <HAL_RCC_OscConfig+0x2f8>
 8002bcc:	2303      	movs	r3, #3
 8002bce:	e12a      	b.n	8002e26 <HAL_RCC_OscConfig+0x54e>
 8002bd0:	4b76      	ldr	r3, [pc, #472]	; (8002dac <HAL_RCC_OscConfig+0x4d4>)
 8002bd2:	681b      	ldr	r3, [r3, #0]
 8002bd4:	f403 7380 	and.w	r3, r3, #256	; 0x100
 8002bd8:	2b00      	cmp	r3, #0
 8002bda:	d0f0      	beq.n	8002bbe <HAL_RCC_OscConfig+0x2e6>
 8002bdc:	687b      	ldr	r3, [r7, #4]
 8002bde:	689b      	ldr	r3, [r3, #8]
 8002be0:	2b01      	cmp	r3, #1
 8002be2:	d106      	bne.n	8002bf2 <HAL_RCC_OscConfig+0x31a>
 8002be4:	4b70      	ldr	r3, [pc, #448]	; (8002da8 <HAL_RCC_OscConfig+0x4d0>)
 8002be6:	6f1b      	ldr	r3, [r3, #112]	; 0x70
 8002be8:	4a6f      	ldr	r2, [pc, #444]	; (8002da8 <HAL_RCC_OscConfig+0x4d0>)
 8002bea:	f043 0301 	orr.w	r3, r3, #1
 8002bee:	6713      	str	r3, [r2, #112]	; 0x70
 8002bf0:	e02d      	b.n	8002c4e <HAL_RCC_OscConfig+0x376>
 8002bf2:	687b      	ldr	r3, [r7, #4]
 8002bf4:	689b      	ldr	r3, [r3, #8]
 8002bf6:	2b00      	cmp	r3, #0
 8002bf8:	d10c      	bne.n	8002c14 <HAL_RCC_OscConfig+0x33c>
 8002bfa:	4b6b      	ldr	r3, [pc, #428]	; (8002da8 <HAL_RCC_OscConfig+0x4d0>)
 8002bfc:	6f1b      	ldr	r3, [r3, #112]	; 0x70
 8002bfe:	4a6a      	ldr	r2, [pc, #424]	; (8002da8 <HAL_RCC_OscConfig+0x4d0>)
 8002c00:	f023 0301 	bic.w	r3, r3, #1
 8002c04:	6713      	str	r3, [r2, #112]	; 0x70
 8002c06:	4b68      	ldr	r3, [pc, #416]	; (8002da8 <HAL_RCC_OscConfig+0x4d0>)
 8002c08:	6f1b      	ldr	r3, [r3, #112]	; 0x70
 8002c0a:	4a67      	ldr	r2, [pc, #412]	; (8002da8 <HAL_RCC_OscConfig+0x4d0>)
 8002c0c:	f023 0304 	bic.w	r3, r3, #4
 8002c10:	6713      	str	r3, [r2, #112]	; 0x70
 8002c12:	e01c      	b.n	8002c4e <HAL_RCC_OscConfig+0x376>
 8002c14:	687b      	ldr	r3, [r7, #4]
 8002c16:	689b      	ldr	r3, [r3, #8]
 8002c18:	2b05      	cmp	r3, #5
 8002c1a:	d10c      	bne.n	8002c36 <HAL_RCC_OscConfig+0x35e>
 8002c1c:	4b62      	ldr	r3, [pc, #392]	; (8002da8 <HAL_RCC_OscConfig+0x4d0>)
 8002c1e:	6f1b      	ldr	r3, [r3, #112]	; 0x70
 8002c20:	4a61      	ldr	r2, [pc, #388]	; (8002da8 <HAL_RCC_OscConfig+0x4d0>)
 8002c22:	f043 0304 	orr.w	r3, r3, #4
 8002c26:	6713      	str	r3, [r2, #112]	; 0x70
 8002c28:	4b5f      	ldr	r3, [pc, #380]	; (8002da8 <HAL_RCC_OscConfig+0x4d0>)
 8002c2a:	6f1b      	ldr	r3, [r3, #112]	; 0x70
 8002c2c:	4a5e      	ldr	r2, [pc, #376]	; (8002da8 <HAL_RCC_OscConfig+0x4d0>)
 8002c2e:	f043 0301 	orr.w	r3, r3, #1
 8002c32:	6713      	str	r3, [r2, #112]	; 0x70
 8002c34:	e00b      	b.n	8002c4e <HAL_RCC_OscConfig+0x376>
 8002c36:	4b5c      	ldr	r3, [pc, #368]	; (8002da8 <HAL_RCC_OscConfig+0x4d0>)
 8002c38:	6f1b      	ldr	r3, [r3, #112]	; 0x70
 8002c3a:	4a5b      	ldr	r2, [pc, #364]	; (8002da8 <HAL_RCC_OscConfig+0x4d0>)
 8002c3c:	f023 0301 	bic.w	r3, r3, #1
 8002c40:	6713      	str	r3, [r2, #112]	; 0x70
 8002c42:	4b59      	ldr	r3, [pc, #356]	; (8002da8 <HAL_RCC_OscConfig+0x4d0>)
 8002c44:	6f1b      	ldr	r3, [r3, #112]	; 0x70
 8002c46:	4a58      	ldr	r2, [pc, #352]	; (8002da8 <HAL_RCC_OscConfig+0x4d0>)
 8002c48:	f023 0304 	bic.w	r3, r3, #4
 8002c4c:	6713      	str	r3, [r2, #112]	; 0x70
 8002c4e:	687b      	ldr	r3, [r7, #4]
 8002c50:	689b      	ldr	r3, [r3, #8]
 8002c52:	2b00      	cmp	r3, #0
 8002c54:	d015      	beq.n	8002c82 <HAL_RCC_OscConfig+0x3aa>
 8002c56:	f7fd fcc1 	bl	80005dc <HAL_GetTick>
 8002c5a:	6138      	str	r0, [r7, #16]
 8002c5c:	e00a      	b.n	8002c74 <HAL_RCC_OscConfig+0x39c>
 8002c5e:	f7fd fcbd 	bl	80005dc <HAL_GetTick>
 8002c62:	4602      	mov	r2, r0
 8002c64:	693b      	ldr	r3, [r7, #16]
 8002c66:	1ad3      	subs	r3, r2, r3
 8002c68:	f241 3288 	movw	r2, #5000	; 0x1388
 8002c6c:	4293      	cmp	r3, r2
 8002c6e:	d901      	bls.n	8002c74 <HAL_RCC_OscConfig+0x39c>
 8002c70:	2303      	movs	r3, #3
 8002c72:	e0d8      	b.n	8002e26 <HAL_RCC_OscConfig+0x54e>
 8002c74:	4b4c      	ldr	r3, [pc, #304]	; (8002da8 <HAL_RCC_OscConfig+0x4d0>)
 8002c76:	6f1b      	ldr	r3, [r3, #112]	; 0x70
 8002c78:	f003 0302 	and.w	r3, r3, #2
 8002c7c:	2b00      	cmp	r3, #0
 8002c7e:	d0ee      	beq.n	8002c5e <HAL_RCC_OscConfig+0x386>
 8002c80:	e014      	b.n	8002cac <HAL_RCC_OscConfig+0x3d4>
 8002c82:	f7fd fcab 	bl	80005dc <HAL_GetTick>
 8002c86:	6138      	str	r0, [r7, #16]
 8002c88:	e00a      	b.n	8002ca0 <HAL_RCC_OscConfig+0x3c8>
 8002c8a:	f7fd fca7 	bl	80005dc <HAL_GetTick>
 8002c8e:	4602      	mov	r2, r0
 8002c90:	693b      	ldr	r3, [r7, #16]
 8002c92:	1ad3      	subs	r3, r2, r3
 8002c94:	f241 3288 	movw	r2, #5000	; 0x1388
 8002c98:	4293      	cmp	r3, r2
 8002c9a:	d901      	bls.n	8002ca0 <HAL_RCC_OscConfig+0x3c8>
 8002c9c:	2303      	movs	r3, #3
 8002c9e:	e0c2      	b.n	8002e26 <HAL_RCC_OscConfig+0x54e>
 8002ca0:	4b41      	ldr	r3, [pc, #260]	; (8002da8 <HAL_RCC_OscConfig+0x4d0>)
 8002ca2:	6f1b      	ldr	r3, [r3, #112]	; 0x70
 8002ca4:	f003 0302 	and.w	r3, r3, #2
 8002ca8:	2b00      	cmp	r3, #0
 8002caa:	d1ee      	bne.n	8002c8a <HAL_RCC_OscConfig+0x3b2>
 8002cac:	7dfb      	ldrb	r3, [r7, #23]
 8002cae:	2b01      	cmp	r3, #1
 8002cb0:	d105      	bne.n	8002cbe <HAL_RCC_OscConfig+0x3e6>
 8002cb2:	4b3d      	ldr	r3, [pc, #244]	; (8002da8 <HAL_RCC_OscConfig+0x4d0>)
 8002cb4:	6c1b      	ldr	r3, [r3, #64]	; 0x40
 8002cb6:	4a3c      	ldr	r2, [pc, #240]	; (8002da8 <HAL_RCC_OscConfig+0x4d0>)
 8002cb8:	f023 5380 	bic.w	r3, r3, #268435456	; 0x10000000
 8002cbc:	6413      	str	r3, [r2, #64]	; 0x40
 8002cbe:	687b      	ldr	r3, [r7, #4]
 8002cc0:	699b      	ldr	r3, [r3, #24]
 8002cc2:	2b00      	cmp	r3, #0
 8002cc4:	f000 80ae 	beq.w	8002e24 <HAL_RCC_OscConfig+0x54c>
 8002cc8:	4b37      	ldr	r3, [pc, #220]	; (8002da8 <HAL_RCC_OscConfig+0x4d0>)
 8002cca:	689b      	ldr	r3, [r3, #8]
 8002ccc:	f003 030c 	and.w	r3, r3, #12
 8002cd0:	2b08      	cmp	r3, #8
 8002cd2:	d06d      	beq.n	8002db0 <HAL_RCC_OscConfig+0x4d8>
 8002cd4:	687b      	ldr	r3, [r7, #4]
 8002cd6:	699b      	ldr	r3, [r3, #24]
 8002cd8:	2b02      	cmp	r3, #2
 8002cda:	d14b      	bne.n	8002d74 <HAL_RCC_OscConfig+0x49c>
 8002cdc:	4b32      	ldr	r3, [pc, #200]	; (8002da8 <HAL_RCC_OscConfig+0x4d0>)
 8002cde:	681b      	ldr	r3, [r3, #0]
 8002ce0:	4a31      	ldr	r2, [pc, #196]	; (8002da8 <HAL_RCC_OscConfig+0x4d0>)
 8002ce2:	f023 7380 	bic.w	r3, r3, #16777216	; 0x1000000
 8002ce6:	6013      	str	r3, [r2, #0]
 8002ce8:	f7fd fc78 	bl	80005dc <HAL_GetTick>
 8002cec:	6138      	str	r0, [r7, #16]
 8002cee:	e008      	b.n	8002d02 <HAL_RCC_OscConfig+0x42a>
 8002cf0:	f7fd fc74 	bl	80005dc <HAL_GetTick>
 8002cf4:	4602      	mov	r2, r0
 8002cf6:	693b      	ldr	r3, [r7, #16]
 8002cf8:	1ad3      	subs	r3, r2, r3
 8002cfa:	2b02      	cmp	r3, #2
 8002cfc:	d901      	bls.n	8002d02 <HAL_RCC_OscConfig+0x42a>
 8002cfe:	2303      	movs	r3, #3
 8002d00:	e091      	b.n	8002e26 <HAL_RCC_OscConfig+0x54e>
 8002d02:	4b29      	ldr	r3, [pc, #164]	; (8002da8 <HAL_RCC_OscConfig+0x4d0>)
 8002d04:	681b      	ldr	r3, [r3, #0]
 8002d06:	f003 7300 	and.w	r3, r3, #33554432	; 0x2000000
 8002d0a:	2b00      	cmp	r3, #0
 8002d0c:	d1f0      	bne.n	8002cf0 <HAL_RCC_OscConfig+0x418>
 8002d0e:	687b      	ldr	r3, [r7, #4]
 8002d10:	69da      	ldr	r2, [r3, #28]
 8002d12:	687b      	ldr	r3, [r7, #4]
 8002d14:	6a1b      	ldr	r3, [r3, #32]
 8002d16:	431a      	orrs	r2, r3
 8002d18:	687b      	ldr	r3, [r7, #4]
 8002d1a:	6a5b      	ldr	r3, [r3, #36]	; 0x24
 8002d1c:	019b      	lsls	r3, r3, #6
 8002d1e:	431a      	orrs	r2, r3
 8002d20:	687b      	ldr	r3, [r7, #4]
 8002d22:	6a9b      	ldr	r3, [r3, #40]	; 0x28
 8002d24:	085b      	lsrs	r3, r3, #1
 8002d26:	3b01      	subs	r3, #1
 8002d28:	041b      	lsls	r3, r3, #16
 8002d2a:	431a      	orrs	r2, r3
 8002d2c:	687b      	ldr	r3, [r7, #4]
 8002d2e:	6adb      	ldr	r3, [r3, #44]	; 0x2c
 8002d30:	061b      	lsls	r3, r3, #24
 8002d32:	431a      	orrs	r2, r3
 8002d34:	687b      	ldr	r3, [r7, #4]
 8002d36:	6b1b      	ldr	r3, [r3, #48]	; 0x30
 8002d38:	071b      	lsls	r3, r3, #28
 8002d3a:	491b      	ldr	r1, [pc, #108]	; (8002da8 <HAL_RCC_OscConfig+0x4d0>)
 8002d3c:	4313      	orrs	r3, r2
 8002d3e:	604b      	str	r3, [r1, #4]
 8002d40:	4b19      	ldr	r3, [pc, #100]	; (8002da8 <HAL_RCC_OscConfig+0x4d0>)
 8002d42:	681b      	ldr	r3, [r3, #0]
 8002d44:	4a18      	ldr	r2, [pc, #96]	; (8002da8 <HAL_RCC_OscConfig+0x4d0>)
 8002d46:	f043 7380 	orr.w	r3, r3, #16777216	; 0x1000000
 8002d4a:	6013      	str	r3, [r2, #0]
 8002d4c:	f7fd fc46 	bl	80005dc <HAL_GetTick>
 8002d50:	6138      	str	r0, [r7, #16]
 8002d52:	e008      	b.n	8002d66 <HAL_RCC_OscConfig+0x48e>
 8002d54:	f7fd fc42 	bl	80005dc <HAL_GetTick>
 8002d58:	4602      	mov	r2, r0
 8002d5a:	693b      	ldr	r3, [r7, #16]
 8002d5c:	1ad3      	subs	r3, r2, r3
 8002d5e:	2b02      	cmp	r3, #2
 8002d60:	d901      	bls.n	8002d66 <HAL_RCC_OscConfig+0x48e>
 8002d62:	2303      	movs	r3, #3
 8002d64:	e05f      	b.n	8002e26 <HAL_RCC_OscConfig+0x54e>
 8002d66:	4b10      	ldr	r3, [pc, #64]	; (8002da8 <HAL_RCC_OscConfig+0x4d0>)
 8002d68:	681b      	ldr	r3, [r3, #0]
 8002d6a:	f003 7300 	and.w	r3, r3, #33554432	; 0x2000000
 8002d6e:	2b00      	cmp	r3, #0
 8002d70:	d0f0      	beq.n	8002d54 <HAL_RCC_OscConfig+0x47c>
 8002d72:	e057      	b.n	8002e24 <HAL_RCC_OscConfig+0x54c>
 8002d74:	4b0c      	ldr	r3, [pc, #48]	; (8002da8 <HAL_RCC_OscConfig+0x4d0>)
 8002d76:	681b      	ldr	r3, [r3, #0]
 8002d78:	4a0b      	ldr	r2, [pc, #44]	; (8002da8 <HAL_RCC_OscConfig+0x4d0>)
 8002d7a:	f023 7380 	bic.w	r3, r3, #16777216	; 0x1000000
 8002d7e:	6013      	str	r3, [r2, #0]
 8002d80:	f7fd fc2c 	bl	80005dc <HAL_GetTick>
 8002d84:	6138      	str	r0, [r7, #16]
 8002d86:	e008      	b.n	8002d9a <HAL_RCC_OscConfig+0x4c2>
 8002d88:	f7fd fc28 	bl	80005dc <HAL_GetTick>
 8002d8c:	4602      	mov	r2, r0
 8002d8e:	693b      	ldr	r3, [r7, #16]
 8002d90:	1ad3      	subs	r3, r2, r3
 8002d92:	2b02      	cmp	r3, #2
 8002d94:	d901      	bls.n	8002d9a <HAL_RCC_OscConfig+0x4c2>
 8002d96:	2303      	movs	r3, #3
 8002d98:	e045      	b.n	8002e26 <HAL_RCC_OscConfig+0x54e>
 8002d9a:	4b03      	ldr	r3, [pc, #12]	; (8002da8 <HAL_RCC_OscConfig+0x4d0>)
 8002d9c:	681b      	ldr	r3, [r3, #0]
 8002d9e:	f003 7300 	and.w	r3, r3, #33554432	; 0x2000000
 8002da2:	2b00      	cmp	r3, #0
